:100000000C942A000C948C040C9498040C944700D3
:100010000C9447000C9447000C9447000C94470044
:100020000C9447000C9447000C9488030C944700F0
:100030000C9447000C94AB030C9447000C944700BD
:100040000C9447000C9447000C9447000C94470014
:100050000C94470011241FBECFE5D8E0DEBFCDBF12
:1000600011E0A0E6B0E0E2ECF4E102C005900D92F0
:10007000AE3DB107D9F722E0AEEDB1E001C01D926F
:10008000AC35B207E1F70E94A4040C94350A0C9435
:100090000000CF93DF9300D000D0CDB7DEB78FB78D
:1000A000F894209158023091590240915A0250918F
:1000B0005B0229833A834B835C838FBF69817A819A
:1000C0008B819C810F900F900F900F90DF91CF91BB
:1000D0000895CF92DF92EF92FF926A017B01E82FA1
:1000E000F0E064E0869F90011124D901A85BBD4F28
:1000F0004D915D916D917C91C416D506E606F7068B
:1001000008F440C0882309F445C050916300409131
:100110006200842F90E0652F70E04517C0F5DB0189
:10012000A81BB90BCD0154E0880F991F5A95E1F730
:100130006AE070E00E94D109CB010F96BAE04B9FB4
:10014000A0011124485A5D4F5BBD4ABDEA5BFD4FDB
:1001500041E04083B0E0A0E0C80ED91EEA1EFB1EBD
:10016000F901E05BFD4FC082D182E282F382285B1D
:100170003D4F8C0D9D1DAE1DBF1DF90180839183E8
:10018000A283B383FF90EF90DF90CF900895861BFA
:10019000970BC9CF80E293E099BD88BD8AE790E0D4
:1001A000D5CF97B1907F982B97B9369A3699FECFD5
:1001B00084B195B108955D9BFECF8CB90895CF931E
:1001C000DF93EC018991811103C0DF91CF910895F4
:1001D0000E94DB00F7CFEF92FF921F93CF93DF9344
:1001E00000D000D000D0CDB7DEB7382F292F10E0D7
:1001F0008AE0E82EF12C81E090E08C0F9D1F810FAA
:10020000911DFC011F5F832F922FB7010E94BD0932
:10021000805D8083832F922F362F272F0A9758F7E0
:1002200011110CC026960FB6F894DEBF0FBECDBFDD
:10023000DF91CF911F91FF90EF9008951150E1E071
:10024000F0E0EC0FFD1FE10FF11D80810E94DB004B
:10025000E7CF82990AC087ED90E00E94DF00839982
:1002600007C084EF90E00C94DF008BEC90E0F5CFBA
:1002700088EE90E0F8CF2FB7F894DD98EDECF0E041
:100280003197F1F700C0000098E080FF13C0DD9ABD
:100290008695EDECF0E03197F1F700C00000915049
:1002A000A1F7DD9A2FBF8DEC90E00197F1F700C028
:1002B00000000895DD98ECCFCF92DF92EF92FF928D
:1002C0000F931F93CF93DF9300D000D000D0CDB712
:1002D000DEB79FEF998396E09A838B831C82762703
:1002E000672776277E836D83CE0101967C016E01A0
:1002F00097E0C90ED11CF70110E000E02191020F38
:10030000111DEC15FD05D1F71195019511098EE729
:100310000E943B01F70181917F010E943B01EC1497
:10032000FD04C1F7812F0E943B01802F0E943B01F9
:100330008FEE26960FB6F894DEBF0FBECDBFDF91CD
:10034000CF911F910F91FF90EF90DF90CF900C9481
:100350003B01A898A99A969A089587FF04C0A89A85
:10036000A998969A089581110C94A90196980895D8
:10037000AA98AB9AAC9A08958F3F21F4AA9AAB98A9
:10038000AC9A089581110C94B801AC980895462F49
:10039000572FBC0180914602882399F0809150022A
:1003A00090915102A0915202B091530248175907FF
:1003B0006A077B0730F08EEB95E099BD88BD1092FF
:1003C0004602809147028823C9F08091540290919F
:1003D0005502A0915602B0915702481759076A0773
:1003E0007B0760F0809163002AE0829FC0011124A6
:1003F000885A9D4F9BBD8ABD109247020895CF93A6
:10040000DF93CDB7DEB728970FB6F894DEBF0FBEE7
:10041000CDBF8091420290914302891778F015BCBC
:100420009798109245021092440228960FB6F894BD
:10043000DEBF0FBECDBFDF91CF91089590E0880F52
:10044000991FE0914402F0914502E80FF91F808165
:1004500021812983882319F183BD8CE185BD0E9408
:1004600049006D837E838F8398874981242F30E0F4
:10047000AAE0B0E00E940D0ADC01CB012D813E8193
:100480004F815885820F931FA41FB51F80933E0292
:1004900090933F02A0934002B0934102C6CF15BC97
:1004A0009798DDCF90934502809344026093430276
:1004B000109242020C94FF01BF92CF92DF92EF9212
:1004C000FF920F931F93CF93DF936B017C01809179
:1004D000440290914502892BA1F080913E029091B7
:1004E0003F02A0914002B0914102C816D906EA0627
:1004F000FB0638F0809142028F5F809342020E9497
:10050000FF0180913102811110C02CEDC21625E04F
:10051000D206E104F10408F467C081E0809331025F
:100520006EE070E086E00E945C018FB7F894609105
:10053000350210923502B0903602109236020091C8
:10054000390210913A0210923A0210923902C09187
:100550003702D091380210923802109237028FBFC2
:10056000662341F0603208F049C06150770B86E0A5
:100570000E945C01BB2031F070E060E08FEF8B0DDA
:100580000E945C0170E060E086E10130110539F005
:100590000115110531F0B8016150710982E10E9425
:1005A0005C0170E060E085E1C130D10531F0209759
:1005B00031F0BE016150710983E10E945C018FB787
:1005C000F894C091340210923402D0913302109208
:1005D000330210913202109232028FBFC11111C04A
:1005E000D11115C0111136C0DF91CF911F910F911C
:1005F000FF90EF90DF90CF90BF9008956EE170E094
:10060000B6CF8FEF8C0F80936300DD2321F08FEF47
:100610008D0F809362006091630080914702811189
:1006200008C02AE0629FC0011124885A9D4F9BBDDB
:100630008ABD81E090E00E94240A6091620082E01D
:1006400090E00E94240A65EC90E080E00E94240A79
:10065000CD2B41F285E091E00E94DF0080916300A4
:1006600090E00E94EB008AE391E00E94DF0080911D
:10067000620090E00E94EB008FE391E00E94DF00B7
:10068000123009F0B1CFB701A60181E0DF91CF911F
:100690001F910F91FF90EF90DF90CF90BF900C943F
:1006A00069008F929F92AF92BF92DF92EF92FF927A
:1006B000CF93DF9300D000D0CDB7DEB74B015C0104
:1006C0000E944900860E971EA81EB91E0E9449006E
:1006D000681579058A059B0570F00F900F900F90B3
:1006E0000F90DF91CF91FF90EF90DF90BF90AF9090
:1006F0009F908F9008950E9449006983D72E7C01B6
:100700000E945C0269817D2DC7010E94C701DECF76
:100710001F921FB61F9211248F939F93AF93BF9385
:100720008091580290915902A0915A02B0915B02B7
:100730000196A11DB11D8093580290935902A09378
:100740005A02B0935B02BF91AF919F918F911F901E
:100750001FBE1F9018951F920F920FB60F92112473
:100760002F933F934F935F936F937F938F939F93B9
:10077000EF93FF938CB190913D02911109C0EFEC82
:10078000E80FEA32E8F4F0E0E95CF54F0C94070A70
:1007900090ED980F9A3018F540913B0250913C0231
:1007A0009AE0949F9001959F300D112420533109B8
:1007B000280F311D87FD3A9530933C0220933B0270
:1007C000FF91EF919F918F917F916F915F914F91E9
:1007D0003F912F910F900FBE0F901F9018958B3364
:1007E00071F490913D02903581F420913B0230915B
:1007F0003C022F5F3F4F30933A0220933902109210
:100800003D028B3309F0BBCFDBCF90913D02913499
:1008100059F420913B0230913C022F5F3F4F3093BF
:10082000380220933702EBCF90913D02963541F488
:1008300020913B0230913C022F5F20933502DFCFA5
:1008400090913D0220913B0230913C02983559F441
:100850002F3F3105A0F620913B0230913C022F5FE3
:1008600020933602CCCF253B310548F690913D02CE
:10087000983441F420913B0230913C022F5F209349
:100880003402BDCF90913D0220913B0230913C0259
:100890002F5F9A3419F420933302B1CF20933202A0
:1008A000AECF80933D0210923C0210923B0288CF63
:1008B0008093610091E040915802509159026091FB
:1008C0005A0270915B0240932B0250932C0260936A
:1008D0002D0270932E0221E020932A02992309F41D
:1008E0006FCF5D9B6DCF80628CB96ACF91E09093A2
:1008F0003002E1CF91E090932F02DDCF90ED980F81
:100900009093600090E0D7CF91E090932902FACFC6
:1009100091E090932802F6CF8F938FB78F938091B9
:1009200027028160809327028F918FBF8F91189546
:100930008F938FB78F9380912702826080932702D5
:100940008F918FBF8F911895CDB7DEB7A8970FB64F
:10095000F894DEBF0FBECDBF81B3806381BB82EA56
:100960008FBD8AE18EBD80E29EE497BD86BD8EEB91
:1009700095E099BD88BD90E080E00E941C0A853C0E
:1009800091F481E090E00E941C0A8983853B58F431
:1009900082E090E00E941C0A853B28F42981209384
:1009A000630080936200809163003AE0839FC001FE
:1009B0001124885A9D4F9BBD8ABD84B7806884BF2F
:1009C00084BF87B38C7F87BB88B3836088BB8F9AD3
:1009D0008BE083BF8CE78CBF89B7826089BF84B30B
:1009E0008F6184BB8E9AD49ADC9A80E487B986E8BA
:1009F00086B9D59ADD9A10BC93E399B998E99AB96A
:100A000080BD81B3837F81BB82B38C6082BB85B79D
:100A10008A6085BF80EC8ABF8BB7806C8BBF78946F
:100A20004FE758E381E0415050408040E1F700C07B
:100A30000000B19B1FC163E083EB90E00E94520273
:100A40000E9449006B017C0198EBC90E9BE0D91E06
:100A5000E11CF11C10E001E00E94490069837A83E7
:100A60008B839C83802F90E09C012F5F3F4F3CA3A2
:100A70002BA329813A814B815C812C153D054E05C4
:100A80005F0508F4A7C1880F991FAC014B535F4F56
:100A90005EA34DA380E00E94AD0180E00E94BC01F6
:100AA000109228021092290251E05D83C12CD12CB2
:100AB00076010E94490069837A838B839C836981D4
:100AC0007A818B819C810E945C0269817A818B8111
:100AD0009C810E94C70189819A81AB81BC818C1560
:100AE0009D05AE05BF0560F06C017D0198EEC90E55
:100AF00093E0D91EE11CF11C81EC91E00E94DF0023
:100B000080912902882309F4A0C110922902A091A2
:100B10006000AFA3A23011F0B1E0BFA365E08BEBA2
:100B200090E00E9452026CEB72E080E090E00E9444
:100B3000510388EC91E00E94DF008BA19CA10E94F0
:100B4000EB00AFA183E191E0A23011F48EE091E0DF
:100B50000E94DF000E9429010E94490069837A8374
:100B60008B839C831092DE011092DF011092E001D2
:100B70001092E101109228028FB7F8949091270209
:100B8000109227028FBF1B8E1C8E1D8E1E8E1F8201
:100B90001E82B1E0BA8FE1E0ED8318A62FEF3FEFA0
:100BA0003D8B2C8B1F8E18A219A21AA2812C912C7E
:100BB00054011E8A1F8A188E198E188A198A1A8A59
:100BC0001B8A1C861D861E861F860E9449006B019B
:100BD0007C01DC01CB0129813A814B815C81821B44
:100BE000930BA40BB50B88879987AA87BB87BC0199
:100BF000CD0128EE33E040E050E00E94E50944EBEF
:100C0000242E312C221A330A88859985AA85BB8522
:100C100080329F4BA240B10538F48091280288238E
:100C200009F421C11092280280E00E94AD0180E009
:100C30000E94BC0188ED91E00E94DF00BE818B2FF5
:100C400090E00E94EB0080E20E94DB00EF818E2F9B
:100C500090E00E94EB008AE00E94DB0067E08DE6F6
:100C600090E00E9452026CED75E080E090E00E94FE
:100C7000510310CF8DE491E00E94DF0061E089EB29
:100C800090E00E94520268E572E080E090E00E94ED
:100C9000510387E591E00E94DF008FEF0E94AD01D4
:100CA00060E971E080E090E00E94510380E00E94E2
:100CB000AD0160E971E080E090E00E94510386E6BA
:100CC00091E00E94DF000E94A90160E971E080E0EC
:100CD00090E00E94510380E00E94AD0163E083EB4D
:100CE00090E00E94520260E273E080E090E00E9497
:100CF000510386E791E00E94DF000E944900AB01AA
:100D0000BC0180E00E94690068E572E080E090E04C
:100D10000E94510365E089EA90E00E94520264E873
:100D200073E080E090E00E94510380E891E00E942F
:100D3000DF008FEF0E94BC0160E971E080E090E08D
:100D40000E94510380E00E94BC0160E971E080E0F4
:100D500090E00E94510382E991E00E94DF000E942E
:100D6000B80160E971E080E090E00E94510380E00A
:100D70000E94BC0161E089EB90E00E94520268E5AC
:100D800072E080E090E00E94510385EA91E00E94C9
:100D9000DF000E944900AB01BC0181E00E946900B4
:100DA00068E572E080E090E00E9451030E94290112
:100DB00082EB91E00E94DF0067E08DE690E00E9408
:100DC00052026CED75E080E090E00E945103B19B0F
:100DD000FECF31CE0E94490069837A838B839C8346
:100DE00069817A818B819C810E945C02B19928C0C3
:100DF000111132CE8BA19CA163E070E00E94D10959
:100E0000082FDC01A659BF4F880F991FFC01EC5930
:100E1000FF4F6C91808191810E945202C980DA80DB
:100E2000EB80FC80A8EBCA0EABE0DA1EE11CF11CE3
:100E3000EFE5FAEE3197F1F700C0000011E00CCEBB
:100E400010E00ACE8D818D8334CEB199FCCFED8137
:100E5000E111F8CF8FE59AEE0197F1F700C000009D
:100E600091E09FA35BCEC701B6010E945C02C7015F
:100E7000B6010E94C7012C853D854E855F85712C8A
:100E8000C216D306E406F50608F497C081E00E9476
:100E9000D1008C0183E00E94D1009C0177247A94D8
:100EA0000E3541E0140730F0772473940B3812406C
:100EB00008F4712C2B38324008F455C080914C0254
:100EC00090914D02A0914E02B0914F02C816D906E2
:100ED000EA06FB0608F447C0B701A60181E00E94BC
:100EE00069008091DE019091DF01A091E001B09155
:100EF000E101892B8A2B8B2BB1F550916300409136
:100F00006200842F90E0252F30E0451708F0CCC018
:100F1000D901A81BB90BCD0124E0880F991F2A9590
:100F2000E1F76AE070E00E94D109CB010F96880FCB
:100F3000991F63E070E00E94D1098B01770F220BAB
:100F4000330BD701C6018A5D9D4FAF4FBF4F080FCE
:100F5000191F2A1F3B1F0093DE011093DF0120930E
:100F6000E0013093E101B199A2C0BD81B11125C06A
:100F70002E893F89488D598DC216D306E406F506A1
:100F800008F497C0D701C6018854944FAF4FBF4FA4
:100F9000888B998BAA8BBB8BA70196012856354C61
:100FA0004F4F5F4F2E8B3F8B488F598F68E08DE8F6
:100FB00090E00E94520231E03D83872D0E94BC01E7
:100FC0008091E2019091E301A091E401B091E501EB
:100FD000C816D906EA06FB06C8F0D701C6010A966C
:100FE000A11DB11D8093E2019093E301A093E40160
:100FF000B093E5018091E60190E0FC01E951FE4FDC
:10100000708201968F7399278093E6012FB7F89429
:1010100080912B0290912C02A0912D02B0912E0272
:101020002FBF412C512C3201C816D906EA06FB0607
:1010300030F026013701481A590A6A0A7B0A809162
:101040002A02882341F011E05CED451655E0550673
:101050006104710408F010E088A5181771F19FA1D0
:10106000913051F58DE990E0112311F083EA90E081
:1010700061E00E94520285E291E0112311F088E1C3
:1010800091E00E94DF00288939894A895B8918A785
:10109000C216D306E406F50608F0D8C010922F0257
:1010A0001092300200E05DC0821B930B35CF1D8291
:1010B00084CF41E04D8381CF18A788899989AA8977
:1010C000BB89C816D906EA06FB0640F39FA19230F9
:1010D00009F0BCC080E00E94D1003C0182E00E9487
:1010E000D1009C010FEFAEE56A16A1E07A0638F058
:1010F00001E0BBE86B16B2E07B0608F400E02B3899
:10110000324028F0B701A60180E00E94690086B352
:101110008095182F117080FF1FC0FA8DF1111CC02F
:10112000C814D904EA04FB04B8F0A70196012854B6
:10113000344F4F4F5F4F2C873D874E875F87460167
:10114000570138E9830E3AE3931EA11CB11C68E0F5
:101150008DE890E00E94520210922F02109230020D
:101160001A8F802F0E94AD019FB7F89480912702BB
:10117000109227029FBF882389F12B8D3C8D4D8DC6
:101180005E8DC216D306E406F50640F1A70196016E
:1011900024523A4F4F4F5F4F2B8F3C8F4D8F5E8FB6
:1011A00081FFDBC03E813F5F3E8364E083E890E0E7
:1011B0000E94520282E391E00E94DF005E81852F4F
:1011C00090E00E94EB0080E20E94DB00AF818A2F5A
:1011D00090E00E94EB008AE00E94DB00BBE02B164F
:1011E000310460F4EC89FD892E163F0629F061E098
:1011F0008BE890E00E9452023D8A2C8A2F8D38A104
:1012000049A15AA1C216D306E406F50608F4DDCCBE
:10121000D701C60188519C4FAF4FBF4F8F8F98A306
:10122000A9A3BAA385ED91E00E94DF00C1010E944D
:10123000EB009FA1923009F49BC0A8A587E491E040
:10124000AA2309F497C081E491E094C048A54423FF
:1012500009F449C0809161000FEF8C3431F0809126
:10126000610001E0823509F000E050E9451651E0E7
:1012700055066104710408F000E080913002882373
:1012800039F010923002B701A60180E00E94690097
:1012900080912F028823F1F010922F02C814D904F4
:1012A000EA04FB04B8F0D701C6018854944FAF4F4D
:1012B000BF4F8C879D87AE87BF874601570198E94E
:1012C000890E9AE3991EA11CB11C68E08DE890E09C
:1012D0000E9452021092DE011092DF011092E00192
:1012E0001092E1013ECF2091E60130E0215C3F4FBA
:1012F000ADA1BEA18D919C916AE070E00E94BD09F4
:10130000C901861B910960E470E00E94D109FC01CB
:10131000FF27E951FE4F00818091DE019091DF01AE
:10132000A091E001B091E1010097A105B10509F498
:1013300018CFC816D906EA06FB0608F412CF109299
:10134000DE011092DF011092E0011092E101B7017D
:10135000A60180E00E94690004CF4F814F5F4F8358
:1013600064E08BE790E00E94520287E391E024CF93
:101370008CE391E00E94DF0028CCAA1BBB1B51E14B
:1013800007C0AA1FBB1FA617B70710F0A61BB70BF5
:10139000881F991F5A95A9F780959095BC01CD019A
:1013A000089597FB072E16F4009407D077FD09D017
:1013B0000E94BD0907FC05D03EF4909581959F4F92
:1013C0000895709561957F4F0895A1E21A2EAA1B8A
:1013D000BB1BFD010DC0AA1FBB1FEE1FFF1FA217E5
:1013E000B307E407F50720F0A21BB30BE40BF50BE2
:1013F000661F771F881F991F1A9469F7609570956B
:10140000809590959B01AC01BD01CF010895EE0F31
:10141000FF1F0590F491E02D0994A29FB001B39FA6
:10142000C001A39F700D811D1124911DB29F700DED
:10143000811D1124911D0895E199FECF9FBB8EBBA4
:10144000E09A99278DB30895262FE199FECF9FBB8F
:101450008EBBE09A01970DB2021631F02DBB0FB68C
:10146000F894E29AE19A0FBE0895F894FFCF7E04B3
:101470007E04E003E003E003E003E003E003E003B5
:10148000E003E003E003E003E003E003E0035104D2
:10149000E003E003E00388047604E0035104E00382
:1014A000510484045804E003E003E0035104E00322
:1014B00058045804E00351045104E0035104E003CC
:0214C0007A04AC
:1014C20001532164B900B300A9000103053E3C00A9
:1014D2000A290F0005290F0005290F290C310C3E9E
:1014E2000C531E3E08310829081E1E1E031E044608
:1014F200041E0446041E0446041E04460423063247
:1015020006460A46063206230A2D08000A2D08005E
:101512000A2D082D08000A2D082D084B0A00053C4B
:101522000A00052D192C01B40050004C41534552BC
:101532002041204F4B0A004C41534552204120424A
:101542004C4F434B45440A004C41534552204220E4
:101552004F4B0A004C41534552204220424C4F43CC
:101562004B45440A005031534552564F2000203219
:10157200500A002031500A004D4F44452043414D4E
:101582004552410A004D4F4445204D4952524F5257
:101592000A00472048200047204120002050320AFC
:1015A200002043414D0A00204D49520A0053454C48
:1015B20046544553540A004149206D6F746F72209E
:1015C2004C4546540A004149206D6F746F72205297
:1015D200494748540A00414920736572766F0A00F0
:1015E20048554D414E206D6F746F72204C454654E4
:1015F2000A0048554D414E206D6F746F722052495A
:101602004748540A0048554D414E20736572766F23
:101612000A0053454C465445535420646F6E650A84
:101622000052454144590A005354415254204C45FA
:0E16320056454C2000542000454E4420000038
:00000001FF
