:100000000C942A000C9448050C9454050C94470059
:100010000C9447000C9447000C9447000C94470044
:100020000C9447000C9447000C9415040C94470062
:100030000C9447000C9438040C9447000C9447002F
:100040000C9447000C9447000C9447000C94470014
:100050000C94470011241FBECFE5D8E0DEBFCDBF12
:1000600011E0A0E6B0E0E4E6F7E102C005900D92F1
:10007000AA3FB107D9F722E0AAEFB1E001C01D9273
:10008000AD37B207E1F70E9460050C94860B0C9423
:100090000000CF93DF9300D000D0CDB7DEB78FB78D
:1000A000F8942091790230917A0240917B0250912C
:1000B0007C0229833A834B835C838FBF69817A8179
:1000C0008B819C810F900F900F900F90DF91CF91BB
:1000D000089597B1907F982B97B9369A3699FECFAD
:1000E00084B195B108955D9BFECF8CB90895CF93EF
:1000F000DF93EC018991811103C0DF91CF910895C5
:100100000E947300F7CFEF92FF921F93CF93DF937C
:1001100000D000D000D0CDB7DEB7382F292F10E0A7
:100120008AE0E82EF12C81E090E08C0F9D1F810F7A
:10013000911DFC011F5F832F922FB7010E940E0BB0
:10014000805D8083832F922F362F272F0A9758F7B1
:1001500011110CC026960FB6F894DEBF0FBECDBFAE
:10016000DF91CF911F91FF90EF9008951150E1E042
:10017000F0E0EC0FFD1FE10FF11D80810E94730084
:10018000E7CF82990AC08AED90E00E9477008399B8
:1001900007C087EF90E00C9477008EEC90E0F5CFED
:1001A0008BEE90E0F8CF2FB7F894DD98EDECF0E00F
:1001B0003197F1F700C0000098E080FF13C0DD9A8E
:1001C0008695EDECF0E03197F1F700C0000091501A
:1001D000A1F7DD9A2FBF8DEC90E00197F1F700C0F9
:1001E00000000895DD98ECCFCF92DF92EF92FF925E
:1001F0000F931F93CF93DF9300D000D000D0CDB7E3
:10020000DEB79FEF998396E09A838B831C827627D3
:10021000672776277E836D83CE0101967C016E0170
:1002200097E0C90ED11CF70110E000E02191020F08
:10023000111DEC15FD05D1F71195019511098EE7FA
:100240000E94D300F70181917F010E94D300EC143A
:10025000FD04C1F7812F0E94D300802F0E94D3009C
:100260008FEE26960FB6F894DEBF0FBECDBFDF919E
:10027000CF911F910F91FF90EF90DF90CF900C9452
:10028000D300A898A99A969A089587FF04C0A89ABF
:10029000A998969A089581110C9441019698089511
:1002A000AA98AB9AAC9A08958F3F21F4AA9AAB987A
:1002B000AC9A089581110C945001AC980895462F82
:1002C000572FBC01809167028823C9F08091710289
:1002D00090917202A0917302B0917402481759076D
:1002E0006A077B0760F0809166002AE0829FC00168
:1002F0001124885A9D4F99BD88BD10926702809144
:1003000068028823C9F08091750290917602A091CD
:100310007702B0917802481759076A077B0760F0A7
:10032000809164002AE0829FC0011124885A9D4F69
:100330009BBD8ABD109268020895FF920F931F9390
:10034000CF93DF93F82E8A019B01C82FD0E064E0A1
:10035000869FF0011124DF01A759BD4F8D919D911A
:100360000D90BC91A02D081719072A073B0708F428
:1003700065C0F1101FC07091660060916500862F06
:1003800090E0472F50E0671790F4BA01681B790B93
:10039000CB0154E0880F991F5A95E1F76AE070E0AD
:1003A0000E94220B615F7F4F4091650021C0841B3A
:1003B000950BEFCF7091640060916300862F90E001
:1003C000472F50E0671708F03FC0BA01681B790B50
:1003D000CB0144E0880F991F4A95E1F76AE070E08D
:1003E0000E94220B615F7F4F40916300FF20E1F28A
:1003F0008AE0489FA0011124485A5D4FF11027C0A0
:1004000059BD48BDC959DD4F81E08883CB01B0E0BB
:10041000A0E0080F191F2A1F3B1FEF01CF58DD4F27
:10042000088319832A833B83E759FD4F800F911F6F
:10043000A21FB31F80839183A283B383DF91CF91E7
:100440001F910F91FF900895841B950BC2CF5BBD48
:100450004ABDD8CF6F927F928F929F92AF92BF92F8
:10046000CF92DF92EF92FF920F931F93CF93DF9380
:10047000C82F742E852E962EA72E2FB7F89490E0B5
:10048000FC01EC5AFD4FD0811082FC01EE5AFD4F69
:10049000B0801082FC01E05BFD4F608010822FBFB6
:1004A00043E6C42E40E0D42E54E6E52E50E0F52E6F
:1004B00000E0813049F025E6C22E20E0D22E36E65B
:1004C000E32E30E0F32E03E0D11113C0B11017C0BA
:1004D000611040C0DF91CF911F910F91FF90EF907D
:1004E000DF90CF90BF90AF909F908F907F906F9054
:1004F00008952FEF2D0FF7012083BB2021F02FEF60
:100500002B0DF601208389599D4FFC0180818111BB
:100510000CC0F7018081FAE08F9FC0011124885A36
:100520009D4FC11149C099BD88BD10E0F7016081A0
:10053000C80101960E94750BF6016081C801029600
:100540000E94750B66EC6C1BC8010E94750BDB29C1
:1005500009F4BECF81E191E0C13011F488E091E06F
:100560000E947700F701808190E00E94830086E579
:1005700091E00E947700F601808190E00E94830064
:1005800081E691E00E947700F2E06F12A3CF472D41
:10059000582D692D7A2D8C2FDF91CF911F910F91BE
:1005A000FF90EF90DF90CF90BF90AF909F908F9093
:1005B0007F906F900C949D019BBD8ABDB6CFCF9369
:1005C000DF93CDB7DEB728970FB6F894DEBF0FBE26
:1005D000CDBF8091630290916402891778F015BCB9
:1005E0009798109266021092650228960FB6F894BA
:1005F000DEBF0FBECDBFDF91CF91089590E0880F91
:10060000991FE0916502F0916602E80FF91F808161
:1006100021812983882319F183BD8CE185BD0E9446
:1006200049006D837E838F8398874981242F30E032
:10063000AAE0B0E00E945E0BDC01CB012D813E817F
:100640004F815885820F931FA41FB51F80935F02AF
:1006500090936002A0936102B0936202C6CF15BC72
:100660009798DDCF90936602809365026093640251
:10067000109263020C94DF02BF92CF92DF92EF924E
:10068000FF920F931F93CF93DF936B017C018091B7
:10069000650290916602892BA1F080915F02909192
:1006A0006002A0916102B0916202C816D906EA0602
:1006B000FB0638F0809163028F5F809363020E9493
:1006C000DF0280914F02811110C08CEDC81685E0C9
:1006D000D806E104F10408F467C081E080934F027A
:1006E0006EE070E086E00E94F4008FB7F8946091AD
:1006F000560210925602B090570210925702009183
:100700005A0210915B0210925B0210925A02C09141
:100710005802D091590210925902109258028FBF7C
:10072000662339F06032E8F56150770B86E00E946D
:10073000F400BB2031F070E060E08FEF8B0D0E9481
:10074000F40070E060E086E10130110539F0011538
:10075000110531F0B8016150710982E10E94F40085
:1007600070E060E085E1C130D10531F0209731F0D3
:10077000BE016150710983E10E94F400B701A60136
:1007800081E00E942A02B701A60180E0DF91CF91AB
:100790001F910F91FF90EF90DF90CF90BF900C943E
:1007A0002A026EE170E0C2CFDF91CF911F910F91CD
:1007B000FF90EF90DF90CF90BF9008958F929F921F
:1007C000AF92BF92DF92EF92FF92CF93DF9300D070
:1007D00000D0CDB7DEB74B015C010E944900860E08
:1007E000971EA81EB91E0E944900681579058A0542
:1007F0009B0570F00F900F900F900F90DF91CF91AD
:10080000FF90EF90DF90BF90AF909F908F900895F2
:100810000E9449006983D72E7C010E943C036981B4
:100820007D2DC7010E945F01DECF1F921FB61F9270
:1008300011248F939F93AF93BF93809179029091EE
:100840007A02A0917B02B0917C020196A11DB11D9C
:100850008093790290937A02A0937B02B0937C02FA
:10086000BF91AF919F918F911F901FBE1F901895C0
:100870001F920F920FB60F9211242F933F934F9315
:100880005F936F937F938F939F93EF93FF938CB1BD
:1008900090915E02911109C0EFECE80FEA32E8F4A2
:1008A000F0E0E857F44F0C94580B90ED980F9A3005
:1008B00018F540915C0250915D029AE0949F90017E
:1008C000959F300D112420533109280F311D87FDCC
:1008D0003A9530935D0220935C02FF91EF919F91D6
:1008E0008F917F916F915F914F913F912F910F90D9
:1008F0000FBE0F901F9018958B3371F490915E028C
:10090000903581F420915C0230915D022F5F3F4F62
:1009100030935B0220935A0210925E028B3309F0EF
:10092000BBCFDBCF90915E02913459F420915C02F1
:1009300030915D022F5F3F4F309359022093580250
:10094000EBCF90915E02963541F420915C0230919C
:100950005D022F5F20935602DFCF90915E022091BF
:100960005C0230915D02983559F42F3F3105A0F6B5
:1009700020915C0230915D022F5F20935702CCCF13
:10098000253B310548F690915E02983441F4209160
:100990005C0230915D022F5F20935502BDCF909194
:1009A0005E029A3441F420915C0230915D022F5F27
:1009B00020935302B1CF90915E02953541F420917E
:1009C0005C0230915D022F5F20935102A5CF909180
:1009D0005E02913541F420915C0230915D022F5FFF
:1009E0002093540299CF90915E0220915C02309145
:1009F0005D022F5F973519F4209352028DCF20931B
:100A000050028ACF80935E0210925D0210925C02C7
:100A100064CF8093620091E003C091E090934E0216
:100A20004091790250917A0260917B0270917C0230
:100A30004093490250934A0260934B0270934C02D8
:100A400021E020934802992309F447CF5D9B45CFCD
:100A500080628CB942CF91E090934D02E1CF8093B8
:100A60006000D9CF91E090934702DACF91E0909364
:100A70004602D6CF90ED980F9093610090E0D0CFD2
:100A800091E090934502FACF91E090934402F6CF23
:100A90008F938FB78F93809143028160809343023D
:100AA0008F918FBF8F9118958F938FB78F93809170
:100AB00043028260809343028F918FBF8F9118957C
:100AC000CDB7DEB7A9970FB6F894DEBF0FBECDBF86
:100AD00081B3806381BB82EA8FBD8AE18EBD80E2F3
:100AE0009EE497BD86BD83E090E00E946D0B863C3E
:100AF00091F484E090E00E946D0B8983853B58F46B
:100B000085E090E00E946D0B853B28F429812093BD
:100B1000660080936500809166003AE0839FC00183
:100B20001124885A9D4F99BD88BD90E080E00E94B5
:100B30006D0B853C91F481E090E00E946D0B898300
:100B4000853B58F482E090E00E946D0B853B28F4D1
:100B500049814093640080936300809164005AE06F
:100B6000859FC0011124885A9D4F9BBD8ABD84B7C3
:100B7000806884BF84BF87B38C7F87BB88B3836062
:100B800088BB8F9A8BE083BF8CE78CBF89B782606C
:100B900089BF84B38F6184BB8E9AD49ADC9A80E437
:100BA00087B986E886B9D59ADD9A10BC93E399B9DE
:100BB00098E99AB980BD81B3837F81BB82B38C6091
:100BC00082BB85B78A6085BF80EC8ABF8BB7806C9B
:100BD0008BBF78948FE798E3A1E081509040A040CC
:100BE000E1F700C00000B19B25C163E086EB90E017
:100BF0000E9432030E9449006B017C01B8EBCB0ECE
:100C0000BBE0DB1EE11CF11C10E001E00E9449008A
:100C100069837A838B839C83802F90E0DC0111961B
:100C2000BDA3ACA329813A814B815C812C153D0584
:100C30004E055F0508F4AEC1880F991FAC014853FB
:100C40005F4F5FA34EA380E00E94450180E00E94B9
:100C50005401109244021092450251E05D83C12C70
:100C6000D12C76010E94490069837A838B839C830F
:100C700069817A818B819C810E943C0369817A81A0
:100C80008B819C810E945F0189819A81AB81BC81AB
:100C90008C159D05AE05BF0560F06C017D0198EED9
:100CA000C90E93E0D91EE11CF11C8DED91E00E946C
:100CB000770080914502882309F4A7C1109245026C
:100CC000A0916100A8A7A33039F0B0916100B8A746
:100CD000B23011F0E1E0E8A765E08EEB90E00E9411
:100CE00032036CEB72E080E090E00E94DE0384EE61
:100CF00091E00E9477008CA19DA10E948300A8A58D
:100D00008AE191E0A33031F084E291E0A23011F465
:100D10008FE191E00E9477000E94C1000E9449008B
:100D200069837A838B839C831092FA011092FB0172
:100D30001092FC011092FD01109244028FB7F894BA
:100D400090914302109243028FBF1C8E1D8E1E8E07
:100D50001F8E812C912CB1E0BB8F11E019A6EFEF13
:100D6000FFEFFA8FE98F18A219A21AA21BA21D8603
:100D70001E861F86188A19861A861B861C861D8A5F
:100D80001E8A1F8A188E1D821E821F8218860E944C
:100D900049006B017C01AC019B0189819A81AB8187
:100DA000BC81281B390B4A0B5B0B298B3A8B4B8B75
:100DB0005C8BCA01B90128EE33E040E050E00E94AC
:100DC000360B44EB242E312C221A330A29893A8916
:100DD0004B895C8920323F4B4240510538F4809169
:100DE0004402882309F41FC11092440280E00E944B
:100DF000450180E00E94540184EF91E00E94770059
:100E0000892D90E00E94830080E20E947300882D6B
:100E100090E00E9483008AE00E94730067E080E710
:100E200090E00E9432036CED75E080E090E00E945B
:100E3000DE0309CF89E691E00E94770061E08CEB48
:100E400090E00E94320368E572E080E090E00E944A
:100E5000DE0383E791E00E9477008FEF0E94450157
:100E600060E971E080E090E00E94DE0380E00E9493
:100E7000450160E971E080E090E00E94DE0382E8D5
:100E800091E00E9477000E94410160E971E080E0FA
:100E900090E00E94DE0380E00E94450163E086EB63
:100EA00090E00E94320360E273E080E090E00E94F4
:100EB000DE0382E991E00E9477000E944900AB01C5
:100EC000BC0180E00E949D0168E572E080E090E056
:100ED0000E94DE0365E08CEA90E00E94320364E841
:100EE00073E080E090E00E94DE038CE991E00E94D4
:100EF00077008FEF0E94540160E971E080E090E09C
:100F00000E94DE0380E00E94540160E971E080E00D
:100F100090E00E94DE038EEA91E00E9477000E943A
:100F2000500160E971E080E090E00E94DE0380E023
:100F30000E94540161E08CEB90E00E94320368E56E
:100F400072E080E090E00E94DE0381EC91E00E947C
:100F500077000E944900AB01BC0181E00E949D0125
:100F600068E572E080E090E00E94DE030E94C1002C
:100F70008EEC91E00E94770067E080E790E00E94AD
:100F800032036CED75E080E090E00E94DE03B19BDF
:100F9000FECF2BCE0E94490069837A838B839C838A
:100FA00069817A818B819C810E943C03B19928C020
:100FB00011112CCE8CA19DA163E070E00E94220B48
:100FC000082FDC01A359BF4F880F991FFC01E95975
:100FD000FF4F6C91808191810E943203C980DA8039
:100FE000EB80FC80E8EBCE0EEBE0DE1EE11CF11C9A
:100FF0008FE59AEE0197F1F700C0000011E006CEF0
:1010000010E004CE8D818D832DCEB199FCCFFD8172
:10101000F111F8CF8FE59AEE0197F1F700C00000CB
:1010200091E098A759CEC701B6010E943C03C701C1
:10103000B6010E945F012FB7F89480914902909108
:101040004A02A0914B02B0914C022FBF412C512C6F
:101050003201C816D906EA06FB0630F02601370130
:10106000481A590A6A0A7B0A80914802882341F08B
:1010700001E09CED491695E059066104710408F001
:1010800000E0A9A50A17D9F0B8A5B23009F470C1DB
:1010900080EA90E0002311F086EA90E061E00E948F
:1010A000320389E291E0011107C0E8A583E491E0F1
:1010B000E13011F486E391E00E94770009A7F8A5DA
:1010C000F33009F056C12D813E814F815885C216FB
:1010D000D306E406F50608F445C139A5332309F41F
:1010E00041C1809160000FEF823431F08091600047
:1010F00001E08E3409F000E040E9441641E0540676
:101100006104710408F000E080914702882339F0FF
:1011100010924702B701A60181E00E949D018091D3
:101120004602882321F11092460289859A85AB8573
:10113000BC85C816D906EA06FB06C8F0A7019601C9
:101140002854344F4F4F5F4F2D8B3E8B4F8B588F12
:10115000D701C6018856954CAF4FBF4F89879A87F4
:10116000AB87BC8768E080E990E00E943203802F63
:101170000E9454018091FE019091FF01A091000214
:10118000B0910102C816D906EA06FB06C8F0D701DD
:10119000C6010A96A11DB11D8093FE019093FF0127
:1011A000A0930002B09301028091020290E0FC0142
:1011B000ED5FFD4F008301968F73992780930202A4
:1011C0008D899E89AF89B88DC816D906EA06FB06B7
:1011D00008F40DC298A5923009F06FC180E00E941A
:1011E00069005C0182E00E9469009C010FEFAEE59E
:1011F000AA16A1E0BA0638F001E0BBE8AB16B2E0EF
:10120000BB0608F400E02B38324028F0B701A601F5
:1012100080E00E949D0186B38095F82FF170BF2E6B
:1012200080FF25C02B8D211122C08D859E85AF8525
:10123000B889C816D906EA06FB06C8F0A7019601C8
:101240002854344F4F4F5F4F2D833E834F83588731
:10125000D701C6018856954CAF4FBF4F8D879E87EB
:10126000AF87B88B68E080E990E00E94320310926B
:101270004D0210924E02BB8E802F0E9445019FB7F7
:10128000F89480914302109243029FBF882369F132
:101290002C8D3D8D4E8D5F8DC216D306E406F5066E
:1012A00020F1A701960124523A4F4F4F5F4F2C8FE8
:1012B0003D8F4E8F5F8F81FF9FC1939464E086E8DE
:1012C00090E00E9432038EE491E00E947700892D25
:1012D00090E00E94830080E20E947300882D90E0DD
:1012E0000E9483008AE00E9473003BE023163104D1
:1012F00060F4498D5A8D2416350629F061E08EE898
:1013000090E00E9432033A8E298E88A199A1AAA169
:10131000BBA1C816D906EA06FB0608F438CDA7011A
:10132000960128513C4F4F4F5F4F28A339A34AA342
:101330005BA381EF91E00E947700C1010E948300CE
:1013400038A58EE591E0323051F0333009F05DC1BF
:1013500049A587E491E0442311F08AE191E00E94DD
:10136000770015CD109246021092470200E0FFCEA2
:1013700009A72D813E814F815885C216D306E40608
:10138000F506A0F381E00E9469005C0183E00E9401
:1013900069009C010FEF4EE5A41641E0B40638F059
:1013A00001E05BE8A51652E0B50608F400E02B3832
:1013B000324008F455C080916D0290916E02A09168
:1013C0006F02B0917002C816D906EA06FB0608F44F
:1013D00047C0B701A60181E00E949D018091FA01FA
:1013E0009091FB01A091FC01B091FD01892B8A2B0A
:1013F0008B2BB1F55091640040916300842F90E0F5
:10140000252F30E0451708F053C0D901A81BB90BB0
:10141000CD0124E0880F991F2A95E1F76AE070E07A
:101420000E94220BCB010F96880F991F63E070E09A
:101430000E94220B9B01770F440B550BC701B6018D
:101440006A5D7D4F8F4F9F4F620F731F841F951FE3
:101450006093FA017093FB018093FC019093FD016E
:10146000B19929C0111183CE29853A854B855C85B8
:10147000C216D306E406F506C8F0D701C6018854A3
:10148000944FAF4FBF4F8D8B9E8BAF8BB88FA70103
:1014900096012856354C4F4F5F4F29873A874B8727
:1014A0005C8768E080E990E00E94320311E05FCE43
:1014B000821B930BAECF10E05ACE99A5992309F465
:1014C0004FC0809162000FEF8C3431F08091620048
:1014D00001E0823509F000E0A0E94A16A1E05A06D1
:1014E0006104710408F000E080914E02882339F015
:1014F00010924E02B701A60180E00E949D018091EA
:101500004D02882321F110924D022D853E854F8595
:101510005889C216D306E406F506C8F0D701C601FD
:101520008854944FAF4FBF4F8D839E83AF83B8874E
:10153000A70196012856354C4F4F5F4F2D873E87A8
:101540004F87588B68E080E990E00E943203109248
:10155000FA011092FB011092FC011092FD018CCE59
:1015600038A5333051F41092FA011092FB01109219
:10157000FC011092FD0100E07FCE2091020230E0DC
:10158000215C3F4FAEA1BFA18D919C916AE070E0BC
:101590000E940E0BC901861B910960E470E00E9455
:1015A000220BFC01FF27ED5FFD4F00818091FA01C6
:1015B0009091FB01A091FC01B091FD010097A10564
:1015C000B10509F459CEC816D906EA06FB0608F497
:1015D00053CE1092FA011092FB011092FC0110926E
:1015E000FD01B701A60180E00E949D0145CE109249
:1015F0004D0210924E02BFCF839464E08EE790E0DC
:101600000E94320383E591E060CE59A583E691E024
:10161000552309F4A4CE88E591E0A1CEAA1BBB1BFB
:1016200051E107C0AA1FBB1FA617B70710F0A61BE2
:10163000B70B881F991F5A95A9F780959095BC0103
:10164000CD01089597FB072E16F4009407D077FD7F
:1016500009D00E940E0B07FC05D03EF490958195B1
:101660009F4F0895709561957F4F0895A1E21A2EBE
:10167000AA1BBB1BFD010DC0AA1FBB1FEE1FFF1F36
:10168000A217B307E407F50720F0A21BB30BE40B86
:10169000F50B661F771F881F991F1A9469F76095CD
:1016A0007095809590959B01AC01BD01CF01089587
:1016B000EE0FFF1F0590F491E02D0994A29FB00159
:1016C000B39FC001A39F700D811D1124911DB29F76
:1016D000700D811D1124911D0895E199FECF9FBBCE
:1016E0008EBBE09A99278DB30895262FE199FECFFE
:1016F0009FBB8EBBE09A01970DB2021631F02DBB55
:101700000FB6F894E29AE19A0FBE0895F894FFCFCD
:101710003A053A053A056D046D046D046D046D04D7
:101720006D046D046D046D046D046D046D046D0431
:1017300002052F056D046D0444050D0532050205F3
:101740006D040205400509052F052F056D040205EE
:101750000205090509050205020502050205020543
:0417600036052B051A
:101764004D015338611457BC00B600AC00010305A9
:101774003E3C000A290F0005290F0005290F290CFA
:10178400310C3E0C531E3E08310829081E1E1E0350
:101794001E0446041E0446041E0446041E04460495
:1017A40023063206460A46063206230A2D08000A94
:1017B4002D08000A2D082D08000A2D082D084B0AB3
:1017C40000053C0A00052D192C01B40050004C41C1
:1017D4005345522041204F4B0A004C41534552205F
:1017E4004120424C4F434B45440A004C415345521F
:1017F4002042204F4B0A004C415345522042204284
:101804004C4F434B45440A005031534552564F20E8
:10181400005032534552564F20002041490A0020BF
:1018240032500A002031500A004D4F4445204341B4
:101834004D4552410A004D4F4445204D4952524FA7
:10184400520A004D4F444520574149540A0047204D
:1018540048200047204120002043414D0A002050E9
:10186400320A00204D49520A0053454C4654455310
:10187400540A004149206D6F746F72204C454654E0
:101884000A004149206D6F746F72205249474854D1
:101894000A00414920736572766F0A0048554D412C
:1018A4004E206D6F746F72204C4546540A004855A3
:1018B4004D414E206D6F746F722052494748540A4F
:1018C4000048554D414E20736572766F0A005345AA
:1018D4004C465445535420646F6E650A005245418A
:1018E40044590A005354415254204C4556454C2007
:0A18F40000542000454E442000007F
:00000001FF
