:100000000C942A000C94A2020C94AE020C944700AB
:100010000C9447000C9447000C9447000C94470044
:100020000C9447000C9447000C9422020C94470057
:100030000C9447000C9445020C9447000C94470024
:100040000C9447000C9447000C9447000C94470014
:100050000C94470011241FBECFE5D8E0DEBFCDBF12
:1000600011E0A0E6B0E0E6EBFFE002C005900D92E3
:10007000A23DB107D9F722E0A2EDB1E001C01D9287
:10008000A334B207E1F70E94BA020C94D9070C948A
:100090000000CF93DF9300D000D0CDB7DEB78FB78D
:1000A000F89420913F0230914002409141025091DA
:1000B000420229833A834B835C838FBF69817A81B3
:1000C0008B819C810F900F900F900F90DF91CF91BB
:1000D0000895462F572FBC0180912D02882399F057
:1000E0008091370290913802A0913902B0913A0282
:1000F000481759076A077B0730F08EEB95E099BDEA
:1001000088BD10922D0280912E02882399F0809153
:100110003B0290913C02A0913D02B0913E024817F3
:1001200059076A077B0730F08CED95E09BBD8ABDCF
:1001300010922E02089597B1907F982B97B9369A16
:100140003699FECF84B195B108955D9BFECF8CB9F1
:100150000895CF93DF93EC018991811103C0DF9162
:10016000CF9108950E94A500F7CFEF92FF921F93C1
:10017000CF93DF9300D000D000D0CDB7DEB7382FBB
:10018000292F10E08AE0E82EF12C81E090E08C0F1E
:100190009D1F810F911DFC011F5F832F922FB701BF
:1001A0000E948007805D8083832F922F362F272F18
:1001B0000A9758F711110CC026960FB6F894DEBFB7
:1001C0000FBECDBFDF91CF911F91FF90EF900895AB
:1001D0001150E1E0F0E0EC0FFD1FE10FF11D808117
:1001E0000E94A500E7CF82990AC085ED90E00E94A9
:1001F000A900839907C082EF90E00C94A90089ECD4
:1002000090E0F5CF86EE90E0F8CFA898A99A969A5C
:10021000089587FF04C0A89AA998969A0895811115
:100220000C94050196980895AA98AB9AAC9A0895F3
:100230008F3F21F4AA9AAB98AC9A089581110C943F
:100240001401AC980895CF92DF92EF92FF920F9332
:100250001F938A019B01682F70E094E0899FA001A1
:100260001124FA01E15DFD4FC080D180E280F3806E
:100270000C151D052E053F0560F1882339F082E538
:1002800093E09BBD8ABD87E790E006C080E293E0E3
:1002900099BD88BD8AE790E0635D7D4FE1E0DB01B9
:1002A000EC93B0E0A0E0080F191F2A1F3B1FFA01D2
:1002B000E95CFD4F0083118322833383415D5D4FF1
:1002C000800F911FA21FB31FFA0180839183A28325
:1002D000B3831F910F91FF90EF90DF90CF9008951F
:1002E000CF93DF93CDB7DEB728970FB6F894DEBF74
:1002F0000FBECDBF8091290290912A02891778F014
:1003000015BC979810922C0210922B0228960FB6CB
:10031000F894DEBF0FBECDBFDF91CF91089590E07E
:10032000880F991FE0912B02F0912C02E80FF91F22
:10033000808121812983882319F183BD8CE185BDCA
:100340000E9449006D837E838F8398874981242F83
:1003500030E0AAE0B0E00E94CA07DC01CB012D81A9
:100360003E814F815885820F931FA41FB51F809334
:10037000250290932602A0932702B0932802C6CFAD
:1003800015BC9798DDCF90932C0280932B0260933D
:100390002A02109229020C947001462F572FBC019B
:1003A00080912B0290912C02892BA1F08091250243
:1003B00090912602A0912702B09128024817590770
:1003C0006A077B0738F0809129028F5F80932902AA
:1003D0000C94700108958F929F92AF92BF92DF921A
:1003E000EF92FF92CF93DF9300D000D0CDB7DEB76E
:1003F0004B015C010E944900860E971EA81EB91E83
:100400000E944900681579058A059B0570F00F90D8
:100410000F900F900F90DF91CF91FF90EF90DF90B2
:10042000BF90AF909F908F9008950E94490069837C
:10043000D72E7C010E94CD0169817D2DC7010E94CC
:100440006900DECF1F921FB61F9211248F939F93D6
:10045000AF93BF9380913F0290914002A0914102DF
:10046000B09142020196A11DB11D80933F0290936D
:100470004002A0934102B0934202BF91AF919F917D
:100480008F911F901FBE1F9018952F932FB72F93FA
:100490004F935F936F937F938F939F938CB18B3424
:1004A00009F448C0C0F4853409F448C070F49FECE6
:1004B000980F9230C8F19F918F917F916F915F91CA
:1004C0004F912F912FBF2F9118958634A1F791E06E
:1004D0009093240209C0843508F5823510F48C34D9
:1004E00051F78093610091E040913F0250914002AA
:1004F000609141027091420240931F02509320028A
:10050000609321027093220221E020931E0299231E
:1005100091F25D9BD0CF80628CB9CDCF8A3559F6F0
:1005200091E090932302E0CF90ED980F90936000BC
:1005300090E0DACF91E090931D02FACF91E0909392
:100540001C02F6CF8F938FB78F9380911B0281602F
:1005500080931B028F918FBF8F9118958F938FB7C8
:100560008F9380911B02826080931B028F918FBFBB
:100570008F911895CDB7DEB7A4970FB6F894DEBF6C
:100580000FBECDBF81B3806381BB82EA8FBD8AE19C
:100590008EBD80E29EE497BD86BD8EEB95E099BD51
:1005A00088BD8CED95E09BBD8ABD84B7806884BF13
:1005B00084BF87B38C7F87BB88B3836088BB8F9AE7
:1005C0008BE083BF8CE78CBF89B7826089BF84B31F
:1005D0008F6184BB8E9AD49ADC9A80E487B986E8CE
:1005E00086B910BC93E399B998E99AB980BD81B3F3
:1005F000837F81BB82B38C6082BB85B78A6085BFF5
:1006000080EC8ABF8BB7806C8BBF78942FE738E380
:1006100041E0215030404040E1F700C00000B19B74
:100620001CC163E081EB90E00E94C3010E9449007D
:100630006B017C0158EBC50E5BE0D51EE11CF11C83
:1006400010E001E00E94490069837A838B839C83D8
:10065000802F90E04C01BFEF8B1A9B0A29813A81D1
:100660004B815C812C153D054E055F0508F4A5C145
:10067000880F991FAC014D535F4F5BA34AA380E0E5
:100680000E94090180E00E94180110921C02109241
:100690001D0251E05D83C12CD12C76010E944900DE
:1006A00069837A838B839C8369817A818B819C8126
:1006B0000E94CD0169817A818B819C810E946900B1
:1006C00089819A81AB81BC818C159D05AE05BF05E2
:1006D00060F06C017D0198EEC90E93E0D91EE11C1B
:1006E000F11C86EB91E00E94A90080911D028823F5
:1006F00009F49DC110921D02A0916000ACA3A2302C
:1007000011F0B1E0BCA365E089EB90E00E94C30169
:100710006CEB72E080E090E00E94EB018DEB91E0E9
:100720000E94A900C4010E94B500ACA188E091E03C
:10073000A23011F483E091E00E94A9000E94F3002E
:100740000E94490069837A838B839C831092D20133
:100750001092D3011092D4011092D50110921C0274
:100760008FB7F89490911B0210921B028FBF1A8EC4
:100770001B8E1C8E1D8E00E01E82B1E0B98FE1E061
:10078000ED8310E02FEF3FEF388B2F871E8E1F8EEB
:1007900018A219A2412C512C32011D8A1E8A1F8ACF
:1007A000188E1B861C861D861E861F82188619863B
:1007B0001A860E9449006B017C01DC01CB01298172
:1007C0003A814B815C81821B930BA40BB50B898B07
:1007D0009A8BAB8BBC8BBC01CD0128EE33E040E0A3
:1007E00050E00E94A80784EB282E312C221A330AED
:1007F00089899A89AB89BC8980329F4BA240B10517
:1008000038F480911C02882309F41FC110921C0245
:1008100080E00E94090180E00E9418018DEC91E0C7
:100820000E94A900AE818A2F90E00E94B50080E26C
:100830000E94A500802F90E00E94B5008AE00E94EF
:10084000A50067E08BE690E00E94C3016CED75E0C7
:1008500080E090E00E94EB0112CF82E491E00E94E0
:10086000A90061E087EB90E00E94C30168E572E0B7
:1008700080E090E00E94EB018CE491E00E94A900EE
:100880008FEF0E94090160E971E080E090E00E9432
:10089000EB0180E00E94090160E971E080E090E0F6
:1008A0000E94EB018BE591E00E94A9000E940501E6
:1008B00060E971E080E090E00E94EB0180E00E943E
:1008C000090163E081EB90E00E94C30160E273E004
:1008D00080E090E00E94EB018BE691E00E94A9008D
:1008E0000E944900AB01BC0180E00E94230168E541
:1008F00072E080E090E00E94EB0165E087EA90E022
:100900000E94C30164E873E080E090E00E94EB0184
:1009100085E791E00E94A9008FEF0E94180160E92D
:1009200071E080E090E00E94EB0180E00E941801FD
:1009300060E971E080E090E00E94EB0187E891E0DF
:100940000E94A9000E94140160E971E080E090E03B
:100950000E94EB0180E00E94180161E087EB90E0CB
:100960000E94C30168E572E080E090E00E94EB0124
:100970008AE991E00E94A9000E944900AB01BC01F4
:1009800081E00E94230168E572E080E090E00E942F
:10099000EB010E94F30087EA91E00E94A90067E062
:1009A0008BE690E00E94C3016CED75E080E090E082
:1009B0000E94EB01B19BFECF34CE0E9449006983B7
:1009C0007A838B839C8369817A818B819C810E944D
:1009D000CD01B19927C0111135CEC40163E070E09B
:1009E0000E949407082FDC01A859BF4F880F991F58
:1009F000FC01EE59FF4F6C91808191810E94C301EF
:100A0000C980DA80EB80FC8088EBC80E8BE0D81EB2
:100A1000E11CF11CAFE5BAEE1197F1F700C0000040
:100A200011E010CE10E00ECE8D818D8337CEB199BE
:100A3000FCCFED81E111F8CF8FE59AEE0197F1F748
:100A400000C0000091E09CA35ECEC701B6010E94E9
:100A5000CD01C701B6010E9469002F813885498503
:100A60005A85C216D306E406F50608F4E3C081E011
:100A70000E949B005C0183E00E949B009C014EE56C
:100A8000A41641E0B40608F4D2C051E0598B8BE8BB
:100A9000A81682E0B80608F4198A2B38324060F1B3
:100AA0008091330290913402A0913502B0913602C8
:100AB000C816D906EA06FB06F8F0B701A60181E0E0
:100AC0000E9423018091D2019091D301A091D40181
:100AD000B091D501892B8A2B8B2B71F4D701C601DC
:100AE0008B589D4FAF4FBF4F8093D2019093D3014E
:100AF000A093D401B093D501B1999EC0BD81B1112D
:100B000025C02D893E894F89588DC216D306E4062B
:100B1000F50608F493C0D701C6018854944FAF4F2F
:100B2000BF4F8B879C87AD87BE87A701960128564C
:100B3000354C4F4F5F4F2D8B3E8B4F8B588F68E05E
:100B40008BE890E00E94C30131E03D8389890E94D7
:100B500018018091D6019091D701A091D801B09150
:100B6000D901C816D906EA06FB06D0F0D701C6019E
:100B70000A96A11DB11D8093D6019093D701A09331
:100B8000D801B093D9018091DA0190E0FC01E552DF
:100B9000FE4F5989508301968F7399278093DA010C
:100BA0002FB7F89480911F0290912002A09121020A
:100BB000B09122022FBF20911E02222379F0A701BB
:100BC0009601281B390B4A0B5B0BDA01C90131E096
:100BD000398B80399140A105B10508F0198A5989EE
:100BE000511791F18CA11989813071F58BE990E051
:100BF000552311F081EA90E061E00E94C3019989D8
:100C000091111FC08AE191E00E94A9002B853C85CB
:100C10004D855E851989C216D306E406F50608F0EF
:100C2000DFC01092230210922402198A63C09FEF42
:100C3000998B33CF198A8ACF1D8288CF41E04D83AB
:100C400085CF8DE091E0E0CF8B859C85AD85BE851D
:100C5000C816D906EA06FB0620F39CA1923009F0DB
:100C6000BFC080E00E949B005C0182E00E949B006C
:100C70009C01AEE5AA16A1E0BA0608F4AEC0B1E048
:100C8000B98BEBE8AE16E2E0BE0608F4198A2B3801
:100C9000324028F0B701A60180E00E94230186B30C
:100CA0008095582F5170B52E80FF1FC0898D8111FE
:100CB0001CC0C414D504E604F704B8F0A7019601DB
:100CC0002854344F4F4F5F4F2F83388749875A87B7
:100CD0002601370138E9430E3AE3531E611C711CAB
:100CE00068E08BE890E00E94C3011092230210920A
:100CF0002402B98E89890E9409019FB7F8948091D6
:100D00001B0210921B029FBF882381F12A8D3B8D0D
:100D10004C8D5D8DC216D306E406F50638F1A701A9
:100D2000960124523A4F4F4F5F4F2A8F3B8F4C8F83
:100D30005D8F81FFD7C03E813F5F3E8364E081E8E5
:100D400090E00E94C3018CE291E00E94A9004E81D4
:100D5000842F90E00E94B50080E20E94A500802FC1
:100D600090E00E94B5008AE00E94A5005BE0251695
:100D7000310460F48F8598892816390629F061E0DE
:100D800089E890E00E94C301388A2F862E8D3F8D1E
:100D900048A159A1C216D306E406F50608F409CD08
:100DA000D701C60188519C4FAF4FBF4F8E8F9F8F89
:100DB000A8A3B9A38AEC91E00E94A900C1010E94F6
:100DC000B5009CA1923009F496C08CE391E0112308
:100DD00009F493C086E391E090C0FFEFF98B57CF01
:100DE000112309F444C0809161008C34E9F18091B1
:100DF000610041E0498B823509F0198A8091240213
:100E0000882339F010922402B701A60180E00E94E5
:100E10002301809123028823F1F010922302C4144D
:100E2000D504E604F704B8F0D701C6018854944FFE
:100E3000AF4FBF4F8F839887A987BA8726013701A5
:100E400098E9490E9AE3591E611C711C68E08BE811
:100E500090E00E94C3011092D2011092D30110922F
:100E6000D4011092D50146CF5FEF598BC7CF2091A7
:100E7000DA0130E0215C3F4FAAA1BBA18D919C918A
:100E80006AE070E00E948007C901861B910960E456
:100E900070E00E949407FC01FF27E552FE4FB081ED
:100EA000B98B8091D2019091D301A091D401B091DE
:100EB000D5010097A105B10509F41CCFC816D906C4
:100EC000EA06FB0608F416CF1092D2011092D30165
:100ED0001092D4011092D501B701A60180E00E94C2
:100EE000230108CF0F5F64E089E790E00E94C3010F
:100EF00087E291E02ACF81E391E00E94A90059CCDA
:100F0000AA1BBB1B51E107C0AA1FBB1FA617B7072F
:100F100010F0A61BB70B881F991F5A95A9F780954B
:100F20009095BC01CD01089597FB072E16F400940F
:100F300007D077FD09D00E94800707FC05D03EF45A
:100F4000909581959F4F0895709561957F4F089575
:100F5000A1E21A2EAA1BBB1BFD010DC0AA1FBB1FBD
:100F6000EE1FFF1FA217B307E407F50720F0A21B2F
:100F7000B30BE40BF50B661F771F881F991F1A949C
:100F800069F760957095809590959B01AC01BD01C6
:100F9000CF010895A29FB001B39FC001A39F700D20
:100FA000811D1124911DB29F700D811D1124911D71
:060FB0000895F894FFCF44
:100FB6000153B700B100A7000103053E3C000A2912
:100FC6000F0005290F0005290F290C310C3E0C5383
:100FD6001E3E08310829081E1E1E031E0446041E56
:100FE6000446041E0446041E04460423063206462E
:100FF6000A46063206230A2D08000A2D08000A2D85
:10100600082D08000A2D082D084B0A00053C0A0089
:10101600052D192C01B40050004C41534552204176
:10102600204F4B0A004C41534552204120424C4F21
:10103600434B45440A004C415345522042204F4BF6
:101046000A004C41534552204220424C4F434B45E7
:10105600440A002032500A002031500A004D4F4405
:10106600452043414D4552410A004D4F4445204DD0
:101076004952524F520A004720412000472048203B
:10108600002050320A002043414D0A00204D4952AB
:101096000A0053454C46544553540A004149206DB5
:1010A6006F746F72204C4546540A004149206D6F9B
:1010B600746F722052494748540A004149207365AB
:1010C60072766F0A0048554D414E206D6F746F72EF
:1010D600204C4546540A0048554D414E206D6F74CC
:1010E6006F722052494748540A0048554D414E20D8
:1010F600736572766F0A0053454C46544553542027
:10110600646F6E650A0052454144590A00535441C2
:101116005254204C4556454C2000542000454E4420
:021126002000A7
:00000001FF
