:100000000C942A000C943F000C943F000C943F0089
:100010000C943F000C943F000C943F000C943F0064
:100020000C943F000C943F000C943F000C943F0054
:100030000C943F000C943F000C943F000C943F0044
:100040000C943F000C943F000C943F000C943F0034
:100050000C943F0011241FBECFE5D8E0DEBFCDBF1A
:1000600010E0A0E6B0E0E2EDF2E002C005900D92F3
:10007000AE38B107D9F70E94B9000C9467010C940F
:100080000000FC018191811101C008955D9BFECFAC
:100090008CB9F8CFCF93DF9300D000D000D0CDB78C
:1000A000DEB76D837E839C01A8EEB3E00E94580109
:1000B00069837A838B839C836D817E819B0150E071
:1000C00040E0220F331F441F551F69817A818B81C5
:1000D0009C810E94360190E080E0979A50E040E0D9
:1000E0007AE17A95F1F700C0465F5F4F6D817E81BE
:1000F00046175707A8F3979850E040E07AE17A95C1
:10010000F1F700C0465F5F4F6D817E81461757074C
:10011000A8F301962817390701F726960FB6F89429
:10012000DEBF0FBECDBFDF91CF9108955F991DC097
:100130000E94410086E690E00E94410080EF99E431
:10014000A2E0B0E020E05F9B06C03CB12F3411F488
:100150003B3469F0232F3AE13A95F1F700C001975B
:10016000A109B10981F780E008952CB1DFCF81E0CA
:1001700008958F9AD49ADC9810BC8CE089B988E1F4
:100180008AB986E880BD2FEF8EE994E22150804045
:100190009040E1F700C0000000E610E0C1E0F80187
:1001A000E190F1908F01C7010E949600882309F425
:1001B0003FC0D0E0FFEF21EE84E0F15020408040CE
:1001C000E1F700C00000C33019F0CF5FDD2339F341
:1001D000D11138C060E971E088E790E00E944A00E0
:1001E0009FEFE6E7F1E09150E040F040E1F700C01A
:1001F00000006CE271E088E790E00E944A002FEF77
:1002000086E791E0215080409040E1F700C0000077
:1002100068EC70E088EC90E00E944A008FEF9DE36C
:10022000E9E481509040E040E1F700C00000D0CF09
:10023000C13011F0DC2FBECFC7010E949600882389
:10024000C9F3B7CFC0E064E873E088E592E00E94AC
:100250004A00EFEFF2E527E0E150F0402040E1F7FF
:1002600000C00000CF5FDC13EECFD8CFA1E21A2E82
:10027000AA1BBB1BFD010DC0AA1FBB1FEE1FFF1F4A
:10028000A217B307E407F50720F0A21BB30BE40B9A
:10029000F50B661F771F881F991F1A9469F76095E1
:1002A0007095809590959B01AC01BD01CF0108959B
:1002B000A29FB001B39FC001A39F700D811D1124A7
:1002C000911DB29F700D811D1124911D0895F89408
:0202D000FFCF5E
:1002D20069006C007D000D0A0041540041542B4E10
:1002E200414D453D43484545524956590041542BDD
:0E02F200554152543D393630302C302C3000FE
:00000001FF
