:100000000C942A000C9447000C9447000C94470071
:100010000C9447000C9447000C9447000C94470044
:100020000C9447000C9447000C94F3010C94470087
:100030000C9447000C9416020C9447000C94470053
:100040000C9447000C9447000C9447000C94470014
:100050000C94470011241FBECFE5D8E0DEBFCDBF12
:1000600011E0A0E6B0E0E4E3FDE002C005900D92EF
:10007000AA36B107D9F721E0AAE6B1E001C01D9286
:10008000A73DB207E1F70E9454020C9498060C9425
:100090000000CF93DF9300D000D0CDB7DEB78FB78D
:1000A000F8942091D3013091D4014091D501509121
:1000B000D60129833A834B835C838FBF69817A8120
:1000C0008B819C810F900F900F900F90DF91CF91BB
:1000D000089597B1907F982B97B9369A3699FECFAD
:1000E00084B195B1089586B38695817091E0892792
:1000F00008955D9BFECF8CB90895CF93DF93EC01FB
:100100008991811103C0DF91CF9108950E947900F8
:10011000F7CFEF92FF921F93CF93DF9300D000D0E1
:1001200000D0CDB7DEB7382F292F10E08AE0E82EB7
:10013000F12C81E090E08C0F9D1F810F911DFC013F
:100140001F5F832F922FB7010E943F06805D80833F
:10015000832F922F362F272F0A9758F711110CC093
:1001600026960FB6F894DEBF0FBECDBFDF91CF91BC
:100170001F91FF90EF9008951150E1E0F0E0EC0F37
:10018000FD1FE10FF11D80810E947900E7CF462F0E
:10019000572FBC018091C3019091C401A091C5016A
:1001A000B091C601481759076A077B0708F180E23A
:1001B00093E099BD88BD81E08093C201DB01CA0153
:1001C000865A9F4FAF4FBF4F8093C7019093C8018E
:1001D000A093C901B093CA014C5A5E4F6F4F7F4F35
:1001E0004093C3015093C4016093C5017093C6014D
:1001F0000895A898A99A969A089587FF04C0A89A86
:10020000A998969A089581110C94F90096980895EA
:10021000AA98AB9AAC9A08958F3F21F4AA9AAB980A
:10022000AC9A089581110C940801AC980895CF936D
:10023000DF93CDB7DEB728970FB6F894DEBF0FBEB9
:10024000CDBF8091BE019091BF01891778F015BC98
:1002500097981092C1011092C00128960FB6F89499
:10026000DEBF0FBECDBFDF91CF91089590E0880F24
:10027000991FE091C001F091C101E80FF91F808141
:1002800021812983882319F183BD8CE185BD0E94DA
:1002900049006D837E838F8398874981242F30E0C6
:1002A000AAE0B0E00E948906DC01CB012D813E81ED
:1002B0004F815885820F931FA41FB51F8093BA01E9
:1002C0009093BB01A093BC01B093BD01C6CF15BCF8
:1002D0009798DDCF9093C1018093C0016093BF01D7
:1002E0001092BE010C941701462F572FBC0180912C
:1002F000C0019091C101892BA1F08091BA01909128
:10030000BB01A091BC01B091BD01481759076A0714
:100310007B0738F08091BE018F5F8093BE010C9403
:1003200017010895CF92DF92EF92FF92CF93DF9360
:1003300000D000D0CDB7DEB76B017C010E94490030
:10034000C60ED71EE81EF91E0E9449006C157D05D9
:100350008E059F0558F00F900F900F900F90DF9132
:10036000CF91FF90EF90DF90CF9008950E944900C9
:1003700069837A838B839C8369817A818B819C8159
:100380000E9474018091C2018823B9F08091C70155
:100390009091C801A091C901B091CA0129813A8107
:1003A0004B815C81281739074A075B0730F04EEB19
:1003B00055E059BD48BD1092C2019599C5CF8091B5
:1003C000CF019091D001A091D101B091D2012981AA
:1003D0003A814B815C81281739074A075B0708F48B
:1003E000B3CF959AB1CF1F921FB61F9211248F934E
:1003F0009F93AF93BF938091D3019091D401A0912B
:10040000D501B091D6010196A11DB11D8093D301F4
:100410009093D401A093D501B093D601BF91AF9131
:100420009F918F911F901FBE1F9018954F934FB7AC
:100430004F935F936F937F938F939F938CB184358A
:1004400078F4823598F4863459F18C3479F09F91A0
:100450008F917F916F915F914F914FBF4F91189501
:100460008A35A9F791E09093B80102C080936000AB
:100470004091D3015091D4016091D5017091D60182
:100480004093B4015093B5016093B6017093B701E6
:1004900091E09093B3015D9BDACF80628CB9D7CFA6
:1004A00091E09093B901E4CFCDB7DEB76C970FB66A
:1004B000F894DEBF0FBECDBF959A8D9A84B7806841
:1004C00084BF84BF87B38C7F87BB88B3836088BBBE
:1004D0008F9A8BE083BF8CE78CBF89B7826089BF1E
:1004E0008C9A82E28FBD8AE18EBD80E29EE497BD48
:1004F00086BD8EEB95E099BD88BD84B38F6184BBCA
:100500008E9AD49ADC9A80E487B986E886B910BCC2
:1005100093E399B998E99AB980BD78942FE738E3C5
:1005200041E0215030404040E1F700C000000E940F
:100530007300811126C263E080EA90E00E946A01A4
:100540000E9449006B017C0158EBC50E5BE0D51E93
:10055000E11CF11CB12C01E00E94490069837A83FF
:100560008B839C83802F90E01C01BFEF2B1A3B0AEA
:1005700029813A814B815C812C153D054E055F0533
:1005800008F4D2C2880F991FAC014E545F4F5B8FA5
:100590004A8F65E088EA90E00E946A016CEB72E0A5
:1005A00080E090E00E94920185E591E00E947D004C
:1005B000C1010E9489008AE00E9479000E944900DE
:1005C00069837A838B839C8366246394198E442485
:1005D0004A94542C812C912C54011D8A1E8A1F8A06
:1005E000188E198A1A8A1B8A1C8A1D861E861F86E7
:1005F000188A19861A861B861C860E9449006B0180
:100600007C01DC01CB0129813A814B815C81821B19
:10061000930BA40BB50B8D839E83AF83B887BC016E
:10062000CD0128EE33E040E050E00E94670604EB85
:1006300010E0021B130B8D819E81AF81B885803243
:100640009F4BA240B10508F0EFC2C701B6010E945E
:1006500074018091C201882399F08091C701909123
:10066000C801A091C901B091CA01C816D906EA060D
:10067000FB0630F02EEB35E039BD28BD1092C201EB
:1006800095990EC08091CF019091D001A091D10198
:10069000B091D201C816D906EA06FB0608F0959A71
:1006A00089859A85AB85BC85C816D906EA06FB06FE
:1006B00008F472C281E00E9469008D839E8383E00A
:1006C0000E9469009C01AD81BE8177247A94AE3589
:1006D000E1E0BE0730F077247394AB38B24008F401
:1006E000712C2B38324008F444C08091CB0190919A
:1006F000CC01A091CD01B091CE01C816D906EA0671
:10070000FB06B8F19598D701C6018A569F4FAF4FA7
:10071000BF4F8093CF019093D001A093D101B093AC
:10072000D201D701C6018E539E4FAF4FBF4F80936A
:10073000CB019093CC01A093CD01B093CE018091D9
:100740006A0190916B01A0916C01B0916D01892BB0
:100750008A2B8B2B71F4D701C60184549D4FAF4F68
:10076000BF4F80936A0190936B01A0936C01B0938B
:100770006D010E9473008C8F882321F1611022C0CB
:1007800089899A89AB89BC89C816D906EA06FB060D
:10079000C8F0A70196012854344F4F4F5F4F2D8763
:1007A0003E874F87588BD701C6018856954CAF4F6F
:1007B000BF4F898B9A8BAB8BBC8B68E08AE790E04C
:1007C0000E946A01872D0E940C0180916E01909118
:1007D0006F01A0917001B0917101C816D906EA06A7
:1007E000FB06C8F0D701C6010A96A11DB11D809372
:1007F0006E0190936F01A0937001B093710180918D
:10080000720190E0FC01ED58FE4F708201968F73EB
:100810009927809372012FB7F8948091B401909139
:10082000B501A091B601B091B7012FBF2091B301DE
:10083000222379F0A7019601281B390B4A0B5B0B89
:10084000DA01C90131E03D8380399140A105B1054C
:1008500008F01D82598D8D81581771F081119FC14B
:100860008AE890E061E00E946A019D8191119AC13D
:1008700085EC90E00E947D002D853E854F8558894E
:10088000C216D306E406F50608F4C8C13D81332339
:1008900009F48BC18091600077247A948C3439F00C
:1008A0008091600077247394823509F0712C8091D7
:1008B000B901882331F01092B901C701B6010E9435
:1008C000C7008091B801882321F11092B8018D8969
:1008D0009E89AF89B88DC816D906EA06FB06C8F00E
:1008E000A70196012854344F4F4F5F4F29873A870D
:1008F0004B875C87D701C6018856954CAF4FBF4FD9
:100900008D8B9E8BAF8BB88F68E08AE790E00E945A
:100910006A0110926A0110926B0110926C011092A0
:100920006D01872D0E94FD000B30110548F4401623
:10093000510631F061E088E790E00E946A012801E9
:10094000C814D904EA04FB04C0F046015701B8EE0C
:100950008B0EB3E09B1EA11CB11C82E691E00E94AD
:100960007D00C8010E948900ED8188ED90E0EE23B2
:1009700011F082ED90E00E947D006C8C5D81598FBA
:100980003CCE8EED90E00E947D0061E086EA90E032
:100990000E946A0168E572E080E090E00E949201A6
:1009A00088EE90E00E947D008FEF0E94FD0060E9DC
:1009B00071E080E090E00E94920180E00E94FD00E2
:1009C00060E971E080E090E00E94920187EF90E0A2
:1009D0000E947D000E94F90060E971E080E090E0F3
:1009E0000E94920180E00E94FD0063E080EA90E0B6
:1009F0000E946A0160E273E080E090E00E94920150
:100A000087E091E00E947D000E9449000E94C7009B
:100A100068E572E080E090E00E94920165E086E97E
:100A200090E00E946A0164E873E080E090E00E9438
:100A3000920181E191E00E947D008FEF0E940C0104
:100A400060E971E080E090E00E94920180E00E9405
:100A50000C0160E971E080E090E00E94920183E285
:100A600091E00E947D000E94080160E971E080E051
:100A700090E00E94920180E00E940C0161E086EA11
:100A800090E00E946A0168E572E080E090E00E94D8
:100A9000920186E391E00E947D000E944900462F6A
:100AA000572FBC018091CB019091CC01A091CD0139
:100AB000B091CE01481759076A077B07D8F095987F
:100AC000DB01CA018A569F4FAF4FBF4F8093CF01C2
:100AD0009093D001A093D101B093D2014E535E4FB9
:100AE0006F4F7F4F4093CB015093CC016093CD016A
:100AF0007093CE0168E572E080E090E00E94920180
:100B000086E491E00E947D0067E08AE690E00E9422
:100B10006A016CED75E080E090E00E9492010E9415
:100B200073008111FCCF07CD0E94490069837A834D
:100B30008B839C8369817A818B819C810E94740163
:100B40000E947300182F882329F1B11023C0C1011E
:100B500063E070E00E945306082FDC01A959BF4FE3
:100B6000880F991FFC01EF59FF4F6C918081918193
:100B70000E946A01C980DA80EB80FC8088EBC80E95
:100B80008BE0D81EE11CF11CAFE5BAEE1197F1F72E
:100B900000C00000B12EE0CC6C8E712C13CE80E929
:100BA00090E060CE88EB90E065CE2091720130E05D
:100BB000215C3F4FAA8DBB8D8D919C916AE070E0C6
:100BC0000E943F06C901861B910960E470E00E9403
:100BD0005306FC01FF27ED58FE4F708080916A019B
:100BE00090916B01A0916C01B0916D010097A105EE
:100BF000B10509F496CEC816D906EA06FB0608F434
:100C000090CE10926A0110926B0110926C011092BA
:100C10006D01C701B6010E94C70083CE1092B801D2
:100C20001092B901712C7DCE80E00E94FD0080E021
:100C30000E940C0185E691E00E947D0067E08AE653
:100C400090E00E946A010E94730081110EC00E9410
:100C50007300882379F00E947300882309F499CCEB
:100C60000E9449000E947401F6CF0E9449000E9430
:100C70007401E9CF0E9449000E947401E8CFAA1BC9
:100C8000BB1B51E107C0AA1FBB1FA617B70710F077
:100C9000A61BB70B881F991F5A95A9F780959095A9
:100CA000BC01CD01089597FB072E16F4009407D0E0
:100CB00077FD09D00E943F0607FC05D03EF49095D1
:100CC00081959F4F0895709561957F4F0895A1E29A
:100CD0001A2EAA1BBB1BFD010DC0AA1FBB1FEE1FB6
:100CE000FF1FA217B307E407F50720F0A21BB30B01
:100CF000E40BF50B661F771F881F991F1A9469F77D
:100D000060957095809590959B01AC01BD01CF01D8
:100D10000895A29FB001B39FC001A39F700D811DD4
:100D20001124911DB29F700D811D1124911D0895F4
:040D3000F894FFCF65
:100D340053A600A00096000103053E3C000A290FBB
:100D44000005290F0005290F1E031E0446041E0476
:100D540046041E0446041E04460423063206460ABC
:100D640046063206230A2D08000A2D08000A2D081B
:100D74002D08000A2D082D084B0A00053C0A000521
:100D84002D192C01B40050004D4F44452043414DD2
:100D94004552410A004D4F4445204D4952524F524D
:100DA4000A002043414D0A00204D49520A00534590
:100DB4004C46544553540A004149206D6F746F7278
:100DC400204C4546540A004149206D6F746F7220CF
:100DD40052494748540A00414920736572766F0AA4
:100DE4000048554D414E206D6F746F72204C45463E
:100DF400540A0048554D414E206D6F746F72205255
:100E0400494748540A0048554D414E20736F6C655C
:100E14006E6F69640A0053454C465445535420642C
:100E24006F6E650A005354415254204C4556454C4C
:0A0E34002000542000454E440A003F
:00000001FF
