:100000000C942A000C94DC020C94E8020C94470037
:100010000C9447000C9447000C9447000C94470044
:100020000C9447000C9447000C94B9020C944700C0
:100030000C9447000C9447000C9447000C94470024
:100040000C9447000C9447000C9447000C94470014
:100050000C94470011241FBECFE5D8E0DEBFCDBF12
:1000600010E0A0E6B0E0EEE0FEE002C005900D92E8
:10007000AA3EB107D9F721E0AAEEB0E001C01D9277
:10008000A331B207E1F70E94F4020C9405070C9427
:100090000000CF93DF9300D000D0CDB7DEB78FB78D
:1000A000F89420910F01309110014091110150916D
:1000B000120129833A834B835C838FBF69817A81E4
:1000C0008B819C810F900F900F900F90DF91CF91BB
:1000D000089580916000909161009C013695322FC7
:1000E00022273795279528273927C901892F99274E
:1000F000869528273927922F882782279327909340
:100100006100809360000895462F572FBC018091B5
:10011000FD00882399F08091070190910801A0913A
:100120000901B0910A01481759076A077B0730F0A7
:100130008CED95E09BBD8ABD1092FD008091FE0084
:10014000882399F080910B0190910C01A0910D01F1
:10015000B0910E01481759076A077B0730F08EEB04
:1001600095E099BD88BD1092FE00089597B1907FEB
:100170008F70982B97B9369A3699FECF84B195B186
:1001800008955D9BFECF8CB90895CF93DF93EC016A
:100190008991811103C0DF91CF9108950E94C10020
:1001A000F7CFEF92FF921F93CF93DF9300D000D051
:1001B00000D0CDB7DEB7382F292F10E08AE0E82E27
:1001C000F12C81E090E08C0F9D1F810F911DFC01AF
:1001D0001F5F832F922FB7010E94AC06805D808342
:1001E000832F922F362F272F0A9758F711110CC003
:1001F00026960FB6F894DEBF0FBECDBFDF91CF912C
:100200001F91FF90EF9008951150E1E0F0E0EC0FA6
:10021000FD1FE10FF11D80810E94C100E7CF87FF24
:1002200004C0A89AA998969A0895882319F0A898C6
:10023000A99AF9CF96980895813019F4862F0C94D5
:100240000F0167FF04C0AA9AAB98AC9A0895662381
:1002500019F0AA98AB9AF9CFAC980895AC9880E0C1
:100260000C940F014F925F926F927F928F929F92A8
:10027000AF92BF92CF92DF92EF92FF926A017B0121
:1002800096B3811144C09695917021E09227282F52
:1002900030E0D901A550BF4F4C919923E1F04111B5
:1002A0001AC0F901EE0FFF1FEE0FFF1FED50FF4FB9
:1002B00080809180A280B3802601370148185908B8
:1002C0006A087B085301420181E058E285169104D7
:1002D000A104B10408F480E0491759F0220F331F3C
:1002E000220F331FF901ED50FF4FC082D182E2820D
:1002F000F3829C93FF90EF90DF90CF90BF90AF90F0
:100300009F908F907F906F905F904F900895909501
:100310009170BDCF86B3EBEFF0E08695817091E0F0
:100320008927808386B38095817081830895CF92D9
:10033000DF92EF92FF921F93CF93DF93182F6A0102
:100340007B01C82FD0E084E0189FF0011124DF0169
:10035000A150BF4F8D919D910D90BC91A02DC816BD
:10036000D906EA06FB0608F443C0DE01A255BF4FDA
:100370003C91DE01A455BF4F2C91422F50E0832FBA
:1003800090E02317E8F5841B950B34E0880F991F44
:100390003A95E1F76AE070E00E94C006615F7F4F26
:1003A0008AE0289F90011124285A3D4F11112CC03A
:1003B0003BBD2ABDC350DF4F81E08883AB0170E0B5
:1003C00060E0DB01CA018C0D9D1DAE1DBF1DEF015C
:1003D000C95FDE4F88839983AA83BB83E150FF4FB7
:1003E000840F951FA61FB71F80839183A283B383B9
:1003F000DF91CF911F91FF90EF90DF90CF90089504
:10040000481B590BCA01C1CF39BD28BDD3CFCF93EB
:10041000DF93CDB7DEB728970FB6F894DEBF0FBED7
:10042000CDBF8091EF009091F000891778F015BC56
:1004300097981092F2001092F10028960FB6F89457
:10044000DEBF0FBECDBFDF91CF91089590E0880F42
:10045000991FE091F100F091F200E80FF91F8081FF
:1004600021812983882319F183BD8CE185BD0E94F8
:1004700049006D837E838F8398874981242F30E0E4
:10048000AAE0B0E00E94F606DC01CB012D813E819E
:100490004F815885820F931FA41FB51F8093EB00D7
:1004A0009093EC00A093ED00B093EE00C6CF15BC86
:1004B0009798DDCF9093F2008093F1006093F00065
:1004C0001092EF000C940702462F572FBC01809129
:1004D000F1009091F200892BA1F08091EB009091B6
:1004E000EC00A091ED00B091EE00481759076A07A3
:1004F0007B0738F08091EF008F5F8093EF000C94C2
:10050000070208958F929F92AF92BF92DF92EF926F
:10051000FF92CF93DF9300D000D0CDB7DEB74B0171
:100520005C010E944900860E971EA81EB91E0E94FB
:100530004900681579058A059B0570F00F900F90AA
:100540000F900F90DF91CF91FF90EF90DF90BF90D1
:10055000AF909F908F9008950E9449006983D72E95
:100560007C010E94640269817D2DC7010E94840084
:10057000DECF1F921FB61F9211248F939F93AF93CC
:10058000BF9380910F0190911001A0911101B09142
:1005900012010196A11DB11D80930F0190931001CE
:1005A000A0931101B0931201BF91AF919F918F91D0
:1005B0001F901FBE1F9018958F938FB78F938091B8
:1005C000EA0081608093EA008F918FBF8F91189528
:1005D0008F938FB78F938091EA0082608093EA00B7
:1005E0008F918FBF8F911895CDB7DEB7E6970FB675
:1005F000F894DEBF0FBECDBF81B3806381BB82EABA
:100600008FBD8AE18EBD80E29EE497BD86BD8CEDF4
:1006100095E09BBD8ABD8EEB95E099BD88BD84B702
:10062000806884BF84BF87B38C7F87BB88B38360B7
:1006300088BB8F9A8BE083BF8CE78CBF89B78260C1
:1006400089BF84B38F6184BB8E9AD49ADC9A0E944E
:100650002E0180E487B986E886B910BC93E399B986
:1006600098E09AB980BD78942FE738E341E02150B3
:1006700030404040E1F700C00000B19983C061E024
:1006800082E690E00E945A0268E572E080E090E025
:100690000E9482028FEF0E940F0160E971E080E00A
:1006A00090E00E94820280E00E940F0160E971E008
:1006B00080E090E00E94820281E00E940F0160E9E8
:1006C00071E080E090E00E94820280E00E940F01D1
:1006D00060E971E080E090E00E9482020E9449009F
:1006E000AB01BC0181E00E94970168E572E080E007
:1006F00090E00E94820263E082E790E00E945A024A
:1007000060E273E080E090E00E9482026FEF80E0A0
:100710000E941C0160E971E080E090E00E9482028A
:10072000AC9860E971E080E090E00E94820261E0B4
:1007300080E00E941C0160E971E080E090E00E948E
:100740008202AC9860E971E080E090E00E94820251
:100750000E944900AB01BC0180E00E94970168E55E
:1007600072E080E090E00E94820267E084E690E020
:100770000E945A026CED75E080E090E00E948202D7
:10078000B19BFECF0E942E0161E084EA90E00E94BE
:100790005A020E948A01C12CD12C76010E94490084
:1007A0006B877C878D879E876B857C858D859E85F5
:1007B0000E9464026B857C858D859E850E948400E5
:1007C00087E00E94B6009C018B859C8528273927ED
:1007D00080916000909161002817390709F4D5C114
:1007E0002827392730936100209360000E94690018
:1007F0002B853C854D855E852C153D054E055F0599
:1008000060F069017A0138EEC30E33E0D31EE11CBB
:10081000F11C84EC90E00E94C5004B855C856D85E1
:100820007E8580E00E94320181110AC04B855C8583
:100830006D857E8581E00E943201882309F4AECF68
:100840000E944900462F572F8091600090916100CF
:100850008417950709F4A0C14827592750936100D0
:10086000409360000E94690013E061E082EA90E03A
:100870000E945A0268EE73E080E090E00E948202DB
:10088000115099F761E080EA90E00E945A028BECE7
:1008900090E00E94C5000E9449006B877C878D878D
:1008A0009E8719821A821B821C821D821E821F82D1
:1008B00018861A8619860E9469009C01A9E8B3E18E
:1008C0000E94F6066F87788B898B9A8BAA27BB27A5
:1008D000CB84DC84ED84FE8450E2C50E5EE4D51E3C
:1008E000E11CF11CC80ED91EEA1EFB1E8FB7F8943E
:1008F0009091EA001092EA008FBF0E948A011AA22A
:100900001F8E1F861B8E1C8E1D8E1E8E812C912C81
:1009100054018FEF9FEF9AAB89AB1BAA1CAA1DAAAB
:100920001EAA1DA61EA61FA618AA19A61AA61BA6B1
:100930001CA60E9449002B013C01AC019B018B8548
:100940009C85AD85BE85281B390B4A0B5B0B2B8B19
:100950003C8B4D8B5E8B20329FEB390792E0490731
:10096000510508F0D4C1CA01B90128EE33E040E0D6
:1009700050E00E94D40654EB252E312C221A330A63
:10098000C301B2010E946402C301B2010E9484004B
:10099000B301A20180E00E943201182F882311F0D8
:1009A00053014201B301A20181E00E943201882378
:1009B00021F04B8E5C8E6D8E7E8EAF85A1110DC1A8
:1009C0004C145D046E047F04C8F1BDE02B163104A5
:1009D00008F495C1A3019201225F3E4F4F4F5F4F34
:1009E00029A73AA74BA75CA7D301C20182559F4E06
:1009F000AF4FBF4F8DA79EA7AFA7B8AB811491048F
:100A0000A104B10409F0CBC081E09985911180E087
:100A10008F8F2B8D3C8D4D8D5E8D232B242B252B85
:100A200009F0CAC081E09A85911180E08AA367E04D
:100A300082E990E00E945A0241E04F879E01275FC1
:100A40003F4F38A72FA30AEA10E048EA50E059A325
:100A500048A386EA90E09A8F898FDE011196BEA3A3
:100A6000ADA31B8AEFA1F8A58191F8A7EFA3882376
:100A7000A9F0EDA1FEA180819181A281B3814816E8
:100A800059066A067B0608F462C1EFA1F8A5319702
:100A9000108263E08CE790E00E945A02D8018C91AA
:100AA0000E94B6008F8B988FE8A1F9A180810E94E7
:100AB000B6008BA39CA3A98DBA8D8C91EF89F88D7C
:100AC0006FEFEE35F14038F061E02F89388D2B382B
:100AD000324008F460E0689F602D11248B890E94E9
:100AE0001C018BA19CA18B38924028F0B301A2017C
:100AF0008B890E9497010F5F1F4FE8A1F9A13196E2
:100B0000F9A3E8A3298D3A8D2F5F3F4F3A8F298FA4
:100B10004DA15EA14C5F5F4F5EA34DA35B89513039
:100B200009F0F2C08BE02816310478F4A9A9BAA91B
:100B30002A163B0651F0BF85B11107C061E088E776
:100B400090E00E945A023AAA29AA2BA93CA94DA9D1
:100B50005EA9421653066406750608F4EACED30170
:100B6000C20188519C4FAF4FBF4F8BAB9CABADAB1D
:100B7000BEAB8DED90E00E94C500C1010E94D10086
:100B800080EE90E00E94C500D4CEA1EEBCEAB09306
:100B90006100A09360002ACE41EE5CEA5FCED301F3
:100BA000C20188199909AA09BB09883E9340A10589
:100BB000B10508F029CF2BCFD301C2012B8D3C8D7D
:100BC0004D8D5E8D821B930BA40BB50B883E93401D
:100BD000A105B10508F026CF28CF29A53AA54BA538
:100BE0005CA5421653066406750638F411111F8E73
:100BF000882309F423CF1AA221CF11111F8D81114F
:100C00008AA1111127C0811177C08DA59EA5AFA51E
:100C1000B8A9481659066A067B0608F40FCF61E0AA
:100C20008AE790E00E945A020E9469009C01A9E8AC
:100C3000B3E10E94F6066F87788B898B9A8BAA277F
:100C4000BB2773016201E0E2CE0EEEE4DE1EE11C82
:100C5000F11C4CC0882309F44FC00E946900182F72
:100C6000117081E08127282F30E0E9E0F0E0EC0FFF
:100C7000FD1FE20FF31F41E04083220F331F220FBD
:100C8000331FE1E0F0E0EC0FFD1FE20FF31FB301B3
:100C9000A20148575C4E6F4F7F4F40835183628360
:100CA000738360E00E941C0168E082E890E00E948B
:100CB0005A028AEB90E0112311F080EB90E00E9441
:100CC000C5000E9469009C01A9E8B3E10E94F606F4
:100CD0006F87788B898B9A8BAA27BB277301620158
:100CE00050E2C50E5EE4D51EE11CF11CC80ED91EF3
:100CF000EA1EFB1E1F86A2CE31E01327B2CFCC2402
:100D0000CA94DC2C76019ACEB1E0BB8BABCE0E94AC
:100D10002E0185EE90E00E94C50090E080E00E94E8
:100D2000D10080E20E94C10090E080E00E94D100EA
:100D30008AE00E94C10067E084E690E00E945A02C7
:100D400060ED77E080E090E00E9482021BCD60E0E1
:100D50008B890E941C01CFCEAA1BBB1B51E107C08F
:100D6000AA1FBB1FA617B70710F0A61BB70B881F3B
:100D7000991F5A95A9F780959095BC01CD010895CA
:100D800097FB072E16F4009407D077FD09D00E9438
:100D9000AC0607FC05D03EF4909581959F4F0895D1
:100DA000709561957F4F0895A1E21A2EAA1BBB1B77
:100DB000FD010DC0AA1FBB1FEE1FFF1FA217B30727
:100DC000E407F50720F0A21BB30BE40BF50B661F3D
:100DD000771F881F991F1A9469F760957095809501
:100DE00090959B01AC01BD01CF010895A29FB00178
:100DF000B39FC001A39F700D811D1124911DB29F4F
:0E0E0000700D811D1124911D0895F894FFCFEF
:100E0E00E1AC2D083E3C000A290F0005290F000514
:100E1E00290F2D08000A2D081E035319280500035B
:100E2E001E081E0446041E0446041E0446041E0428
:100E3E004604460600033206000323060003191972
:100E4E001E283E0F2D0801010302010019145A57E6
:100E5E00465245455A4520310A00465245455A45A7
:100E6E0020320A0052454144590A0053544152540B
:100E7E00204C4556454C20322032500A005420005A
:0A0E8E002050320A00454E442000B7
:00000001FF
