:100000000C942A000C9441060C944D060C94470065
:100010000C9447000C9447000C9447000C94470044
:100020000C9447000C9447000C94D4040C944700A3
:100030000C9447000C94F7040C9447000C94470070
:100040000C9447000C9447000C9447000C94470014
:100050000C94470011241FBECFE5D8E0DEBFCDBF12
:1000600012E0A0E6B0E0EAEFFDE102C005900D92DB
:10007000A434B107D9F722E0A4E4B2E001C01D9294
:10008000AB3CB207E1F70E9459060C94D10E0C94D8
:100090000000CF93DF9300D000D0CDB7DEB78FB78D
:1000A000F8942091C7023091C8024091C902509142
:1000B000CA0229833A834B835C838FBF69817A812B
:1000C0008B819C810F900F900F900F90DF91CF91BB
:1000D000089597B1907F8F70982B97B9369A36997B
:1000E000FECF84B195B108959FB7F8945D9B03C08E
:1000F0008CB99FBF08959FBFF7CFCF93DF93EC01DB
:100100008991811103C0DF91CF9108950E947400FD
:10011000F7CFEF92FF921F93CF93DF9300D000D0E1
:1001200000D0CDB7DEB7382F292F10E08AE0E82EB7
:10013000F12C81E090E08C0F9D1F810F911DFC013F
:100140001F5F832F922FB7010E94520E805D808324
:10015000832F922F362F272F0A9758F711110CC093
:1001600026960FB6F894DEBF0FBECDBFDF91CF91BC
:100170001F91FF90EF9008951150E1E0F0E0EC0F37
:10018000FD1FE10FF11D80810E947400E7CF9FB732
:10019000F89480918D0210928D029FBF08958299EC
:1001A0000AC089E091E00E947D00839907C086E241
:1001B00091E00C947D008DEF90E0F5CF8AE191E025
:1001C000F8CFCF93DF93D82FC62F87E391E00E941B
:1001D0007D008D2F0E94740080E20E9474008C2F9D
:1001E0000E9474008AE0DF91CF910C9474009F927A
:1001F000AF92BF92CF92DF92EF92FF920F931F9335
:10020000CF93DF93EC01062F69017A0188810E9468
:1002100069005C0189810E9469009C0199249A947B
:100220008EE5A81681E0B80640F0992493948BE8F7
:10023000A81682E0B80608F4912C11E02B3882E071
:10024000380728F42E35314008F010E011958B81E5
:10025000891551F0992041F02FEF62E5921201C00B
:100260006CE4802F0E94E1008C818117C1F1112381
:1002700089F064E4113009F465E5802F0E94E10003
:100280001F3F41F48C8187FD2CC0CF82D886E98640
:10029000FA861E829B821C8386B390E02A8102C06C
:1002A000959587952A95E2F7817099277C0121E041
:1002B000E226892B39F48D81811104C062E4802FFC
:1002C0000E94E100ED82DF91CF911F910F91FF908D
:1002D000EF90DF90CF90BF90AF909F9008951F3F19
:1002E000C9F68E818111D6CF8F819885A985BA856F
:1002F000C81AD90AEA0AFB0A88EEC81683E0D806AB
:10030000E104F10438F281E08E8368E5802F0E94D9
:10031000E100C0CF2FB7F894DD98EDECF0E0319715
:10032000F1F700C0000098E080FF13C0DD9A8695C9
:10033000EDECF0E03197F1F700C000009150A1F72B
:10034000DD9A2FBF8DEC90E00197F1F700C000001F
:100350000895DD98ECCFCF92DF92EF92FF920F934A
:100360001F93CF93DF9300D000D000D0CDB7DEB77E
:100370009FEF998396E09A838B831C827627672769
:1003800076277E836D83CE0101967C016E0197E016
:10039000C90ED11CF70110E000E02191020F111DE0
:1003A000EC15FD05D1F71195019511098EE70E9415
:1003B0008A01F70181917F010E948A01EC14FD04FA
:1003C000C1F7812F0E948A01802F0E948A018FEE3F
:1003D00026960FB6F894DEBF0FBECDBFDF91CF914A
:1003E0001F910F91FF90EF90DF90CF900C948A01B6
:1003F000A898A99A969A089587FF04C0A89AA998E0
:10040000969A089581110C94F80196980895AA98E7
:10041000AB9AAC9A089587FF04C0AA9AAB98AC9A9D
:10042000089581110C940702AC980895462F572F18
:10043000BC018091B5028823C9F08091BF029091E0
:10044000C002A091C102B091C202481759076A07C1
:100450007B0760F0809169002AE0829FC00111242F
:10046000885A9D4F99BD88BD1092B5028091B60201
:100470008823C9F08091C3029091C402A091C50263
:10048000B091C602481759076A077B0760F0809150
:1004900067002AE0829FC0011124885A9D4F9BBDAE
:1004A0008ABD1092B6020895CF92DF92EF92FF922A
:1004B000CF93C82F6A017B01E82FF0E044E0849FCE
:1004C00090011124D901A954BD4F8D919D910D909A
:1004D000BC91A02DC816D906EA06FB0608F44AC04E
:1004E0007091690060916800CC2321F070916700E1
:1004F00060916600862F90E0472F50E0671708F064
:100500003FC0BA01681B790BCB0144E0880F991FEB
:100510004A95E1F76AE070E00E94660E615F7F4FE6
:100520006639710510F466E970E080916800C111C8
:10053000809166004AE0849FC0011124885A9D4F33
:10054000C11121C099BD88BDEB54FD4F81E080836E
:10055000C60ED71EE11CF11CF901E154FD4FC0820B
:10056000D182E282F38229543D4FF901C082D182C7
:10057000E282F382CF91FF90EF90DF90CF900895C9
:10058000841B950BC2CF9BBD8ABDDECF0F931F93FB
:10059000282F30E0D901AC59BF4F9C919923A9F085
:1005A000220F331F220F331FF901E954FD4F008141
:1005B00011812281338190E0401751076207730750
:1005C00020F01C920E94540291E0892F1F910F91FC
:1005D00008956F927F928F929F92AF92BF92CF9227
:1005E000DF92EF92FF920F931F93CF93DF93C82F69
:1005F000742E852E962EA72E2FB7F89490E0FC012E
:10060000EE55FD4FD0811082FC01E056FD4FB080C9
:100610001082FC01E256FD4F608010822FBF46E63B
:10062000C42E40E0D42E57E6E52E50E0F52E00E033
:10063000813049F028E6C22E20E0D22E39E6E32EA2
:1006400030E0F32E03E0D11113C0B11017C06110D8
:1006500040C0DF91CF911F910F91FF90EF90DF90FD
:10066000CF90BF90AF909F908F907F906F900895A4
:100670002FEF2D0FF7012083BB2021F02FEF2B0D43
:10068000F60120838B549D4FFC01808181110CC0A9
:10069000F7018081FAE08F9FC0011124885A9D4F95
:1006A000C11149C099BD88BD10E0F7016081C80142
:1006B00001960E94C00EF6016081C80102960E9458
:1006C000C00E66EC6C1BC8010E94C00EDB2909F449
:1006D000BECF84E491E0C13011F48BE391E00E943D
:1006E0007D00F701808190E00E9489008EE891E012
:1006F0000E947D00F601808190E00E9489008EE9D1
:1007000091E00E947D00F2E06F12A3CF472D582D9B
:10071000692D7A2D8C2FDF91CF911F910F91FF9032
:10072000EF90DF90CF90BF90AF909F908F907F9091
:100730006F900C9454029BBD8ABDB6CFCF93DF93CC
:10074000CDB7DEB728970FB6F894DEBF0FBECDBF8A
:100750008091B1029091B202891778F015BC9798F8
:100760001092B4021092B30228960FB6F894DEBF2E
:100770000FBECDBFDF91CF91089590E0880F991FF4
:10078000E091B302F091B402E80FF91F808121815A
:100790002983882319F183BD8CE185BD0E9449001E
:1007A0006D837E838F8398874981242F30E0AAE070
:1007B000B0E00E94A20EDC01CB012D813E814F8171
:1007C0005885820F931FA41FB51F8093AD0290938D
:1007D000AE02A093AF02B093B002C6CF15BC9798FB
:1007E000DDCF9093B4028093B3026093B202109273
:1007F000B1020C949E03BF92CF92DF92EF92FF92D0
:100800000F931F93CF93DF936B017C018091B30211
:100810009091B402892BA1F08091AD029091AE022B
:10082000A091AF02B091B002C816D906EA06FB0645
:1008300038F08091B1028F5F8093B1020E949E03D5
:1008400080919D02811110C08CEDC81685E0D806FC
:10085000E104F10408F467C081E080939D026EE03A
:1008600070E086E00E94AB018FB7F8946091A4021B
:100870001092A402B090A5021092A5020091A802C5
:100880001091A9021092A9021092A802C091A6028A
:10089000D091A7021092A7021092A6028FBF6623E2
:1008A00039F06032E8F56150770B86E00E94AB01C9
:1008B000BB2031F070E060E08FEF8B0D0E94AB0148
:1008C00070E060E086E10130110539F00115110595
:1008D00031F0B8016150710982E10E94AB0170E012
:1008E00060E085E1C130D10531F0209731F0BE01E3
:1008F0006150710983E10E94AB01B701A60181E05B
:100900000E94E902B701A60180E0DF91CF911F911B
:100910000F91FF90EF90DF90CF90BF900C94E90281
:100920006EE170E0C2CFDF91CF911F910F91FF90E8
:10093000EF90DF90CF90BF9008958F929F92AF92EB
:10094000BF92DF92EF92FF92CF93DF9300D000D05F
:10095000CDB7DEB74B015C010E944900860E971EA1
:10096000A81EB91E0E944900681579058A059B05D5
:1009700070F00F900F900F900F90DF91CF91FF903C
:10098000EF90DF90BF90AF909F908F9008950E945E
:1009900049006983D72E7C010E94FB0369817D2D6C
:1009A000C7010E941602DECF1F921FB61F921124AC
:1009B0008F939F93AF93BF938091C7029091C8028A
:1009C000A091C902B091CA020196A11DB11D8093E8
:1009D000C7029093C802A093C902B093CA02BF9104
:1009E000AF919F918F911F901FBE1F9018951F92DE
:1009F0000F920FB60F9211242F933F934F935F9353
:100A00006F937F938F939F93EF93FF938CB190910C
:100A1000AC02911109C0EFECE80FEA32E8F4F0E023
:100A2000ED52F14F0C949C0E90ED980F9A3018F502
:100A30004091AA025091AB029AE0949F9001959F39
:100A4000300D112420533109280F311D87FD3A95AF
:100A50003093AB022093AA02FF91EF919F918F9167
:100A60007F916F915F914F913F912F910F900FBEAA
:100A70000F901F9018958B3359F49091AC029334DA
:100A800069F42091AA023091AB022F5F2093930268
:100A90001092AC028B3309F0BECFDECF9091AC0246
:100AA0009F3459F42091AA023091AB0291E0232B9C
:100AB00009F092E090939202EBCF9091AC029434C3
:100AC00041F42091AA023091AB022F5F2093910252
:100AD000DFCF9091AC02993441F42091AA02309179
:100AE000AB022F5F20939002D3CF9091AC02903550
:100AF00059F42091AA023091AB022F5F3F4F3093FF
:100B0000A9022093A802C4CF9091AC02913459F469
:100B10002091AA023091AB022F5F3F4F3093A70282
:100B20002093A602B5CF9091AC02963541F4209166
:100B3000AA023091AB022F5F2093A402A9CF90911B
:100B4000AC022091AA023091AB02983561F42F3F9C
:100B5000310508F09DCF2091AA023091AB022F5FA2
:100B60002093A50295CF253B310508F091CF9091B8
:100B7000AC02983441F42091AA023091AB022F5F6D
:100B80002093A30285CF9091AC029A3441F4209136
:100B9000AA023091AB022F5F2093A10279CF9091EE
:100BA000AC02953541F42091AA023091AB022F5F3F
:100BB00020939F026DCF9091AC02913541F420912A
:100BC000AA023091AB022F5F2093A20261CF9091D5
:100BD000AC022091AA023091AB022F5F973519F435
:100BE0002093A00255CF20939E0252CF8093AC0257
:100BF0001092AB021092AA022FCF8093630091E073
:100C000003C091E090939C024091C7025091C802AA
:100C10006091C9027091CA02409397025093980262
:100C20006093990270939A0221E02093960299238F
:100C300009F412CF90916200992309F40DCF5D9BC6
:100C40000BCF80628CB908CF91E090939B02DCCFF0
:100C500080936000D4CF91E090939502D5CF91E03E
:100C600090939402D1CF90ED980F9093610090E013
:100C7000CBCF91E090938F02FACF91E090938E02C8
:100C8000F6CF8F938FB78F9380918D028160809381
:100C90008D028F918FBF8F9118958F938FB78F9300
:100CA00080918D02826080938D028F918FBF8F9192
:100CB0001895CDB7DEB7C154D1090FB6F894DEBF91
:100CC0000FBECDBF81B3806381BB82EA8FBD8AE155
:100CD0008EBD80E29EE497BD86BD83E090E00E94D9
:100CE000B80E863C89F484E090E00E94B80E182F7C
:100CF000853B50F485E090E00E94B80E853B20F4DF
:100D00001093690080936800809169002AE0829FB7
:100D1000C0011124885A9D4F99BD88BD90E080E0A4
:100D20000E94B80E853C89F481E090E00E94B80EE4
:100D3000182F853B50F482E090E00E94B80E853B6E
:100D400020F41093670080936600809167003AE07A
:100D5000839FC0011124885A9D4F9BBD8ABD84B7D3
:100D6000806884BF84BF87B38C7F87BB88B3836070
:100D700088BB8F9A8BE083BF8CE78CBF89B782607A
:100D800089BF84B38F6184BB8E9AD49ADC9A80E445
:100D900087B986E886B9D59ADD9A10BC93E399B9EC
:100DA00098E99AB980BD81B3837F81BB82B38C609F
:100DB00082BB85B78A6085BF80EC8ABF8BB7806CA9
:100DC0008BBF78944FE758E381E04150504080401A
:100DD000E1F700C00000B19B1DC163E085EE90E02B
:100DE0000E94F1030E9449006B017C0198EBC90E3F
:100DF0009BE0D91EE11CF11CB12CAA24A39403E0B2
:100E000010E00E9449006C157D058E059F0508F4D1
:100E1000B1C18A2D90E09C012F5F3F4F3FAF2EAFB5
:100E2000880F991FAC0149505F4F22965FAF4EAFBC
:100E3000229780E00E94FC0180E00E940B02109249
:100E40008E0210928F0211E0C12CD12C76010E94EB
:100E500049006F8B788F898F9A8F6F89788D898DF4
:100E60009A8D0E94FB036F89788D898D9A8D0E94DF
:100E700016028F89988DA98DBA8D8C159D05AE05AA
:100E8000BF0560F06C017D0198EEC90E93E0D91E9C
:100E9000E11CF11C8AE192E00E947D009090930297
:100EA0009110AFC180918F02882309F49FC11092E5
:100EB0008F0210916100133029F0109161001230FF
:100EC00009F011E065E08DEE90E00E94F1036CEB1B
:100ED00072E080E090E00E949D048FE292E00E9428
:100EE0007D008EAD9FAD0E94890087E591E01330B3
:100EF00031F081E691E0123011F48CE591E00E942E
:100F00007D000E94CF000E9449006F8B788F898FEF
:100F10009A8F10924402109245021092460210924B
:100F2000470210928E020E94C7001FA6812C1EAAA3
:100F30001FAA18AE19AE31E03DAB41E04BA38FEFD5
:100F40009FEF9CAB8BAB1AAE1BAE1CAE1DAE1BA6AF
:100F50001CA61DA61EA61F8E18A219A21AA21FA2A9
:100F600018A619A61AA6412C512C32010E9449003C
:100F70006B017C01AC019B018F89988DA98DBA8D85
:100F8000281B390B4A0B5B0B2B8F3C8F4D8F5E8FD1
:100F9000CA01B90128EE33E040E050E00E947A0E29
:100FA00044EB242E312C221A330A2B8D3C8D4D8D8F
:100FB0005E8D20323F4B4240510538F480918E02C5
:100FC000882309F460C310928E0280E00E94FC0125
:100FD00080E00E940B028FE392E00E947D00882D4A
:100FE00090E00E94890080E20E947400AFA58A2FE1
:100FF00090E00E9489008AE00E94740067E089E81E
:1010000090E00E94F1036CED75E080E090E00E94BA
:101010009D040FCF86EA91E00E947D0061E08BEE97
:1010200090E00E94F10368E572E080E090E00E94A9
:101030009D0480EB91E00E947D008FEF0E94FC01F7
:1010400060E971E080E090E00E949D0480E00E94F1
:10105000FC0160E971E080E090E00E949D048FEB6C
:1010600091E00E947D000E94F80160E971E080E05B
:1010700090E00E949D0480E00E94FC0163E085EE08
:1010800090E00E94F10360E273E080E090E00E9453
:101090009D048FEC91E00E947D000E944900AB010D
:1010A000BC0180E00E94540268E572E080E090E0BC
:1010B0000E949D0465E08BED90E00E94F10364E8DE
:1010C00073E080E090E00E949D0489ED91E00E9431
:1010D0007D008FEF0E940B0260E971E080E090E0FC
:1010E0000E949D0480E00E940B0260E971E080E0B4
:1010F00090E00E949D048BEE91E00E947D000E9492
:10110000070260E971E080E090E00E949D0480E0C9
:101110000E940B0261E08BEE90E00E94F10368E513
:1011200072E080E090E00E949D048EEF91E00E94CA
:101130007D000E944900AB01BC0181E00E94540285
:1011400068E572E080E090E00E949D040E94CF007C
:101150008BE092E00E947D0067E089E890E00E94C9
:10116000F1036CED75E080E090E00E949D04B19B7E
:10117000FECF33CE0E9449006F8B788F898F9A8F74
:101180006F89788D898D9A8D0E94FB03B19929C052
:10119000B11037CE8A2D90E00196B8010E94660EFC
:1011A000A82EDC01AA57BF4F880F991FFC01E058F9
:1011B000FF4F6C91808191810E94F103CF88D88C80
:1011C000E98CFA8CA8EBCA0EABE0DA1EE11CF11C2C
:1011D000EFE5FAEE3197F1F700C00000BB24B394BD
:1011E00010CEB12C0ECE812F182F31CEB199FCCF5D
:1011F0001111F9CFAFE5BAEE1197F1F700C0000079
:1012000060CE8BE0EAE6F0E0DE011C9601900D92E4
:101210008A95E1F78BE0E5E7F0E09E012F5F3F4F15
:101220007901D90101900D928A95E1F780E00E9441
:10123000FC0180E00E940B020E94C7001092620035
:101240001BA61CA61DA61EA61FA218A619A61AA696
:10125000412C512C32011BA21CA21DA21EA21F8ACE
:10126000188E198E1A8E212C31E03F8F41E04B8F62
:1012700000E0EBAAFDAA0E9449006B017C010E94DC
:10128000FB03C701B6010E9416023FB7F8942091F4
:101290009302109293029091920210929202809186
:1012A00091021092910210919002109290023FBF11
:1012B000222321F00FEF020F51E05B8F992329F0D9
:1012C000A1E0AB8F913009F01B8E8A3009F0C3C0CA
:1012D00065E087E990E00E94F103112359F1E12FC5
:1012E000E150FF0BCF016AE070E00E94660E462FCE
:1012F00028EE33E0DC010E94B10E6FA778AB89AB1A
:101300009AAB4B015C018C0C9D1CAE1CBF1C413088
:1013100041F08BA29CA2ADA2BEA28F88988CA98C12
:10132000BA8C68E08FEB90E00E94F1038F8A988E70
:10133000A98EBA8E2FB7F894809197029091980257
:10134000A0919902B0919A022FBF812C912C540147
:10135000C816D906EA06FB0630F046015701881A7E
:10136000990AAA0ABB0A11E0FCED8F16F5E09F0668
:10137000A104B10408F010E02F8D121779F08FEC62
:1013800090E03CED831635E09306A104B10410F41F
:1013900085ED90E061E00E94F1031F8F4B8D312CB1
:1013A000411106C081E05F8D511101C080E0382EEF
:1013B000A701960161E3CE010C960E94F700A701F8
:1013C000960162E38BA99DA90E94F7008989882371
:1013D00009F45AC08E81882309F456C0411451047F
:1013E0006104710409F455C0211011C0D701C60170
:1013F00084199509A609B709883B9B40A105B10549
:1014000030F081E292E00E947D0022242394332078
:1014100009F4A5C02F89388D498D5A8DC216D3067F
:10142000E406F50608F49BC00330B1F58091600036
:101430001FEF823431F08091600011E08E3409F0AA
:1014400010E030E9831631E09306A104B10408F4FA
:1014500041C010E03FC0813021F461E081EA90E0BA
:101460003ACF883021F464E08DEA90E034CF8930BF
:1014700021F464E085EA90E02ECF882309F42DCF93
:1014800061E083EA90E027CF212C412C512C3201DE
:10149000BECF26013701BBCF1F85888918160CF4F3
:1014A00058C041E0409365000430E9F4111112C0C6
:1014B00050E9851651E09506A104B10458F48091D5
:1014C00060001FEF823431F08091600011E08E34B3
:1014D00009F0BFCF80919502882329F0B701A601BA
:1014E00081E00E9454021092940210929502812F82
:1014F0000E940B02332009F4C1C08BA19CA1ADA1B5
:10150000BEA1C816D906EA06FB0608F4B7C0023029
:1015100011F0043061F51C818D81181614F191E0F1
:10152000909364000430F1F5111133C0A0E98A16DC
:10153000A1E09A06A104B10460F5809163001FEF59
:101540008C3439F18091630011E0823511F110E0A3
:1015500020C0B701A60181E00E94C602A5CF10E01D
:10156000C2CFB701A60180E00E94C602DBCF809106
:1015700063001FEF8C3431F08091630011E08235FD
:1015800009F010E0B0E98B16B1E09B06A104B104AC
:10159000F0F680919C02882329F0B701A60180E033
:1015A0000E94540210929B0210929C02812F0E9472
:1015B000FC018091B3029091B402892BD1F42F8960
:1015C000388D498D5A8D62E089EB90E0C216D306C2
:1015D000E406F50660F08BA19CA1ADA1BEA1C816E2
:1015E000D906EA06FB0628F462E085EB90E00E944B
:1015F000F1030E94C700882341F1332031F1043008
:1016000021F12BA53CA54DA55EA5C216D306E40687
:10161000F506D8F0A701960124523A4F4F4F5F4F7D
:101620002BA73CA74DA75EA7182F127081FD28C0DD
:1016300085EA90E061E00E94F10382E591E01123E8
:1016400011F08DE491E00E947D008FA198A5A9A5DD
:10165000BAA5C816D906EA06FB0608F40CCEA701FF
:10166000960128513C4F4F4F5F4F2FA338A749A7F2
:101670005AA787E292E00E947D00FDCD10E092CF54
:101680008DEA90E0D7CFC701B6010E94FB03C701E6
:10169000B6010E9416022FB7F8948091970290919C
:1016A0009802A0919902B0919A022FBFC816D9064C
:1016B000EA06FB0608F495C1A7019601281B390B21
:1016C0004A0B5B0B2B8F3C8F4D8F5E8F8091960268
:1016D000882351F001E08B8D9C8DAD8DBE8D8C3DAE
:1016E0009540A105B10508F000E00915C9F01230D8
:1016F00009F482C18FEC90E0002311F085ED90E0B9
:1017000061E00E94F10386E691E0011106C080E8E5
:1017100091E0113011F483E791E00E947D00902E5A
:10172000133009F06AC1C414D504E604F70408F4C0
:101730005DC1992009F45AC1809160000FEF823495
:1017400031F08091600001E08E3409F000E02B8DD3
:101750003C8D4D8D5E8D203931404105510508F09D
:1017600000E080919502882339F010929502B7012C
:10177000A60181E00E94540280919402882321F105
:10178000109294022F8D38A149A15AA1C216D306F6
:10179000E406F506C8F0D701C6018854944FAF4F50
:1017A000BF4F8FA398A7A9A7BAA7A701960128564C
:1017B000354C4F4F5F4F2F8F38A349A35AA368E092
:1017C0008FEB90E00E94F103802F0E940B0280912A
:1017D000480290914902A0914A02B0914B02C8166A
:1017E000D906EA06FB06C8F0D701C6010A96A11D74
:1017F000B11D8093480290934902A0934A02B0938E
:101800004B0280914C0290E0FC01E35BFD4F0083B2
:1018100001968F73992780934C028FA198A5A9A553
:10182000BAA5C816D906EA06FB0608F423C2123088
:1018300009F085C180E00E9469005C0182E00E949D
:1018400069009C010FEF9EE5A91691E0B90638F0FA
:1018500001E0ABE8AA16A2E0BA0608F400E02B38D3
:10186000324008F066C181E08093640086B38095C1
:10187000E82FE170BE2E80FF23C0FDA9F11120C02A
:101880002BA53CA54DA55EA5C216D306E406F5061C
:10189000B8F02601370138EB430E3BE0531E611CC4
:1018A000711CD701C6018856954CAF4FBF4F8BA70F
:1018B0009CA7ADA7BEA768E08FEB90E00E94F10364
:1018C00010929B0210929C02BDAA802F0E94FC01E4
:1018D0008091B3029091B402892BB1F462E089EB5C
:1018E00090E0C414D504E604F70460F02FA138A5F5
:1018F00049A55AA5C216D306E406F50628F462E007
:1019000085EB90E00E94F1030E94C700882371F1EB
:101910002EA93FA948AD59ADC216D306E406F50677
:1019200028F1A701960124523A4F4F4F5F4F2EAB3B
:101930003FAB48AF59AF81FFA2C1839464E08DEA09
:1019400090E00E94F10380E991E00E947D00882DE3
:1019500090E00E94890080E20E9474004FA5842FCD
:1019600090E00E9489008AE00E9474005BE02516E6
:10197000310460F48BA99CA92816390629F061E08E
:101980008DEB90E00E94F1033CAA2BAA2AAD3BAD5F
:101990004CAD5DADC216D306E406F50608F4E6CA02
:1019A000D701C60188519C4FAF4FBF4F8AAF9BAF45
:1019B000ACAFBDAF8CE392E00E947D00C1010E94FC
:1019C00089008BE991E0123049F0133009F062C1CF
:1019D00084E891E0992011F087E591E00E947D0074
:1019E000C5CA1B8E1C8E1D8E1E8E70CE1092940248
:1019F0001092950200E0E8CE902EC414D504E604BF
:101A0000F704C0F381E00E9469005C0183E00E945A
:101A100069009C010FEF4EE5A41641E0B40638F0D2
:101A200001E05BE8A51652E0B50608F400E02B38AB
:101A3000324070F581E080936500B19975C0BBA11B
:101A4000B111C2CE2F8D38A149A15AA1C216D30619
:101A5000E406F50608F46AC0D701C6018854944F1D
:101A6000AF4FBF4F8FA398A7A9A7BAA7A701960109
:101A70002856354C4F4F5F4F2F8F38A349A35AA399
:101A800068E08FEB90E00E94F10331E03BA39CCE35
:101A9000B701A60181E00E94C602882371F28091FD
:101AA000440290914502A0914602B0914702892BD1
:101AB0008A2B8B2B11F65091670040916600842F82
:101AC00090E0252F30E0451760F5D901A81BB90B30
:101AD000CD0124E0880F991F2A95E1F76AE070E0B4
:101AE0000E94660ECB010F96880F991F63E070E08D
:101AF0000E94660E9B01770F440B550BC701B60180
:101B00006A5D7D4F8F4F9F4F620F731F841F951F1C
:101B1000609344027093450280934602909347027B
:101B20008CCF821B930BD5CF1BA24ECE41E04BA393
:101B30004BCEB701A60180E00E94C60297CE992045
:101B400009F44FC0809163000FEF8C3431F0809125
:101B5000630001E0823509F000E02B8D3C8D4D8D56
:101B60005E8D203931404105510508F000E080913B
:101B70009C02882339F010929C02B701A60180E0F4
:101B80000E94540280919B02882311F110929B02C3
:101B90002BA53CA54DA55EA5C216D306E406F50609
:101BA000B8F02601370138EB430E3BE0531E611CB1
:101BB000711CD701C6018856954CAF4FBF4F8BA7FC
:101BC0009CA7ADA7BEA768E08FEB90E00E94F10351
:101BD000109244021092450210924602109247025F
:101BE00074CE133051F410924402109245021092B8
:101BF00046021092470200E068CE80914C02282FE6
:101C000030E0215C3F4F2296AEADBFAD22978D9163
:101C10009C916AE070E00E94520EC901861B9109F6
:101C200060E470E00E94660EFC01FF27E35BFD4F5D
:101C300000818091440290914502A0914602B091AA
:101C400047020097A105B10509F43FCEC816D90691
:101C5000EA06FB0608F439CE1092440210924502BF
:101C60001092460210924702B701A60180E00E943E
:101C700054022BCE10929B0210929C02BCCF3FA527
:101C80003F5F3FA764E085EA90E00E94F1038BE8A4
:101C900091E05BCE80EA91E0992009F49FCE85E93E
:101CA00091E09CCEAA1BBB1B51E107C0AA1FBB1F22
:101CB000A617B70710F0A61BB70B881F991F5A95D8
:101CC000A9F780959095BC01CD01089597FB072E4B
:101CD00016F4009407D077FD09D00E94520E07FC3D
:101CE00005D03EF4909581959F4F0895709561952C
:101CF0007F4F0895A1E21A2EAA1BBB1BFD010DC048
:101D0000AA1FBB1FEE1FFF1FA217B307E407F507AB
:101D100020F0A21BB30BE40BF50B661F771F881F87
:101D2000991F1A9469F760957095809590959B011D
:101D3000AC01BD01CF010895EE0FFF1F0590F49196
:101D4000E02D0994A29FB001B39FC001A39F700D25
:101D5000811D1124911DB29F700D811D1124911DB3
:101D600008950E94A20EB7FF0895821B930B089559
:101D7000E199FECF9FBB8EBBE09A99278DB3089562
:101D8000262FE199FECF9FBB8EBBE09A01970DB243
:101D9000021631F02DBB0FB6F894E29AE19A0FBE0D
:101DA0000895F894FFCF3306330633062C052C052F
:101DB0002C052C052C052C052C052C052C052C059B
:101DC0002C052C052C05F6052806F605F6053D061E
:101DD00001062B06F605F605F6053906FD0528066B
:101DE0002806F605F605F605FD05FD05F605F605DA
:0A1DF000F605F605F6052F06240699
:101DFA004D0101530101386114570103010000012B
:101E0A0000000000000002000000010000000000C5
:101E1A00EB00E500DB000103053E3C000A290F0048
:101E2A0005290F0005290F190800041908000419CB
:101E3A00191E462D0F290C310C3E0C531E3E08313B
:101E4A000829081E1E230A0008460A00081E031E47
:101E5A000446041E0446041E0446041E04460423C3
:101E6A00063206460A46063206230A2D08000A2DBD
:101E7A0008000A2D082D08000A2D082D084B0A0013
:101E8A00053C0A00052D192C01B40050004C4153A1
:101E9A0045522041204F4B0A004C415345522041A4
:101EAA0020424C4F434B45440A004C415345522073
:101EBA0042204F4B0A004C41534552204220424C8B
:101ECA004F434B45440A00494E2000503153455276
:101EDA00564F20005032534552564F200047204853
:101EEA000A004720410A002041490A002032500ACC
:101EFA00002031500A004D4F44452043414D455280
:101F0A00410A004D4F4445204D4952524F520A0052
:101F1A004D4F444520574149540A0047204120006B
:101F2A0047204820002043414D0A002050320A0031
:101F3A00204D49520A0053454C46544553540A0011
:101F4A004149206D6F746F72204C4546540A004116
:101F5A0049206D6F746F722052494748540A0041F4
:101F6A004920736572766F0A0048554D414E206DBF
:101F7A006F746F72204C4546540A0048554D414EC5
:101F8A00206D6F746F722052494748540A004855B1
:101F9A004D414E20736572766F0A0053454C465484
:101FAA0045535420646F6E650A0052454144590AEC
:101FBA0000494E20500A0053435245454E0A0053E9
:101FCA0054415254204C4556454C2000542000455B
:041FDA004E44200051
:00000001FF
