:100000000C942A000C94C0030C94CC030C9447006D
:100010000C9447000C9447000C9447000C94470044
:100020000C9447000C9447000C94F0020C94470089
:100030000C9447000C9413030C9447000C94470055
:100040000C9447000C9447000C9447000C94470014
:100050000C94470011241FBECFE5D8E0DEBFCDBF12
:1000600011E0A0E6B0E0EEEDF0E102C005900D92E7
:10007000AA3BB107D9F721E0AAEBB1E001C01D927C
:10008000A43FB207E1F70E94D8030C9453080C94E4
:100090000000CF93DF9300D000D0CDB7DEB78FB78D
:1000A000F8942091F0013091F1014091F2015091CA
:1000B000F30129833A834B835C838FBF69817A8103
:1000C0008B819C810F900F900F900F90DF91CF91BB
:1000D0000895462F572FBC018091DE01882399F0A7
:1000E0008091E8019091E901A091EA01B091EB01C2
:1000F000481759076A077B0730F08EEB95E099BDEA
:1001000088BD1092DE018091DF01882399F08091F3
:10011000EC019091ED01A091EE01B091EF01481733
:1001200059076A077B0730F080E496E09BBD8ABDE3
:100130001092DF01089597B1907F982B97B9369A66
:100140003699FECF84B195B108955D9BFECF8CB9F1
:100150000895CF93DF93EC018991811103C0DF9162
:10016000CF9108950E94A500F7CFEF92FF921F93C1
:10017000CF93DF9300D000D000D0CDB7DEB7382FBB
:10018000292F10E08AE0E82EF12C81E090E08C0F1E
:100190009D1F810F911DFC011F5F832F922FB701BF
:1001A0000E94F407805D8083832F922F362F272FA4
:1001B0000A9758F711110CC026960FB6F894DEBFB7
:1001C0000FBECDBFDF91CF911F91FF90EF900895AB
:1001D0001150E1E0F0E0EC0FFD1FE10FF11D808117
:1001E0000E94A500E7CF82990AC08FEC90E00E94A0
:1001F000A900839907C08CEE90E00C94A90083ECD1
:1002000090E0F5CF80EE90E0F8CF2FB7F894DD982E
:10021000EFECF0E03197F1F700C0000098E080FFCC
:1002200013C0DD9A8695EFECF0E03197F1F700C04E
:1002300000009150A1F7DD9A2FBF8FEC90E001975D
:10024000F1F700C000000895DD98ECCFCF92DF9267
:10025000EF92FF920F931F93CF93DF9300D000D0C4
:1002600000D0CDB7DEB79FEF998396E09A838B835A
:100270001C827627672776277E836D83CE010196C1
:100280007C016E0197E0C90ED11CF70110E000E07F
:100290002191020F111DEC15FD05D1F71195019566
:1002A00011098EE70E940501F70181917F010E94EB
:1002B0000501EC14FD04C1F7812F0E940501802F78
:1002C0000E9405018FEE26960FB6F894DEBF0FBE92
:1002D000CDBFDF91CF911F910F91FF90EF90DF90F5
:1002E000CF900C940501A898A99A969A08958F3FEB
:1002F00021F4A89AA998969A089581110C947301F3
:1003000096980895AA98AB9AAC9A08958F3F21F4D5
:10031000AA9AAB98AC9A089581110C948201AC987A
:100320000895CF92DF92EF92FF920F931F938A016D
:100330009B01482F50E094E0899FF0011124DF01D8
:10034000A052BE4FCD90DD90ED90FC900C151D0598
:100350002E053F0518F1882341F182EA93E09BBD09
:100360008ABD42525E4F81E0DA018C93DF01A851D1
:10037000BE4FB901A80146585F4F6F4F7F4F4D9355
:100380005D936D937C931397E052FE4F0C501F4F7B
:100390002F4F3F4F00831183228333831F910F918F
:1003A000FF90EF90DF90CF90089580E293E099BDA9
:1003B00088BDD7CFCF93DF93CDB7DEB728970FB6E1
:1003C000F894DEBF0FBECDBF8091DA019091DB01C2
:1003D000891778F015BC97981092DD011092DC0116
:1003E00028960FB6F894DEBF0FBECDBFDF91CF9138
:1003F000089590E0880F991FE091DC01F091DD01F4
:10040000E80FF91F808121812983882319F183BD99
:100410008CE185BD0E9449006D837E838F83988720
:100420004981242F30E0AAE0B0E00E944408DC01BA
:10043000CB012D813E814F815885820F931FA41FD0
:10044000B51F8093D6019093D701A093D801B093A4
:10045000D901C6CF15BC9798DDCF9093DD0180936D
:10046000DC016093DB011092DA010C94DA01CF9287
:10047000DF92EF92FF926B017C018091DC01909101
:10048000DD01892BA1F08091D6019091D701A09137
:10049000D801B091D901C816D906EA06FB0638F092
:1004A0008091DA018F5F8093DA010E94DA018091F6
:1004B000CD01811110C08CEDC81685E0D806E1048D
:1004C000F10408F451C081E08093CD016AE170E04D
:1004D00086E00E9426018FB7F8946091CE011092B9
:1004E000CE01C090D101D090D2011092D2011092D1
:1004F000D101E090CF01F090D0011092D001109284
:10050000CF018FBF662339F06032D8F46150770B8A
:1005100086E00E94260181E0C816D104A9F470E0AB
:1005200060E086E10E94260181E0E816F104A1F472
:1005300070E060E085E1FF90EF90DF90CF900C9449
:1005400026016EE170E0E4CFC114D10469F3B60175
:100550006150710982E1E6CFE114F10429F0B7019D
:100560006150710983E1E7CFFF90EF90DF90CF906A
:1005700008958F929F92AF92BF92DF92EF92FF9277
:10058000CF93DF9300D000D0CDB7DEB74B015C0135
:100590000E944900860E971EA81EB91E0E9449009F
:1005A000681579058A059B0570F00F900F900F90E4
:1005B0000F90DF91CF91FF90EF90DF90BF90AF90C1
:1005C0009F908F9008950E9449006983D72E7C01E7
:1005D0000E94370269817D2DC7010E946900DECF2C
:1005E0001F921FB61F9211248F939F93AF93BF93B7
:1005F0008091F0019091F101A091F201B091F3018D
:100600000196A11DB11D8093F0019093F101A0937B
:10061000F201B093F301BF91AF919F918F911F9021
:100620001FBE1F9018951F920F920FB60F921124A4
:100630002F933F934F935F936F937F938F939F93EA
:10064000EF93FF938CB19091D501911122C0833328
:1006500068F4813378F090ED980F9093600090E00B
:1006600064C0F0E0EB5AF74F0C943E08EFEBE80F54
:10067000EA31B8F3FF91EF919F918F917F916F9144
:100680005F914F913F912F910F900FBE0F901F9050
:10069000189590ED980F9A30A8F44091D30150919D
:1006A000D4019AE0949F9001959F300D112420531E
:1006B0003109280F311D87FD3A953093D4012093DD
:1006C000D301D8CF8B3371F49091D501903581F45B
:1006D0002091D3013091D4012F5F3F4F3093D2014D
:1006E0002093D1011092D5018B3309F0B0CFC2CF46
:1006F0009091D5012091D3013091D401913439F4F6
:100700002F5F3F4F3093D0012093CF01EBCF2F5F6E
:100710002093CE01E7CF8093D5011092D40110929F
:10072000D301A8CF8093610091E04091F0015091F6
:10073000F1016091F2017091F3014093C701509370
:10074000C8016093C9017093CA0121E02093C601DA
:10075000992309F48FCF5D9B8DCF80628CB98ACFAE
:1007600091E09093CC01E1CF91E09093CB01DDCF6C
:1007700091E09093C50173CF91E09093C4016FCF46
:100780008F938FB78F938091C30181608093C30152
:100790008F918FBF8F9118958F938FB78F93809183
:1007A000C30182608093C3018F918FBF8F91189591
:1007B000CDB7DEB7A2970FB6F894DEBF0FBECDBFA0
:1007C00081B3806381BB82EA8FBD8AE18EBD80E206
:1007D0009EE497BD86BD8EEB95E099BD88BD80E413
:1007E00096E09BBD8ABD84B7806884BF84BF87B311
:1007F0008C7F87BB88B3836088BB8F9A8BE083BF75
:100800008CE78CBF89B7826089BF84B38F6184BB5A
:100810008E9AD49ADC9A80E487B986E886B9D59A0C
:10082000DD9A10BC93E399B998E99AB980BD81B378
:10083000837F81BB82B38C6082BB85B78A6085BFB2
:1008400080EC8ABF8BB7806C8BBF78942FE738E33E
:1008500041E0215030404040E1F700C00000B19B32
:10086000FDC063E081EB90E00E942D020E944900F0
:100870006B017C0158EBC50E5BE0D51EE11CF11C41
:1008800010E001E00E944900202E312CBFEF2B1A0E
:100890003B0A6C157D058E059F0508F48FC180E02D
:1008A0000E94770180E00E9486011092C40110929C
:1008B000C50121E02D83C12CD12C76010E94490075
:1008C00069837A838B839C8369817A818B819C8104
:1008D0000E94370269817A818B819C810E94690024
:1008E00089819A81AB81BC818C159D05AE05BF05C0
:1008F00060F06C017D0198EEC90E93E0D91EE11CF9
:10090000F11C89E991E00E94A9008091C50188232A
:1009100009F48EC11092C50165E089EB90E00E9458
:100920002D026CEB72E080E090E00E94B90280EA58
:1009300091E00E94A900C1010E94B5008DEA91E0FA
:100940000E94A9000E94F3000E94490069837A83F3
:100950008B839C831092BA011092BB011092BC0150
:100960001092BD011092C4018FB7F8949091C30109
:100970001092C3018FBF1A8E1B8E1C8E1D8E1AA261
:10098000712C662463941D8244244A94542C1E8E38
:100990001F8E18A219A21E8A1F8A188E198E1E86F3
:1009A0001F86188A198A1A8A1B8A1C8A1D8A1A8627
:1009B0001B861C861D860E9449006B017C01AC01D0
:1009C0009B0189819A81AB81BC81281B390B4A0B21
:1009D0005B0B2E833F8348875987CA01B90128EEF4
:1009E00033E040E050E00E941C0804EB10E0021BE2
:1009F000130B2E813F814885598520323F4B424061
:100A0000510538F48091C401882309F41DC1109266
:100A1000C40180E00E94770180E00E94860185EB9E
:100A200091E00E94A900872D90E00E94B50080E22D
:100A30000E94A5004AA1842F90E00E94B5008AE0A0
:100A40000E94A50067E08BE690E00E942D026CED0D
:100A500075E080E090E00E94B90221CF85E291E04C
:100A60000E94A90061E087EB90E00E942D0268E5FA
:100A700072E080E090E00E94B9028FE291E00E9473
:100A8000A9008FEF0E94770160E971E080E090E0BB
:100A90000E94B90280E00E94770160E971E080E085
:100AA00090E00E94B9028EE391E00E94A9000E94AA
:100AB000730160E971E080E090E00E94B90280E09B
:100AC0000E94770163E081EB90E00E942D0260E2DA
:100AD00073E080E090E00E94B9028EE491E00E9411
:100AE000A9000E944900AB01BC0180E00E94910175
:100AF00068E572E080E090E00E94B90265E087EA74
:100B000090E00E942D0264E873E080E090E00E9493
:100B1000B90288E591E00E94A9008FEF0E9486014A
:100B200060E971E080E090E00E94B90280E00E94FC
:100B3000860160E971E080E090E00E94B9028AE6F7
:100B400091E00E94A9000E94820160E971E080E0CA
:100B500090E00E94B90280E00E94860161E087EB8C
:100B600090E00E942D0268E572E080E090E00E9433
:100B7000B9028DE791E00E94A9000E944900AB01F3
:100B8000BC0181E00E94910168E572E080E090E0A4
:100B90000E94B9020E94F3008AE891E00E94A90035
:100BA00067E08BE690E00E942D026CED75E080E03E
:100BB00090E00E94B902B19BFECF53CE0E94490043
:100BC00069837A838B839C8369817A818B819C8101
:100BD0000E943702B19927C0111154CEC10163E0C0
:100BE00070E00E940808082FDC01A859BF4F880F49
:100BF000991FFC01EE59FF4F6C91808191810E94F9
:100C00002D02C980DA80EB80FC8088EBC80E8BE077
:100C1000D81EE11CF11CAFE5BAEE1197F1F700C048
:100C2000000011E02FCE10E02DCE8D818D8346CEB9
:100C3000B199FCCFAD81A111F8CF8FE59AEE019764
:100C4000F1F700C0000068CEC701B6010E9437026C
:100C5000C701B6010E9469002A853B854C855D85E8
:100C6000C216D306E406F50608F471C081E00E94BE
:100C70009B005C0183E00E949B009C014EE5A41652
:100C800041E0B40608F460C051E05E838BE8A8162A
:100C900082E0B80608F41E822B38324060F1809161
:100CA000E4019091E501A091E601B091E701C81639
:100CB000D906EA06FB06F8F0B701A60181E00E941A
:100CC00091018091BA019091BB01A091BC01B091BA
:100CD000BD01892B8A2B8B2B71F4D701C601895852
:100CE0009D4FAF4FBF4F8093BA019093BB01A0932C
:100CF000BC01B093BD01B19955C1611029C02E85C9
:100D00003F8548895989C216D306E406F506C8F01E
:100D1000D701C6018854944FAF4FBF4F8A8B9B8B2E
:100D2000AC8BBD8BA70196012856354C4F4F5F4FBA
:100D30002E873F87488B598B68E08BE890E00E94B4
:100D40002D026624639404C09FEF9E83A5CF1E826C
:100D50008E810E9486018091BE019091BF01A09179
:100D6000C001B091C101C816D906EA06FB06A8F079
:100D7000D701C6010A96A11DB11D8093BE019093B3
:100D8000BF01A093C001B093C1018091C20190E066
:100D900001968F7399278093C2012FB7F8948091A1
:100DA000C7019091C801A091C901B091CA012FBF9C
:100DB000812C912C5401C816D906EA06FB0630F0A6
:100DC00046015701881A990AAA0ABB0A8091C601EE
:100DD000882349F031E03E834CED841645E09406CB
:100DE000A104B10408F01E825E818D81581791F034
:100DF0008BE990E0552311F081EA90E061E00E94D8
:100E00002D029E819111D0C08AE091E00E94A9003C
:100E1000AE81AD832A893B894C895D89C216D30690
:100E2000E406F50608F4D0C03D81332309F4C2C0BE
:100E3000809161008C3409F4BAC08091610041E076
:100E40004E83823509F01E8280E9881681E098067B
:100E5000A104B10408F01E828091CC01882339F0EE
:100E60001092CC01B701A60180E00E94910180910F
:100E7000CB01882321F11092CB012E893F89488D27
:100E8000598DC216D306E406F506C8F0D701C6018F
:100E90008854944FAF4FBF4F8A879B87AC87BD87DD
:100EA000A70196012856354C4F4F5F4F2E8B3F8B35
:100EB000488F598F68E08BE890E00E942D021092D5
:100EC000BA011092BB011092BC011092BD018E813B
:100ED0000E9477019FB7F8948091C3011092C301DB
:100EE0009FBF882371F12A8D3B8D4C8D5D8DC2167D
:100EF000D306E406F50628F1A701960124523A4FDD
:100F00004F4F5F4F2A8F3B8F4C8F5D8F81FF61C0AA
:100F1000739464E081E890E00E942D028AE191E000
:100F20000E94A900872D90E00E94B50080E20E94F7
:100F3000A5004AA1842F90E00E94B5008AE00E949B
:100F4000A5000B30110548F40415150529F061E0E2
:100F500089E890E00E942D0228018E8D9F8DA8A126
:100F6000B9A1C816D906EA06FB0608F424CDA701E4
:100F7000960128513C4F4F4F5F4F2E8F3F8F48A314
:100F800059A382EB91E00E94A900C8010E94B5001C
:100F90003D818EE091E0332311F08FE191E00E94DA
:100FA000A90009CD612CD4CE8DEF90E02FCF5FEF5B
:100FB0005E834ACF1092BA011092BB011092BC011D
:100FC0001092BD011E8283CF1092CB011092CC01F2
:100FD000F9CF3AA13F5F3AA364E089E790E00E942D
:100FE0002D0285E191E09CCFAA1BBB1B51E107C0FC
:100FF000AA1FBB1FA617B70710F0A61BB70B881FA9
:10100000991F5A95A9F780959095BC01CD01089537
:1010100097FB072E16F4009407D077FD09D00E94A5
:10102000F40707FC05D03EF4909581959F4F0895F5
:10103000709561957F4F0895A1E21A2EAA1BBB1BE4
:10104000FD010DC0AA1FBB1FEE1FFF1FA217B30794
:10105000E407F50720F0A21BB30BE40BF50B661FAA
:10106000771F881F991F1A9469F76095709580956E
:1010700090959B01AC01BD01CF010895EE0FFF1FBC
:101080000590F491E02D0994A29FB001B39FC00197
:10109000A39F700D811D1124911DB29F700D811DA4
:1010A0001124911D0895F894FFCF8B033A033A035E
:1010B0003A03BC03B0033A033A033A033A03B803D2
:1010C00092033A033A033A038B033A0392039203DF
:0E10D0003A033A038B033A033A033A03B4039C
:1010DE000153B700B100A7000103053E3C000A29E9
:1010EE000F0005290F0005290F290C310C3E0C535A
:1010FE001E3E08310829081E1E1E031E0446041E2D
:10110E000446041E0446041E044604230632064604
:10111E000A46063206230A2D08000A2D08000A2D5B
:10112E00082D08000A2D082D084B0A00053C0A0060
:10113E00052D194C415345522041204F4B0A004C6E
:10114E0041534552204120424C4F434B45440A00E7
:10115E004C415345522042204F4B0A004C415345BF
:10116E0052204220424C4F434B45440A004D4F44BF
:10117E00452043414D4552410A004D4F44452057AD
:10118E004149540A004720412000472048200020B2
:10119E0043414D0A0053454C46544553540A0041B1
:1011AE0049206D6F746F72204C4546540A004149B8
:1011BE00206D6F746F722052494748540A0041499E
:1011CE0020736572766F0A0048554D414E206D6F43
:1011DE00746F72204C4546540A0048554D414E20BE
:1011EE006D6F746F722052494748540A0048554D2E
:1011FE00414E20736572766F0A0053454C46544536
:10120E00535420646F6E650A0052454144590A00DA
:10121E005354415254204C4556454C2000203150D9
:0A122E000A00542000454E44200041
:00000001FF
