:100000000C942A000C943D050C9449050C9447006F
:100010000C9447000C9447000C9447000C94470044
:100020000C9447000C9447000C9415040C94470062
:100030000C9447000C9438040C9447000C9447002F
:100040000C9447000C9447000C9447000C94470014
:100050000C94470011241FBECFE5D8E0DEBFCDBF12
:1000600011E0A0E6B0E0EEE5F6E102C005900D92E9
:10007000A83EB107D9F722E0A8EEB1E001C01D9279
:10008000A936B207E1F70E9455050C94030B0C94B6
:100090000000CF93DF9300D000D0CDB7DEB78FB78D
:1000A000F894209165023091660240916702509168
:1000B000680229833A834B835C838FBF69817A818D
:1000C0008B819C810F900F900F900F90DF91CF91BB
:1000D000089597B1907F982B97B9369A3699FECFAD
:1000E00084B195B108955D9BFECF8CB90895CF93EF
:1000F000DF93EC018991811103C0DF91CF910895C5
:100100000E947300F7CFEF92FF921F93CF93DF937C
:1001100000D000D000D0CDB7DEB7382F292F10E0A7
:100120008AE0E82EF12C81E090E08C0F9D1F810F7A
:10013000911DFC011F5F832F922FB7010E948B0A34
:10014000805D8083832F922F362F272F0A9758F7B1
:1001500011110CC026960FB6F894DEBF0FBECDBFAE
:10016000DF91CF911F91FF90EF9008951150E1E042
:10017000F0E0EC0FFD1FE10FF11D80810E94730084
:10018000E7CF82990AC089ED90E00E9477008399B9
:1001900007C086EF90E00C9477008DEC90E0F5CFEF
:1001A0008AEE90E0F8CF2FB7F894DD98EDECF0E010
:1001B0003197F1F700C0000098E080FF13C0DD9A8E
:1001C0008695EDECF0E03197F1F700C0000091501A
:1001D000A1F7DD9A2FBF8DEC90E00197F1F700C0F9
:1001E00000000895DD98ECCFCF92DF92EF92FF925E
:1001F0000F931F93CF93DF9300D000D000D0CDB7E3
:10020000DEB79FEF998396E09A838B831C827627D3
:10021000672776277E836D83CE0101967C016E0170
:1002200097E0C90ED11CF70110E000E02191020F08
:10023000111DEC15FD05D1F71195019511098EE7FA
:100240000E94D300F70181917F010E94D300EC143A
:10025000FD04C1F7812F0E94D300802F0E94D3009C
:100260008FEE26960FB6F894DEBF0FBECDBFDF919E
:10027000CF911F910F91FF90EF90DF90CF900C9452
:10028000D300A898A99A969A089587FF04C0A89ABF
:10029000A998969A089581110C9441019698089511
:1002A000AA98AB9AAC9A08958F3F21F4AA9AAB987A
:1002B000AC9A089581110C945001AC980895462F82
:1002C000572FBC01809153028823C9F080915D02B1
:1002D00090915E02A0915F02B091600248175907A9
:1002E0006A077B0760F0809165002AE0829FC00169
:1002F0001124885A9D4F99BD88BD10925302809158
:1003000054028823C9F08091610290916202A09109
:100310006302B0916402481759076A077B0760F0CF
:10032000809163002AE0829FC0011124885A9D4F6A
:100330009BBD8ABD109254020895FF920F931F93A4
:10034000CF93DF93F82E8A019B01C82FD0E064E0A1
:10035000869FF0011124DF01AB5ABD4F8D919D9115
:100360000D90BC91A02D081719072A073B0708F428
:1003700065C0F1101FC07091650060916400862F08
:1003800090E0472F50E0671790F4BA01681B790B93
:10039000CB0154E0880F991F5A95E1F76AE070E0AD
:1003A0000E949F0A615F7F4F4091640021C0841BBF
:1003B000950BEFCF7091630060916200862F90E003
:1003C000472F50E0671708F03FC0BA01681B790B50
:1003D000CB0144E0880F991F4A95E1F76AE070E08D
:1003E0000E949F0A615F7F4F40916200FF20E1F20F
:1003F0008AE0489FA0011124485A5D4FF11027C0A0
:1004000059BD48BDCD5ADD4F81E08883CB01B0E0B6
:10041000A0E0080F191F2A1F3B1FEF01C35ADD4F31
:10042000088319832A833B83EB5AFD4F800F911F6A
:10043000A21FB31F80839183A283B383DF91CF91E7
:100440001F910F91FF900895841B950BC2CF5BBD48
:100450004ABDD8CF6F927F928F929F92AF92BF92F8
:10046000CF92DF92EF92FF920F931F93CF93DF9380
:10047000C82F742E852E962EA72E2FB7F89490E0B5
:10048000FC01E05CFD4FD0811082FC01E25CFD4F7D
:10049000B0801082FC01E45CFD4F608010822FBFB1
:1004A00042E6C42E40E0D42E53E6E52E50E0F52E71
:1004B00000E0813049F024E6C22E20E0D22E35E65D
:1004C000E32E30E0F32E03E0D11113C0B11017C0BA
:1004D000611040C0DF91CF911F910F91FF90EF907D
:1004E000DF90CF90BF90AF909F908F907F906F9054
:1004F00008952FEF2D0FF7012083BB2021F02FEF60
:100500002B0DF60120838D5A9D4FFC0180818111B6
:100510000CC0F7018081FAE08F9FC0011124885A36
:100520009D4FC11149C099BD88BD10E0F7016081A0
:10053000C80101960E94F20AF6016081C801029684
:100540000E94F20A66EC6C1BC8010E94F20ADB29C9
:1005500009F4BECF80E191E0C13011F487E091E071
:100560000E947700F701808190E00E94830080E480
:1005700091E00E947700F601808190E00E94830064
:100580008AE491E00E947700F2E06F12A3CF472D3A
:10059000582D692D7A2D8C2FDF91CF911F910F91BE
:1005A000FF90EF90DF90CF90BF90AF909F908F9093
:1005B0007F906F900C949D019BBD8ABDB6CFCF9369
:1005C000DF93CDB7DEB728970FB6F894DEBF0FBE26
:1005D000CDBF80914F0290915002891778F015BCE1
:1005E0009798109252021092510228960FB6F894E2
:1005F000DEBF0FBECDBFDF91CF91089590E0880F91
:10060000991FE0915102F0915202E80FF91F808189
:1006100021812983882319F183BD8CE185BD0E9446
:1006200049006D837E838F8398874981242F30E032
:10063000AAE0B0E00E94DB0ADC01CB012D813E8103
:100640004F815885820F931FA41FB51F80934B02C3
:1006500090934C02A0934D02B0934E02C6CF15BCAE
:100660009798DDCF9093520280935102609350028D
:1006700010924F020C94DF02BF92CF92DF92EF9262
:10068000FF920F931F93CF93DF936B017C018091B7
:10069000510290915202892BA1F080914B029091CE
:1006A0004C02A0914D02B0914E02C816D906EA063E
:1006B000FB0638F080914F028F5F80934F020E94BB
:1006C000DF0280913B02811110C08CEDC81685E0DD
:1006D000D806E104F10408F467C081E080933B028E
:1006E0006EE070E086E00E94F4008FB7F8946091AD
:1006F000420210924202B0904302109243020091D3
:100700004602109147021092470210924602C09191
:100710004402D091450210924502109244028FBFCC
:10072000662339F06032E8F56150770B86E00E946D
:10073000F400BB2031F070E060E08FEF8B0D0E9481
:10074000F40070E060E086E10130110539F0011538
:10075000110531F0B8016150710982E10E94F40085
:1007600070E060E085E1C130D10531F0209731F0D3
:10077000BE016150710983E10E94F400B701A60136
:1007800081E00E942A02B701A60180E0DF91CF91AB
:100790001F910F91FF90EF90DF90CF90BF900C943E
:1007A0002A026EE170E0C2CFDF91CF911F910F91CD
:1007B000FF90EF90DF90CF90BF9008958F929F921F
:1007C000AF92BF92DF92EF92FF92CF93DF9300D070
:1007D00000D0CDB7DEB74B015C010E944900860E08
:1007E000971EA81EB91E0E944900681579058A0542
:1007F0009B0570F00F900F900F900F90DF91CF91AD
:10080000FF90EF90DF90BF90AF909F908F900895F2
:100810000E9449006983D72E7C010E943C036981B4
:100820007D2DC7010E945F01DECF1F921FB61F9270
:1008300011248F939F93AF93BF9380916502909102
:100840006602A0916702B09168020196A11DB11DD8
:100850008093650290936602A0936702B09368024A
:10086000BF91AF919F918F911F901FBE1F901895C0
:100870001F920F920FB60F9211242F933F934F9315
:100880005F936F937F938F939F93EF93FF938CB1BD
:1008900090914A02911109C0EFECE80FEA32E8F4B6
:1008A000F0E0EB5FF44F0C94D50A90ED980F9A307E
:1008B00018F540914802509149029AE0949F9001A6
:1008C000959F300D112420533109280F311D87FDCC
:1008D0003A953093490220934802FF91EF919F91FE
:1008E0008F917F916F915F914F913F912F910F90D9
:1008F0000FBE0F901F9018958B3371F490914A02A0
:10090000903581F420914802309149022F5F3F4F8A
:10091000309347022093460210924A028B3309F02B
:10092000BBCFDBCF90914A02913459F42091480219
:10093000309149022F5F3F4F30934502209344028C
:10094000EBCF90914A02963541F4209148023091C4
:1009500049022F5F20934202DFCF90914A022091FB
:10096000480230914902983559F42F3F3105A0F6DD
:1009700020914802309149022F5F20934302CCCF4F
:10098000253B310548F690914A02983441F4209174
:100990004802309149022F5F20934102BDCF9091D0
:1009A0004A029A3441F420914802309149022F5F63
:1009B00020933F02B1CF90914A02953541F42091A6
:1009C0004802309149022F5F20933D02A5CF9091BC
:1009D0004A02913541F420914802309149022F5F3B
:1009E0002093400299CF90914A0220914802309181
:1009F00049022F5F973519F420933E028DCF209343
:100A00003C028ACF80934A02109249021092480217
:100A100064CF8093610091E040916502509166023D
:100A200060916702709168024093350250933602DC
:100A3000609337027093380221E0209334029923A7
:100A400009F44BCF5D9B49CF80628CB946CF91E0D2
:100A500090933A02E1CF91E090933902DDCF90ED8F
:100A6000980F9093600090E0D7CF91E0909333027D
:100A7000FACF91E090933202F6CF8F938FB78F9396
:100A8000809131028160809331028F918FBF8F916D
:100A900018958F938FB78F938091310282608093E6
:100AA00031028F918FBF8F911895CDB7DEB7A89780
:100AB0000FB6F894DEBF0FBECDBF81B3806381BB9C
:100AC00082EA8FBD8AE18EBD80E29EE497BD86BD3D
:100AD00083E090E00E94EA0A863C91F484E090E092
:100AE0000E94EA0A8983853B58F485E090E00E94E1
:100AF000EA0A853B28F429812093650080936400ED
:100B0000809165003AE0839FC0011124885A9D4F6F
:100B100099BD88BD90E080E00E94EA0A853C91F48E
:100B200081E090E00E94EA0A8983853B58F482E0E4
:100B300090E00E94EA0A853B28F4498140936300D3
:100B400080936200809163005AE0859FC001112468
:100B5000885A9D4F9BBD8ABD84B7806884BF84BF7F
:100B600087B38C7F87BB88B3836088BB8F9A8BE009
:100B700083BF8CE78CBF89B7826089BF84B38F61E4
:100B800084BB8E9AD49ADC9A80E487B986E886B9C9
:100B9000D59ADD9A10BC93E399B998E99AB980BDCA
:100BA00081B3837F81BB82B38C6082BB85B78A604F
:100BB00085BF80EC8ABF8BB7806C8BBF78948FE742
:100BC00098E3A1E081509040A040E1F700C0000010
:100BD000B19B1EC163E085EB90E00E9432030E944E
:100BE00049006B017C01B8EBCB0EBBE0DB1EE11CC6
:100BF000F11C10E001E00E94490069837A838B8335
:100C00009C83802F90E0DC011196BCA3ABA32981CB
:100C10003A814B815C812C153D054E055F0508F43A
:100C2000A7C1880F991FAC0149535F4F5EA34DA325
:100C300080E00E94450180E00E945401109232023F
:100C40001092330251E05D83C12CD12C76010E94B9
:100C5000490069837A838B839C8369817A818B8144
:100C60009C810E943C0369817A818B819C810E94D6
:100C70005F0189819A81AB81BC818C159D05AE0590
:100C8000BF0560F06C017D0198EEC90E93E0D91E9E
:100C9000E11CF11C8CEC91E00E9477008091330202
:100CA000882309F4A0C110923302A0916000AFA381
:100CB000A23011F0B1E0BFA365E08DEB90E00E949F
:100CC00032036CEB72E080E090E00E94DE0383ED83
:100CD00091E00E9477008BA19CA10E948300AFA1AC
:100CE0008EE191E0A23011F489E191E00E94770059
:100CF0000E94C1000E94490069837A838B839C8390
:100D00001092E8011092E9011092EA011092EB01B1
:100D1000109232028FB7F894909131021092310202
:100D20008FBF1B8E1C8E1D8E1E8E1F821E82B1E0F9
:100D3000BA8FE1E0ED8318A62FEF3FEF3D8B2C8BB0
:100D40001F8E18A219A21AA2812C912C54011E8A5E
:100D50001F8A188E198E188A198A1A8A1B8A1C866D
:100D60001D861E861F860E9449006B017C01DC01E6
:100D7000CB0129813A814B815C81821B930BA40BAF
:100D8000B50B88879987AA87BB87BC01CD0128EE60
:100D900033E040E050E00E94B30A44EB242E312CB3
:100DA000221A330A88859985AA85BB8580329F4B94
:100DB000A240B10538F480913202882309F421C1A0
:100DC0001092320280E00E94450180E00E945401AE
:100DD00083EE91E00E947700BE818B2F90E00E940D
:100DE000830080E20E947300EF818E2F90E00E94CA
:100DF00083008AE00E94730067E08FE690E00E9423
:100E000032036CED75E080E090E00E94DE0310CFCD
:100E100088E591E00E94770061E08BEB90E00E9412
:100E2000320368E572E080E090E00E94DE0382E633
:100E300091E00E9477008FEF0E94450160E971E028
:100E400080E090E00E94DE0380E00E94450160E9BE
:100E500071E080E090E00E94DE0381E791E00E9473
:100E600077000E94410160E971E080E090E00E941B
:100E7000DE0380E00E94450163E085EB90E00E9484
:100E8000320360E273E080E090E00E94DE0381E8DC
:100E900091E00E9477000E944900AB01BC0180E014
:100EA0000E949D0168E572E080E090E00E94DE0310
:100EB00065E08BEA90E00E94320364E873E080E032
:100EC00090E00E94DE038BE891E00E9477008FEFB4
:100ED0000E94540160E971E080E090E00E94DE032E
:100EE00080E00E94540160E971E080E090E00E949F
:100EF000DE038DE991E00E9477000E94500160E9D5
:100F000071E080E090E00E94DE0380E00E945401E6
:100F100061E08BEB90E00E94320368E572E080E0D4
:100F200090E00E94DE0380EB91E00E9477000E9437
:100F30004900AB01BC0181E00E949D0168E572E0BF
:100F400080E090E00E94DE030E94C1008DEB91E002
:100F50000E94770067E08FE690E00E9432036CED1C
:100F600075E080E090E00E94DE03B19BFECF32CEC0
:100F70000E94490069837A838B839C8369817A818B
:100F80008B819C810E943C03B19928C0111133CE02
:100F90008BA19CA163E070E00E949F0A082FDC01F6
:100FA000A459BF4F880F991FFC01EA59FF4F6C915C
:100FB000808191810E943203C980DA80EB80FC80BD
:100FC000E8EBCE0EEBE0DE1EE11CF11C8FE59AEEA5
:100FD0000197F1F700C0000011E00DCE10E00BCE3C
:100FE0008D818D8334CEB199FCCFED81E111F8CFA5
:100FF0008FE59AEE0197F1F700C0000091E09FA302
:101000005BCEC701B6010E943C03C701B6010E9436
:101010005F012C853D854E855F85712CC216D306F8
:10102000E406F50608F497C081E00E9469008C018F
:1010300083E00E9469009C0177247A940E3541E098
:10104000140730F0772473940B38124008F4712C95
:101050002B38324008F455C08091590290915A02C1
:10106000A0915B02B0915C02C816D906EA06FB06A5
:1010700008F447C0B701A60181E00E949D0180915C
:10108000E8019091E901A091EA01B091EB01892B6F
:101090008A2B8B2BB1F55091630040916200842F15
:1010A00090E0252F30E0451708F0CCC0D901A81BEF
:1010B000B90BCD0124E0880F991F2A95E1F76AE06A
:1010C00070E00E949F0ACB010F96880F991F63E082
:1010D00070E00E949F0A8B01770F220B330BD70120
:1010E000C6018A5D9D4FAF4FBF4F080F191F2A1FC2
:1010F0003B1F0093E8011093E9012093EA0130932C
:10110000EB01B199A2C0BD81B11125C02E893F89E3
:10111000488D598DC216D306E406F50608F497C02B
:10112000D701C6018854944FAF4FBF4F888B998B1E
:10113000AA8BBB8BA70196012856354C4F4F5F4FAA
:101140002E8B3F8B488F598F68E08FE890E00E948C
:10115000320331E03D83872D0E9454018091EC01E0
:101160009091ED01A091EE01B091EF01C816D90662
:10117000EA06FB06C8F0D701C6010A96A11DB11DFB
:101180008093EC019093ED01A093EE01B093EF01F9
:101190008091F00190E0FC01EF50FE4F70820196CB
:1011A0008F7399278093F0012FB7F89480913502BF
:1011B00090913602A0913702B09138022FBF412C96
:1011C000512C3201C816D906EA06FB0630F026017A
:1011D0003701481A590A6A0A7B0A80913402882327
:1011E00041F011E05CED451655E0550661047104CF
:1011F00008F010E088A5181771F19FA1913051F502
:101200008FE990E0112311F085EA90E061E00E94FF
:10121000320380E391E0112311F083E291E00E9418
:101220007700288939894A895B8918A7C216D306AD
:10123000E406F50608F0D8C01092390210923A027E
:1012400000E05DC0821B930B35CF1D8284CF41E04F
:101250004D8381CF18A788899989AA89BB89C81627
:10126000D906EA06FB0640F39FA1923009F0BCC004
:1012700080E00E9469003C0182E00E9469009C01BC
:101280000FEFAEE56A16A1E07A0638F001E0BBE8A0
:101290006B16B2E07B0608F400E02B38324028F0F1
:1012A000B701A60180E00E949D0186B38095182FAA
:1012B000117080FF1FC0FA8DF1111CC0C814D90431
:1012C000EA04FB04B8F0A70196012854344F4F4FAD
:1012D0005F4F2C873D874E875F874601570138E96E
:1012E000830E3AE3931EA11CB11C68E08FE890E0E6
:1012F0000E9432031092390210923A021A8F802F04
:101300000E9445019FB7F8948091310210923102FA
:101310009FBF882389F12B8D3C8D4D8D5E8DC2162C
:10132000D306E406F50640F1A701960124523A4F90
:101330004F4F5F4F2B8F3C8F4D8F5E8F81FFDBC0F8
:101340003E813F5F3E8364E085E890E00E94320387
:1013500082E491E00E9477005E81852F90E00E94F8
:10136000830080E20E947300AF818A2F90E00E9488
:1013700083008AE00E947300BBE02B16310460F406
:10138000EC89FD892E163F0629F061E08DE890E09A
:101390000E9432033D8A2C8A2F8D38A149A15AA17F
:1013A000C216D306E406F50608F4DDCCD701C60163
:1013B00088519C4FAF4FBF4F8F8F98A3A9A3BAA35B
:1013C00080EE91E00E947700C1010E9483009FA1FE
:1013D000923009F49BC0A8A582E591E0AA2309F404
:1013E00097C08CE491E094C048A5442309F449C017
:1013F000809161000FEF8C3431F08091610001E049
:10140000823509F000E050E9451651E055066104C7
:10141000710408F000E080913A02882339F01092BC
:101420003A02B701A60180E00E949D018091390235
:101430008823F1F010923902C814D904EA04FB049D
:10144000B8F0D701C6018854944FAF4FBF4F8C8777
:101450009D87AE87BF874601570198E9890E9AE3B9
:10146000991EA11CB11C68E08FE890E00E94320335
:101470001092E8011092E9011092EA011092EB013A
:101480003ECF2091F00130E0215C3F4FADA1BEA1E5
:101490008D919C916AE070E00E948B0AC901861BC5
:1014A000910960E470E00E949F0AFC01FF27EF5061
:1014B000FE4F00818091E8019091E901A091EA013D
:1014C000B091EB010097A105B10509F418CFC8163A
:1014D000D906EA06FB0608F412CF1092E801109232
:1014E000E9011092EA011092EB01B701A60180E038
:1014F0000E949D0104CF4F814F5F4F8364E08DE7D1
:1015000090E00E9432038DE391E024CF87E491E0E4
:101510000E94770028CCAA1BBB1B51E107C0AA1F61
:10152000BB1FA617B70710F0A61BB70B881F991F84
:101530005A95A9F780959095BC01CD01089597FB28
:10154000072E16F4009407D077FD09D00E948B0A6D
:1015500007FC05D03EF4909581959F4F08957095B6
:1015600061957F4F0895A1E21A2EAA1BBB1BFD01B6
:101570000DC0AA1FBB1FEE1FFF1FA217B307E40772
:10158000F50720F0A21BB30BE40BF50B661F771FCA
:10159000881F991F1A9469F76095709580959095AA
:1015A0009B01AC01BD01CF010895EE0FFF1F059017
:1015B000F491E02D0994A29FB001B39FC001A39FB5
:1015C000700D811D1124911DB29F700D811D11247C
:1015D000911D0895E199FECF9FBB8EBBE09A99279C
:1015E0008DB30895262FE199FECF9FBB8EBBE09A65
:1015F00001970DB2021631F02DBB0FB6F894E29AA6
:10160000E19A0FBE0895F894FFCF2F052F056D04C2
:101610006D046D046D046D046D046D046D046D0442
:101620006D046D046D046D046D0402056D046D049C
:101630006D04390527056D0402056D0402053505A5
:1016400009056D046D046D0402050205090509050F
:0E165000020502050205020502056D042B05C8
:10165E00015321641457BB00B500AB000103053ED6
:10166E003C000A290F0005290F0005290F290C310E
:10167E000C3E0C531E3E08310829081E1E1E031E6A
:10168E000446041E0446041E0446041E0446042397
:10169E00063206460A46063206230A2D08000A2D91
:1016AE0008000A2D082D08000A2D082D084B0A00E7
:1016BE00053C0A00052D192C01B40050004C415375
:1016CE0045522041204F4B0A004C41534552204178
:1016DE0020424C4F434B45440A004C415345522047
:1016EE0042204F4B0A004C41534552204220424C5F
:1016FE004F434B45440A005031534552564F20003C
:10170E005032534552564F20002032500A0020319D
:10171E00500A004D4F44452043414D4552410A0069
:10172E004D4F4445204D4952524F520A00472041D9
:10173E00200047204820002050320A002043414D0F
:10174E000A00204D49520A0053454C465445535405
:10175E000A004149206D6F746F72204C4546540A41
:10176E00004149206D6F746F722052494748540AE8
:10177E0000414920736572766F0A0048554D414EFF
:10178E00206D6F746F72204C4546540A0048554DBB
:10179E00414E206D6F746F722052494748540A00B3
:1017AE0048554D414E20736572766F0A0053454C75
:1017BE00465445535420646F6E650A0052454144A9
:1017CE00590A005354415254204C4556454C200062
:0817DE00542000454E44200098
:00000001FF
