:100000000C942A000C948C040C9498040C944700D3
:100010000C9447000C9447000C9447000C94470044
:100020000C9447000C9447000C9488030C944700F0
:100030000C9447000C94AB030C9447000C944700BD
:100040000C9447000C9447000C9447000C94470014
:100050000C94470011241FBECFE5D8E0DEBFCDBF12
:1000600011E0A0E6B0E0ECE6F3E102C005900D92ED
:10007000A63CB107D9F722E0A6ECB1E001C01D9281
:10008000A430B207E1F70E94A4040C948A090C94EE
:100090000000CF93DF9300D000D0CDB7DEB78FB78D
:1000A000F894209100023091010240910202509197
:1000B000030229833A834B835C838FBF69817A81F2
:1000C0008B819C810F900F900F900F90DF91CF91BB
:1000D0000895CF92DF92EF92FF926A017B01E82FA1
:1000E000F0E064E0869F90011124D901A051BE4F39
:1000F0004D915D916D917C91C416D506E606F7068B
:1001000008F440C0882309F445C050916300409131
:100110006200842F90E0652F70E04517C0F5DB0189
:10012000A81BB90BCD0154E0880F991F5A95E1F730
:100130006AE070E00E942609CB010F96BAE04B9F5F
:10014000A0011124485A5D4F5BBD4ABDE251FE4FEC
:1001500041E04083B0E0A0E0C80ED91EEA1EFB1EBD
:10016000F901E850FE4FC082D182E282F382205131
:100170003E4F8C0D9D1DAE1DBF1DF90180839183E7
:10018000A283B383FF90EF90DF90CF900895861BFA
:10019000970BC9CF80E293E099BD88BD8AE790E0D4
:1001A000D5CF97B1907F982B97B9369A3699FECFD5
:1001B00084B195B108955D9BFECF8CB90895CF931E
:1001C000DF93EC018991811103C0DF91CF910895F4
:1001D0000E94DB00F7CFEF92FF921F93CF93DF9344
:1001E00000D000D000D0CDB7DEB7382F292F10E0D7
:1001F0008AE0E82EF12C81E090E08C0F9D1F810FAA
:10020000911DFC011F5F832F922FB7010E941209DD
:10021000805D8083832F922F362F272F0A9758F7E0
:1002200011110CC026960FB6F894DEBF0FBECDBFDD
:10023000DF91CF911F91FF90EF9008951150E1E071
:10024000F0E0EC0FFD1FE10FF11D80810E94DB004B
:10025000E7CF82990AC081ED90E00E94DF00839988
:1002600007C08EEE90E00C94DF0085EC90E0F5CFB7
:1002700082EE90E0F8CF2FB7F894DD98EDECF0E047
:100280003197F1F700C0000098E080FF13C0DD9ABD
:100290008695EDECF0E03197F1F700C00000915049
:1002A000A1F7DD9A2FBF8DEC90E00197F1F700C028
:1002B00000000895DD98ECCFCF92DF92EF92FF928D
:1002C0000F931F93CF93DF9300D000D000D0CDB712
:1002D000DEB79FEF998396E09A838B831C82762703
:1002E000672776277E836D83CE0101967C016E01A0
:1002F00097E0C90ED11CF70110E000E02191020F38
:10030000111DEC15FD05D1F71195019511098EE729
:100310000E943B01F70181917F010E943B01EC1497
:10032000FD04C1F7812F0E943B01802F0E943B01F9
:100330008FEE26960FB6F894DEBF0FBECDBFDF91CD
:10034000CF911F910F91FF90EF90DF90CF900C9481
:100350003B01A898A99A969A08958F3F21F4A89AEC
:10036000A998969A089581110C94A90196980895D8
:10037000AA98AB9AAC9A08958F3F21F4AA9AAB98A9
:10038000AC9A089581110C94B801AC980895462F49
:10039000572FBC018091EE01882399F08091F801DC
:1003A0009091F901A091FA01B091FB01481759070A
:1003B0006A077B0730F08EEB95E099BD88BD1092FF
:1003C000EE018091EF018823C9F08091FC019091AA
:1003D000FD01A091FE01B091FF01481759076A077E
:1003E0007B0760F0809163002AE0829FC0011124A6
:1003F000885A9D4F9BBD8ABD1092EF010895CF93FF
:10040000DF93CDB7DEB728970FB6F894DEBF0FBEE7
:10041000CDBF8091EA019091EB01891778F015BC6E
:1004200097981092ED011092EC0128960FB6F8946F
:10043000DEBF0FBECDBFDF91CF91089590E0880F52
:10044000991FE091EC01F091ED01E80FF91F808117
:1004500021812983882319F183BD8CE185BD0E9408
:1004600049006D837E838F8398874981242F30E0F4
:10047000AAE0B0E00E946209DC01CB012D813E813F
:100480004F815885820F931FA41FB51F8093E601EB
:100490009093E701A093E801B093E901C6CF15BCA2
:1004A0009798DDCF9093ED018093EC016093EB0181
:1004B0001092EA010C94FF01BF92CF92DF92EF926B
:1004C000FF920F931F93CF93DF936B017C01809179
:1004D000EC019091ED01892BA1F08091E6019091C2
:1004E000E701A091E801B091E901C816D906EA0632
:1004F000FB0638F08091EA018F5F8093EA010E9449
:10050000FF018091D901811110C02CEDC21625E0A8
:10051000D206E104F10408F467C081E08093D901B8
:100520006EE070E086E00E945C018FB7F894609105
:10053000DD011092DD01B090DE011092DE0100912C
:10054000E1011091E2011092E2011092E101C091EB
:10055000DF01D091E0011092E0011092DF018FBF26
:10056000662341F0603208F049C06150770B86E0A5
:100570000E945C01BB2031F070E060E08FEF8B0DDA
:100580000E945C0170E060E086E10130110539F005
:100590000115110531F0B8016150710982E10E9425
:1005A0005C0170E060E085E1C130D10531F0209759
:1005B00031F0BE016150710983E10E945C018FB787
:1005C000F894C091DC011092DC01D091DB01109213
:1005D000DB011091DA011092DA018FBFC11111C055
:1005E000D11115C0111136C0DF91CF911F910F911C
:1005F000FF90EF90DF90CF90BF9008956EE170E094
:10060000B6CF8FEF8C0F80936300DD2321F08FEF47
:100610008D0F80936200609163008091EF018111E2
:1006200008C02AE0629FC0011124885A9D4F9BBDDB
:100630008ABD81E090E00E9479096091620082E0C9
:1006400090E00E94790965EC90E080E00E947909D1
:10065000CD2B41F28FEF90E00E94DF00809163008C
:1006600090E00E94EB0083E291E00E94DF00809125
:10067000620090E00E94EB0083E191E00E94DF00C5
:10068000123009F0B1CFB701A60181E0DF91CF911F
:100690001F910F91FF90EF90DF90CF90BF900C943F
:1006A00069008F929F92AF92BF92DF92EF92FF927A
:1006B000CF93DF9300D000D0CDB7DEB74B015C0104
:1006C0000E944900860E971EA81EB91E0E9449006E
:1006D000681579058A059B0570F00F900F900F90B3
:1006E0000F90DF91CF91FF90EF90DF90BF90AF9090
:1006F0009F908F9008950E9449006983D72E7C01B6
:100700000E945C0269817D2DC7010E94C701DECF76
:100710001F921FB61F9211248F939F93AF93BF9385
:100720008091000290910102A0910202B091030217
:100730000196A11DB11D8093000290930102A09328
:100740000202B0930302BF91AF919F918F911F90CE
:100750001FBE1F9018951F920F920FB60F92112473
:100760002F933F934F935F936F937F938F939F93B9
:10077000EF93FF938CB19091E501911109C0EFECDB
:10078000E80FEA32E8F4F0E0E457F64F0C945C0925
:1007900090ED980F9A3018F54091E3015091E401E3
:1007A0009AE0949F9001959F300D112420533109B8
:1007B000280F311D87FD3A953093E4012093E30122
:1007C000FF91EF919F918F917F916F915F914F91E9
:1007D0003F912F910F900FBE0F901F9018958B3364
:1007E00071F49091E501903581F42091E30130910D
:1007F000E4012F5F3F4F3093E2012093E10110921B
:10080000E5018B3309F0BBCFDBCF9091E50191344B
:1008100059F42091E3013091E4012F5F3F4F309371
:10082000E0012093DF01EBCF9091E501963541F493
:100830002091E3013091E4012F5F2093DD01DFCFB0
:100840009091E5012091E3013091E401983559F44C
:100850002F3F3105A0F62091E3013091E4012F5F95
:100860002093DE01CCCF253B310548F69091E50180
:10087000983441F42091E3013091E4012F5F2093FB
:10088000DC01BDCF9091E5012091E3013091E401BD
:100890002F5F9A3419F42093DB01B1CF2093DA0152
:1008A000AECF8093E5011092E4011092E30188CF6E
:1008B0008093610091E040910002509101026091AB
:1008C0000202709103024093D3015093D4016093CC
:1008D000D5017093D60121E02093D201992309F428
:1008E0006FCF5D9B6DCF80628CB96ACF91E09093A2
:1008F000D801E1CF91E09093D701DDCF90ED980F33
:100900009093600090E0D7CF91E09093D101FACF1F
:1009100091E09093D001F6CF8F938FB78F93809112
:10092000CF0181608093CF018F918FBF8F911895F8
:100930008F938FB78F938091CF0182608093CF0187
:100940008F918FBF8F911895CDB7DEB7A2970FB655
:10095000F894DEBF0FBECDBF81B3806381BB82EA56
:100960008FBD8AE18EBD80E29EE497BD86BD8EEB91
:1009700095E099BD88BD90E080E00E947109853CBA
:1009800091F481E090E00E9471098983853B58F4DD
:1009900082E090E00E947109853B28F42981209330
:1009A000630080936200809163003AE0839FC001FE
:1009B0001124885A9D4F9BBD8ABD84B7806884BF2F
:1009C00084BF87B38C7F87BB88B3836088BB8F9AD3
:1009D0008BE083BF8CE78CBF89B7826089BF84B30B
:1009E0008F6184BB8E9AD49ADC9A80E487B986E8BA
:1009F00086B9D59ADD9A10BC93E399B998E99AB96A
:100A000080BD81B3837F81BB82B38C6082BB85B79D
:100A10008A6085BF80EC8ABF8BB7806C8BBF78946F
:100A20004FE758E381E0415050408040E1F700C07B
:100A30000000B19B05C163E083EB90E00E9452028D
:100A40000E9449006B017C0198EBC90E9BE0D91E06
:100A5000E11CF11C10E001E00E94490069837A83E7
:100A60008B839C83202E312C9FEF291A390A2981F0
:100A70003A814B815C812C153D054E055F0508F4DC
:100A80008FC180E00E94AD0180E00E94BC01109205
:100A9000D0011092D10131E03D83C12CD12C7601DF
:100AA0000E94490069837A838B839C8369817A8160
:100AB0008B819C810E945C0269817A818B819C81FF
:100AC0000E94C70189819A81AB81BC818C159D05EB
:100AD000AE05BF0560F06C017D0198EEC90E93E094
:100AE000D91EE11CF11C84EA91E00E94DF00809194
:100AF000D101882309F48EC11092D10165E08BEBFE
:100B000090E00E9452026CEB72E080E090E00E9464
:100B100051038BEA91E00E94DF00C1010E94EB00CB
:100B200088EB91E00E94DF000E9429010E944900A9
:100B300069837A838B839C831092C6011092C701CC
:100B40001092C8011092C9011092D0018FB7F89489
:100B50009091CF011092CF018FBF1A8E1B8E1C8EE9
:100B60001D8E1AA2712C662463941D8244244A941B
:100B7000542C1E8E1F8E18A219A21E8A1F8A188E30
:100B8000198E1E861F86188A198A1A8A1B8A1C8A41
:100B90001D8A1A861B861C861D860E9449006B01D1
:100BA0007C01AC019B0189819A81AB81BC81281BAE
:100BB000390B4A0B5B0B2E833F8348875987CA0149
:100BC000B90128EE33E040E050E00E943A0904EB1E
:100BD00010E0021B130B2E813F814885598520327E
:100BE0003F4B4240510538F48091D001882309F4ED
:100BF0001DC11092D00180E00E94AD0180E00E94F2
:100C0000BC0180EC91E00E94DF00872D90E00E9403
:100C1000EB0080E20E94DB004AA1842F90E00E945A
:100C2000EB008AE00E94DB0067E08DE690E00E9426
:100C300052026CED75E080E090E00E94510321CFFC
:100C400080E391E00E94DF0061E089EB90E00E9488
:100C5000520268E572E080E090E00E9451038AE36E
:100C600091E00E94DF008FEF0E94AD0160E971E02A
:100C700080E090E00E94510380E00E94AD0160E9B5
:100C800071E080E090E00E94510389E491E00E94CD
:100C9000DF000E94A90160E971E080E090E00E941D
:100CA000510380E00E94AD0163E083EB90E00E947D
:100CB000520260E273E080E090E00E94510389E517
:100CC00091E00E94DF000E944900AB01BC0180E07E
:100CD0000E94690068E572E080E090E00E945103A4
:100CE00065E089EA90E00E94520264E873E080E0E7
:100CF00090E00E94510383E691E00E94DF008FEFB5
:100D00000E94BC0160E971E080E090E00E94510324
:100D100080E00E94BC0160E971E080E090E00E9408
:100D2000510385E791E00E94DF000E94B80160E96D
:100D300071E080E090E00E94510380E00E94BC01DD
:100D400061E089EB90E00E94520268E572E080E089
:100D500090E00E94510388E891E00E94DF000E9429
:100D60004900AB01BC0181E00E94690068E572E0C6
:100D700080E090E00E9451030E94290185E991E002
:100D80000E94DF0067E08DE690E00E9452026CED69
:100D900075E080E090E00E945103B19BFECF4BCE06
:100DA0000E94490069837A838B839C8369817A815D
:100DB0008B819C810E945C02B19927C011114CCE9D
:100DC000C10163E070E00E942609082FDC01A659EA
:100DD000BF4F880F991FFC01EC59FF4F6C91808128
:100DE00091810E945202C980DA80EB80FC80A8EBDE
:100DF000CA0EABE0DA1EE11CF11C8FE59AEE0197FA
:100E0000F1F700C0000011E027CE10E025CE8D8163
:100E10008D8346CEB199FCCFAD81A111F8CF8FE57E
:100E20009AEE0197F1F700C0000068CEC701B60145
:100E30000E945C02C701B6010E94C7012A853B855A
:100E40004C855D85C216D306E406F50608F49EC0FF
:100E500081E00E94D1005C0183E00E94D1009C01EE
:100E60004EE5A41641E0B40608F48AC051E05E8362
:100E70008BE8A81682E0B80608F41E822B383240B0
:100E800008F455C08091F4019091F501A091F6010C
:100E9000B091F701C816D906EA06FB0608F447C068
:100EA000B701A60181E00E9469008091C60190917E
:100EB000C701A091C801B091C901892B8A2B8B2B46
:100EC000B1F55091630040916200842F90E0252F8E
:100ED00030E0451708F057C0A901481B590BCA015B
:100EE00024E0880F991F2A95E1F76AE070E00E94DC
:100EF0002609CB010F96880F991F63E070E00E94CE
:100F000026094B01770FAA08BB08D701C6018A5DE5
:100F10009D4FAF4FBF4F880E991EAA1EBB1E8092D9
:100F2000C6019092C701A092C801B092C901B199BF
:100F30005AC161102CC08E859F85A889B989C816B1
:100F4000D906EA06FB06C8F0A70196012854344FDB
:100F50004F4F5F4F2A8B3B8B4C8B5D8BD701C6016C
:100F60008856954CAF4FBF4F8E879F87A88BB98B04
:100F700068E08DE890E00E9452026624639407C006
:100F80009FEF9E837BCF821B930BAACF1E828E8105
:100F90000E94BC018091CA019091CB01A091CC012B
:100FA000B091CD01C816D906EA06FB06A8F0D70114
:100FB000C6010A96A11DB11D8093CA019093CB0171
:100FC000A093CC01B093CD018091CE0190E0019629
:100FD0008F7399278093CE012FB7F8948091D30116
:100FE0009091D401A091D501B091D6012FBF812C51
:100FF000912C5401C816D906EA06FB0630F04601CA
:101000005701881A990AAA0ABB0A8091D20188233B
:1010100049F091E09E83ACED8A16A5E09A06A10402
:10102000B10408F01E82BE812D81B217A1F08DE9B6
:1010300090E0BB2311F083EA90E061E00E9452024D
:101040003E8185E191E0332311F088E091E00E9438
:10105000DF004E814D838A899B89AC89BD89C81682
:10106000D906EA06FB0608F4CDC09D81992309F450
:10107000BFC0809161008C3409F4B7C080916100D9
:10108000A1E0AE83823509F01E8220E9821621E0BC
:101090009206A104B10408F01E828091D801882331
:1010A00039F01092D801B701A60180E00E946900D2
:1010B0008091D701882321F11092D7018E899F89D1
:1010C000A88DB98DC816D906EA06FB06C8F0A70197
:1010D00096012854344F4F4F5F4F2A873B874C87E8
:1010E0005D87D701C6018856954CAF4FBF4F8E8B99
:1010F0009F8BA88FB98F68E08DE890E00E94520224
:101100001092C6011092C7011092C8011092C90135
:101110008E810E94AD019FB7F8948091CF0110920B
:10112000CF019FBF882371F12A8D3B8D4C8D5D8D42
:10113000C216D306E406F50628F1A701960124524B
:101140003A4F4F4F5F4F2A8F3B8F4C8F5D8F81FF00
:101150005EC0739464E083E890E00E94520285E2EE
:1011600091E00E94DF00872D90E00E94EB0080E27A
:101170000E94DB004AA1842F90E00E94EB008AE0ED
:101180000E94DB000B30110548F40415150529F009
:1011900061E08BE890E00E94520228018E8D9F8DC5
:1011A000A8A1B9A1C816D906EA06FB0608F4F5CC31
:1011B000A701960128513C4F4F4F5F4F2E8F3F8F15
:1011C00048A359A38DEB91E00E94DF00C8010E9463
:1011D000EB003D8189E191E0332311F08AE291E057
:1011E0000E94DF00DACC612CD2CEBFEFBE834DCFA0
:1011F0001092C6011092C7011092C8011092C90145
:101200001E8286CF1092D7011092D801F9CF3AA151
:101210003F5F3AA364E08BE790E00E94520280E2D5
:1012200091E09FCFAA1BBB1B51E107C0AA1FBB1FA8
:10123000A617B70710F0A61BB70B881F991F5A9562
:10124000A9F780959095BC01CD01089597FB072ED5
:1012500016F4009407D077FD09D00E94120907FC0C
:1012600005D03EF4909581959F4F089570956195B6
:101270007F4F0895A1E21A2EAA1BBB1BFD010DC0D2
:10128000AA1FBB1FEE1FFF1FA217B307E407F50736
:1012900020F0A21BB30BE40BF50B661F771F881F12
:1012A000991F1A9469F760957095809590959B01A8
:1012B000AC01BD01CF010895EE0FFF1F0590F49121
:1012C000E02D0994A29FB001B39FC001A39F700DB0
:1012D000811D1124911DB29F700D811D1124911D3E
:1012E0000895E199FECF9FBB8EBBE09A99278DB3FD
:1012F0000895262FE199FECF9FBB8EBBE09A019700
:101300000DB2021631F02DBB0FB6F894E29AE19AB5
:101310000FBE0895F894FFCF7E047E04E003E0033F
:10132000E003E003E003E003E003E003E003E003A5
:10133000E003E003E003E0035104E003E003E00323
:1013400088047604E0035104E00351048404580443
:10135000E003E003E0035104E00358045804E00311
:0C13600051045104E0035104E0037A043E
:10136C0001532164B900B300A9000103053E3C0000
:10137C000A290F0005290F0005290F290C310C3EF5
:10138C000C531E3E08310829081E1E1E031E04465F
:10139C00041E0446041E0446041E0446042306329E
:1013AC0006460A46063206230A2D08000A2D0800B6
:1013BC000A2D082D08000A2D082D084B0A00053CA3
:1013CC000A00052D194C415345522041204F4B0A20
:1013DC00004C41534552204120424C4F434B454415
:1013EC000A004C415345522042204F4B0A004C41BD
:1013FC00534552204220424C4F434B45440A005027
:10140C0031534552564F20004D4F44452043414DDA
:10141C004552410A004D4F444520574149540A005A
:10142C00472041200047204820002043414D0A001E
:10143C0053454C46544553540A004149206D6F7432
:10144C006F72204C4546540A004149206D6F746FF1
:10145C00722052494748540A0041492073657276FC
:10146C006F0A0048554D414E206D6F746F72204CC1
:10147C004546540A0048554D414E206D6F746F72AD
:10148C002052494748540A0048554D414E20736537
:10149C0072766F0A0053454C465445535420646F82
:1014AC006E650A0052454144590A00535441525446
:1014BC00204C4556454C20002031500A0054200049
:0614CC00454E4420000023
:00000001FF
