:100000000C942A000C9439060C9445060C94470075
:100010000C9447000C9447000C9447000C94470044
:100020000C9447000C9447000C94CC040C944700AB
:100030000C9447000C94EF040C9447000C94470078
:100040000C9447000C9447000C9447000C94470014
:100050000C94470011241FBECFE5D8E0DEBFCDBF12
:1000600012E0A0E6B0E0EAEFFDE102C005900D92DB
:10007000A234B107D9F722E0A2E4B2E001C01D9298
:10008000A93CB207E1F70E9451060C94D10E0C94E2
:100090000000CF93DF9300D000D0CDB7DEB78FB78D
:1000A000F8942091C5023091C6024091C702509148
:1000B000C80229833A834B835C838FBF69817A812D
:1000C0008B819C810F900F900F900F90DF91CF91BB
:1000D000089597B1907F8F70982B97B9369A36997B
:1000E000FECF84B195B108959FB7F8945D9B03C08E
:1000F0008CB99FBF08959FBFF7CFCF93DF93EC01DB
:100100008991811103C0DF91CF9108950E947400FD
:10011000F7CFEF92FF921F93CF93DF9300D000D0E1
:1001200000D0CDB7DEB7382F292F10E08AE0E82EB7
:10013000F12C81E090E08C0F9D1F810F911DFC013F
:100140001F5F832F922FB7010E94520E805D808324
:10015000832F922F362F272F0A9758F711110CC093
:1001600026960FB6F894DEBF0FBECDBFDF91CF91BC
:100170001F91FF90EF9008951150E1E0F0E0EC0F37
:10018000FD1FE10FF11D80810E947400E7CF9FB732
:10019000F89480918B0210928B029FBF08958299F0
:1001A0000AC087E091E00E947D00839907C084E245
:1001B00091E00C947D008BEF90E0F5CF88E191E029
:1001C000F8CFCF93DF93D82FC62F85E391E00E941D
:1001D0007D008D2F0E94740080E20E9474008C2F9D
:1001E0000E9474008AE0DF91CF910C9474009F927A
:1001F000AF92BF92CF92DF92EF92FF920F931F9335
:10020000CF93DF93EC01062F69017A0188810E9468
:1002100069005C0189810E9469009C0199249A947B
:100220008EE5A81681E0B80640F0992493948BE8F7
:10023000A81682E0B80608F4912C11E02B3882E071
:10024000380728F42E35314008F010E011958B81E5
:10025000891551F0992041F02FEF62E5921201C00B
:100260006CE4802F0E94E1008C818117C1F1112381
:1002700089F064E4113009F465E5802F0E94E10003
:100280001F3F41F48C8187FD2CC0CF82D886E98640
:10029000FA861E829B821C8386B390E02A8102C06C
:1002A000959587952A95E2F7817099277C0121E041
:1002B000E226892B39F48D81811104C062E4802FFC
:1002C0000E94E100ED82DF91CF911F910F91FF908D
:1002D000EF90DF90CF90BF90AF909F9008951F3F19
:1002E000C9F68E818111D6CF8F819885A985BA856F
:1002F000C81AD90AEA0AFB0A88EEC81683E0D806AB
:10030000E104F10438F281E08E8368E5802F0E94D9
:10031000E100C0CF2FB7F894DD98EDECF0E0319715
:10032000F1F700C0000098E080FF13C0DD9A8695C9
:10033000EDECF0E03197F1F700C000009150A1F72B
:10034000DD9A2FBF8DEC90E00197F1F700C000001F
:100350000895DD98ECCFCF92DF92EF92FF920F934A
:100360001F93CF93DF9300D000D000D0CDB7DEB77E
:100370009FEF998396E09A838B831C827627672769
:1003800076277E836D83CE0101967C016E0197E016
:10039000C90ED11CF70110E000E02191020F111DE0
:1003A000EC15FD05D1F71195019511098EE70E9415
:1003B0008A01F70181917F010E948A01EC14FD04FA
:1003C000C1F7812F0E948A01802F0E948A018FEE3F
:1003D00026960FB6F894DEBF0FBECDBFDF91CF914A
:1003E0001F910F91FF90EF90DF90CF900C948A01B6
:1003F000A898A99A969A089587FF04C0A89AA998E0
:10040000969A089581110C94F80196980895AA98E7
:10041000AB9AAC9A089587FF04C0AA9AAB98AC9A9D
:10042000089581110C940702AC980895462F572F18
:10043000BC018091B3028823C9F08091BD029091E4
:10044000BE02A091BF02B091C002481759076A07C7
:100450007B0760F0809167002AE0829FC001112431
:10046000885A9D4F99BD88BD1092B3028091B40205
:100470008823C9F08091C1029091C202A091C30269
:10048000B091C402481759076A077B0760F0809152
:1004900065002AE0829FC0011124885A9D4F9BBDB0
:1004A0008ABD1092B4020895FF920F931F93CF93C9
:1004B000DF93F82E8A019B01C82FD0E064E0869F6D
:1004C000F0011124DF01AB54BD4F8D919D910D9032
:1004D000BC91A02D081719072A073B0708F465C02F
:1004E000F1101FC07091670060916600862F90E048
:1004F000472F50E0671790F4BA01681B790BCB01C6
:1005000054E0880F991F5A95E1F76AE070E00E9465
:10051000660E615F7F4F4091660021C0841B950B82
:10052000EFCF7091650060916400862F90E0472FB7
:1005300050E0671708F03FC0BA01681B790BCB0188
:1005400044E0880F991F4A95E1F76AE070E00E9445
:10055000660E615F7F4F40916400FF20E1F28AE008
:10056000489FA0011124485A5D4FF11027C059BD82
:1005700048BDCD54DD4F81E08883CB01B0E0A0E0E1
:10058000080F191F2A1F3B1FEF01C354DD4F0883BB
:1005900019832A833B83EB54FD4F800F911FA21FC9
:1005A000B31F80839183A283B383DF91CF911F9187
:1005B0000F91FF900895841B950BC2CF5BBD4ABD80
:1005C000D8CF6F927F928F929F92AF92BF92CF922D
:1005D000DF92EF92FF920F931F93CF93DF93C82F79
:1005E000742E852E962EA72E2FB7F89490E0FC013E
:1005F000E056FD4FD0811082FC01E256FD4FB080E5
:100600001082FC01E456FD4F608010822FBF44E64B
:10061000C42E40E0D42E55E6E52E50E0F52E00E045
:10062000813049F026E6C22E20E0D22E37E6E32EB6
:1006300030E0F32E03E0D11113C0B11017C06110E8
:1006400040C0DF91CF911F910F91FF90EF90DF900D
:10065000CF90BF90AF909F908F907F906F900895B4
:100660002FEF2D0FF7012083BB2021F02FEF2B0D53
:10067000F60120838D549D4FFC01808181110CC0B7
:10068000F7018081FAE08F9FC0011124885A9D4FA5
:10069000C11149C099BD88BD10E0F7016081C80152
:1006A00001960E94C00EF6016081C80102960E9468
:1006B000C00E66EC6C1BC8010E94C00EDB2909F459
:1006C000BECF82E491E0C13011F489E391E00E9451
:1006D0007D00F701808190E00E9489008CE891E024
:1006E0000E947D00F601808190E00E9489008CE9E3
:1006F00091E00E947D00F2E06F12A3CF472D582DAC
:10070000692D7A2D8C2FDF91CF911F910F91FF9042
:10071000EF90DF90CF90BF90AF909F908F907F90A1
:100720006F900C9454029BBD8ABDB6CFCF93DF93DC
:10073000CDB7DEB728970FB6F894DEBF0FBECDBF9A
:100740008091AF029091B002891778F015BC97980C
:100750001092B2021092B10228960FB6F894DEBF42
:100760000FBECDBFDF91CF91089590E0880F991F04
:10077000E091B102F091B202E80FF91F808121816E
:100780002983882319F183BD8CE185BD0E9449002E
:100790006D837E838F8398874981242F30E0AAE080
:1007A000B0E00E94A20EDC01CB012D813E814F8181
:1007B0005885820F931FA41FB51F8093AB0290939F
:1007C000AC02A093AD02B093AE02C6CF15BC979811
:1007D000DDCF9093B2028093B1026093B002109289
:1007E000AF020C949603BF92CF92DF92EF92FF92EA
:1007F0000F931F93CF93DF936B017C018091B10224
:100800009091B202892BA1F08091AB029091AC0241
:10081000A091AD02B091AE02C816D906EA06FB0659
:1008200038F08091AF028F5F8093AF020E949603F1
:1008300080919B02811110C08CEDC81685E0D8060E
:10084000E104F10408F467C081E080939B026EE04C
:1008500070E086E00E94AB018FB7F8946091A2022D
:100860001092A202B090A3021092A3020091A602DD
:100870001091A7021092A7021092A602C091A402A2
:10088000D091A5021092A5021092A4028FBF6623F8
:1008900039F06032E8F56150770B86E00E94AB01D9
:1008A000BB2031F070E060E08FEF8B0D0E94AB0158
:1008B00070E060E086E10130110539F001151105A5
:1008C00031F0B8016150710982E10E94AB0170E022
:1008D00060E085E1C130D10531F0209731F0BE01F3
:1008E0006150710983E10E94AB01B701A60181E06B
:1008F0000E94E102B701A60180E0DF91CF911F9134
:100900000F91FF90EF90DF90CF90BF900C94E10299
:100910006EE170E0C2CFDF91CF911F910F91FF90F8
:10092000EF90DF90CF90BF9008958F929F92AF92FB
:10093000BF92DF92EF92FF92CF93DF9300D000D06F
:10094000CDB7DEB74B015C010E944900860E971EB1
:10095000A81EB91E0E944900681579058A059B05E5
:1009600070F00F900F900F900F90DF91CF91FF904C
:10097000EF90DF90BF90AF909F908F9008950E946E
:1009800049006983D72E7C010E94F30369817D2D84
:10099000C7010E941602DECF1F921FB61F921124BC
:1009A0008F939F93AF93BF938091C5029091C6029E
:1009B000A091C702B091C8020196A11DB11D8093FC
:1009C000C5029093C602A093C702B093C802BF911C
:1009D000AF919F918F911F901FBE1F9018951F92EE
:1009E0000F920FB60F9211242F933F934F935F9363
:1009F0006F937F938F939F93EF93FF938CB190911D
:100A0000AA02911109C0EFECE80FEA32E8F4F0E035
:100A1000ED52F14F0C949C0E90ED980F9A3018F512
:100A20004091A8025091A9029AE0949F9001959F4D
:100A3000300D112420533109280F311D87FD3A95BF
:100A40003093A9022093A802FF91EF919F918F917B
:100A50007F916F915F914F913F912F910F900FBEBA
:100A60000F901F9018958B3359F49091AA029334EC
:100A700069F42091A8023091A9022F5F209391027E
:100A80001092AA028B3309F0BECFDECF9091AA025A
:100A90009F3459F42091A8023091A90291E0232BB0
:100AA00009F092E090939002EBCF9091AA029434D7
:100AB00041F42091A8023091A9022F5F20938F0268
:100AC000DFCF9091AA02993441F42091A80230918D
:100AD000A9022F5F20938E02D3CF9091AA02903566
:100AE00059F42091A8023091A9022F5F3F4F309313
:100AF000A7022093A602C4CF9091AA02913459F480
:100B00002091A8023091A9022F5F3F4F3093A50298
:100B10002093A402B5CF9091AA02963541F420917A
:100B2000A8023091A9022F5F2093A202A9CF909131
:100B3000AA022091A8023091A902983561F42F3FB2
:100B4000310508F09DCF2091A8023091A9022F5FB6
:100B50002093A30295CF253B310508F091CF9091CA
:100B6000AA02983441F42091A8023091A9022F5F83
:100B70002093A10285CF9091AA029A3441F420914A
:100B8000A8023091A9022F5F20939F0279CF909104
:100B9000AA02953541F42091A8023091A9022F5F55
:100BA00020939D026DCF9091AA02913541F420913E
:100BB000A8023091A9022F5F2093A00261CF9091EB
:100BC000AA022091A8023091A9022F5F973519F44B
:100BD00020939E0255CF20939C0252CF8093AA026D
:100BE0001092A9021092A8022FCF8093630091E087
:100BF00003C091E090939A024091C5025091C602C1
:100C00006091C7027091C80240939502509396027A
:100C1000609397027093980221E0209394029923A5
:100C200009F412CF90916200992309F40DCF5D9BD6
:100C30000BCF80628CB908CF91E090939902DCCF02
:100C400080936000D4CF91E090939302D5CF91E050
:100C500090939202D1CF90ED980F9093610090E025
:100C6000CBCF91E090938D02FACF91E090938C02DC
:100C7000F6CF8F938FB78F9380918B028160809393
:100C80008B028F918FBF8F9118958F938FB78F9312
:100C900080918B02826080938B028F918FBF8F91A6
:100CA0001895CDB7DEB7C154D1090FB6F894DEBFA1
:100CB0000FBECDBF81B3806381BB82EA8FBD8AE165
:100CC0008EBD80E29EE497BD86BD83E090E00E94E9
:100CD000B80E863C89F484E090E00E94B80E182F8C
:100CE000853B50F485E090E00E94B80E853B20F4EF
:100CF0001093670080936600809167002AE0829FCE
:100D0000C0011124885A9D4F99BD88BD90E080E0B4
:100D10000E94B80E853C89F481E090E00E94B80EF4
:100D2000182F853B50F482E090E00E94B80E853B7E
:100D300020F41093650080936400809165003AE090
:100D4000839FC0011124885A9D4F9BBD8ABD84B7E3
:100D5000806884BF84BF87B38C7F87BB88B3836080
:100D600088BB8F9A8BE083BF8CE78CBF89B782608A
:100D700089BF84B38F6184BB8E9AD49ADC9A80E455
:100D800087B986E886B9D59ADD9A10BC93E399B9FC
:100D900098E99AB980BD81B3837F81BB82B38C60AF
:100DA00082BB85B78A6085BF80EC8ABF8BB7806CB9
:100DB0008BBF78944FE758E381E04150504080402A
:100DC000E1F700C00000B19B1DC163E083EE90E03D
:100DD0000E94E9030E9449006B017C0198EBC90E57
:100DE0009BE0D91EE11CF11CB12CAA24A39403E0C2
:100DF00010E00E9449006C157D058E059F0508F4E2
:100E0000B1C18A2D90E09C012F5F3F4F3FAF2EAFC5
:100E1000880F991FAC014B505F4F22965FAF4EAFCA
:100E2000229780E00E94FC0180E00E940B02109259
:100E30008C0210928D0211E0C12CD12C76010E94FF
:100E400049006F8B788F898F9A8F6F89788D898D04
:100E50009A8D0E94F3036F89788D898D9A8D0E94F7
:100E600016028F89988DA98DBA8D8C159D05AE05BA
:100E7000BF0560F06C017D0198EEC90E93E0D91EAC
:100E8000E11CF11C88E192E00E947D0090909102AB
:100E90009110AFC180918D02882309F49FC11092F7
:100EA0008D0210916100133029F010916100123011
:100EB00009F011E065E08BEE90E00E94E9036CEB35
:100EC00072E080E090E00E9495048DE292E00E9442
:100ED0007D008EAD9FAD0E94890085E591E01330C5
:100EE00031F08FE591E0123011F48AE591E00E9433
:100EF0007D000E94CF000E9449006F8B788F898F00
:100F00009A8F109242021092430210924402109261
:100F1000450210928C020E94C7001FA6812C1EAAB7
:100F20001FAA18AE19AE31E03DAB41E04BA38FEFE5
:100F30009FEF9CAB8BAB1AAE1BAE1CAE1DAE1BA6BF
:100F40001CA61DA61EA61F8E18A219A21AA21FA2B9
:100F500018A619A61AA6412C512C32010E9449004C
:100F60006B017C01AC019B018F89988DA98DBA8D95
:100F7000281B390B4A0B5B0B2B8F3C8F4D8F5E8FE1
:100F8000CA01B90128EE33E040E050E00E947A0E39
:100F900044EB242E312C221A330A2B8D3C8D4D8D9F
:100FA0005E8D20323F4B4240510538F480918C02D7
:100FB000882309F464C310928C0280E00E94FC0133
:100FC00080E00E940B028DE392E00E947D00882D5C
:100FD00090E00E94890080E20E947400AFA58A2FF1
:100FE00090E00E9489008AE00E94740067E087E830
:100FF00090E00E94E9036CED75E080E090E00E94D3
:1010000095040FCF84EA91E00E947D0061E089EEB3
:1010100090E00E94E90368E572E080E090E00E94C1
:1010200095048EEA91E00E947D008FEF0E94FC0102
:1010300060E971E080E090E00E94950480E00E9409
:10104000FC0160E971E080E090E00E9495048DEB86
:1010500091E00E947D000E94F80160E971E080E06B
:1010600090E00E94950480E00E94FC0163E083EE22
:1010700090E00E94E90360E273E080E090E00E946B
:1010800095048DEC91E00E947D000E944900AB0127
:10109000BC0180E00E94540268E572E080E090E0CC
:1010A0000E94950465E089ED90E00E94E90364E800
:1010B00073E080E090E00E94950487ED91E00E944B
:1010C0007D008FEF0E940B0260E971E080E090E00C
:1010D0000E94950480E00E940B0260E971E080E0CC
:1010E00090E00E94950489EE91E00E947D000E94AC
:1010F000070260E971E080E090E00E94950480E0E2
:101100000E940B0261E089EE90E00E94E90368E52D
:1011100072E080E090E00E9495048CEF91E00E94E4
:101120007D000E944900AB01BC0181E00E94540295
:1011300068E572E080E090E00E9495040E94CF0094
:1011400089E092E00E947D0067E087E890E00E94DD
:10115000E9036CED75E080E090E00E949504B19B9E
:10116000FECF33CE0E9449006F8B788F898F9A8F84
:101170006F89788D898D9A8D0E94F303B19929C06A
:10118000B11037CE8A2D90E00196B8010E94660E0C
:10119000A82EDC01AC57BF4F880F991FFC01E25805
:1011A000FF4F6C91808191810E94E903CF88D88C98
:1011B000E98CFA8CA8EBCA0EABE0DA1EE11CF11C3C
:1011C000EFE5FAEE3197F1F700C00000BB24B394CD
:1011D00010CEB12C0ECE812F182F31CEB199FCCF6D
:1011E0001111F9CFAFE5BAEE1197F1F700C0000089
:1011F00060CE8BE0E8E6F0E0DE011C9601900D92F7
:101200008A95E1F78BE0E3E7F0E09E012F5F3F4F27
:101210007901D90101900D928A95E1F780E00E9451
:10122000FC0180E00E940B020E94C7001092620045
:101230001BA61CA61DA61EA61FA218A619A61AA6A6
:10124000412C512C32011BA21CA21DA21EA21F8ADE
:10125000188E198E1A8E212C31E03F8F41E04B8F72
:1012600000E0EBAAFDAA0E9449006B017C010E94EC
:10127000F303C701B6010E9416023FB7F89420910C
:10128000910210929102909190021092900280919E
:101290008F0210928F0210918E0210928E023FBF29
:1012A000222321F00FEF020F51E05B8F992329F0E9
:1012B000A1E0AB8F913009F01B8E8A3009F0C3C0DA
:1012C00065E085E990E00E94E903112359F1E12FDF
:1012D000E150FF0BCF016AE070E00E94660E462FDE
:1012E00028EE33E0DC010E94B10E6FA778AB89AB2A
:1012F0009AAB4B015C018C0C9D1CAE1CBF1C413099
:1013000041F08BA29CA2ADA2BEA28F88988CA98C22
:10131000BA8C68E08DEB90E00E94E9038F8A988E8A
:10132000A98EBA8E2FB7F89480919502909196026B
:10133000A0919702B09198022FBF812C912C54015B
:10134000C816D906EA06FB0630F046015701881A8E
:10135000990AAA0ABB0A11E0FCED8F16F5E09F0678
:10136000A104B10408F010E02F8D121779F08DEC74
:1013700090E03CED831635E09306A104B10410F42F
:1013800083ED90E061E00E94E9031F8F4B8D312CCB
:10139000411106C081E05F8D511101C080E0382EFF
:1013A000A701960161E3CE010C960E94F700A70108
:1013B000960162E38BA99DA90E94F7008989882381
:1013C00009F45AC08E81882309F456C0411451048F
:1013D0006104710409F455C0211011C0D701C60180
:1013E00084199509A609B709883B9B40A105B10559
:1013F00030F08FE192E00E947D002224239433207C
:1014000009F4AFC02F89388D498D5A8DC216D30685
:10141000E406F50608F4A5C00330B1F5809160003C
:101420001FEF823431F08091600011E08E3409F0BA
:1014300010E030E9831631E09306A104B10408F40A
:101440004FC010E04DC0813021F461E08FE990E0A1
:101450003ACF883021F464E08BEA90E034CF8930D1
:1014600021F464E083EA90E02ECF882309F42DCFA5
:1014700061E081EA90E027CF212C412C512C3201F0
:10148000BECF26013701BBCF1F858889181694F47B
:101490008091B9029091BA02A091BB02B091BC02B6
:1014A000C816D906EA06FB0628F0B701A60181E0B6
:1014B0000E9454020430E9F4111112C040E984166C
:1014C00041E09406A104B10458F4809160001FEF3C
:1014D000823431F08091600011E08E3409F0B1CF98
:1014E00080919302882329F0B701A60181E00E9430
:1014F00054021092920210929302812F0E940B02CA
:10150000332009F4B7C08BA19CA1ADA1BEA1C81620
:10151000D906EA06FB0608F4ADC0023011F004302B
:1015200011F51C818D8118162CF4B701A60180E0FD
:101530000E945402043091F5111127C090E98916D8
:1015400091E09906A104B10400F5809163001FEFBA
:101550008C34D9F08091630011E08235B1F010E055
:1015600014C010E0C6CF809163001FEF8C3431F0BF
:101570008091630011E0823509F010E0A0E98A163D
:10158000A1E09A06A104B10450F780919A02882341
:1015900029F0B701A60180E00E945402109299023E
:1015A00010929A02812F0E94FC018091B1029091C9
:1015B000B202892BD1F42F89388D498D5A8D62E082
:1015C00087EB90E0C216D306E406F50660F08BA127
:1015D0009CA1ADA1BEA1C816D906EA06FB0628F457
:1015E00062E083EB90E00E94E9030E94C700882339
:1015F00041F1332031F1043021F12BA53CA54DA55B
:101600005EA5C216D306E406F506D8F0A70196013A
:1016100024523A4F4F4F5F4F2BA73CA74DA75EA7D1
:10162000182F127081FD28C083EA90E061E00E94CB
:10163000E90380E591E0112311F08BE491E00E9431
:101640007D008FA198A5A9A5BAA5C816D906EA0656
:10165000FB0608F408CEA701960128513C4F4F4FD6
:101660005F4F2FA338A749A75AA785E292E00E94AF
:101670007D00F9CD10E092CF8BEA90E0D7CFC70183
:10168000B6010E94F303C701B6010E9416022FB7EC
:10169000F8948091950290919602A0919702B09152
:1016A00098022FBFC816D906EA06FB0608F496C1B1
:1016B000A7019601281B390B4A0B5B0B2B8F3C8F24
:1016C0004D8F5E8F80919402882351F001E08B8DC5
:1016D0009C8DAD8DBE8D8C3D9540A105B10508F06A
:1016E00000E00915C9F0123009F483C18DEC90E0D7
:1016F000002311F083ED90E061E00E94E90384E6AD
:1017000091E0011106C08EE791E0113011F481E7FC
:1017100091E00E947D00902E133009F06BC1C4143B
:10172000D504E604F70408F45EC1992009F45BC10E
:10173000809160000FEF823431F08091600001E011
:101740008E3409F000E02B8D3C8D4D8D5E8D20395F
:1017500031404105510508F000E080919302882353
:1017600039F010929302B701A60181E00E94540261
:1017700080919202882321F1109292022F8D38A13C
:1017800049A15AA1C216D306E406F506C8F0D7014E
:10179000C6018854944FAF4FBF4F8FA398A7A9A7F6
:1017A000BAA7A70196012856354C4F4F5F4F2F8F90
:1017B00038A349A35AA368E08DEB90E00E94E903A7
:1017C000802F0E940B028091460290914702A091C7
:1017D0004802B0914902C816D906EA06FB06C8F0CD
:1017E000D701C6010A96A11DB11D809346029093B0
:1017F0004702A0934802B093490280914A0290E0C8
:10180000FC01E55BFD4F008301968F739927809360
:101810004A028FA198A5A9A5BAA5C816D906EA06B5
:10182000FB0608F427C2123009F089C180E00E944B
:1018300069005C0182E00E9469009C010FEF9EE557
:10184000A91691E0B90638F001E0ABE8AA16A2E0CB
:10185000BA0608F400E02B38324028F0B701A601A0
:1018600080E00E94540286B38095E82FE170BE2E7E
:1018700080FF23C0FDA9F11120C02BA53CA54DA5DB
:101880005EA5C216D306E406F506B8F026013701B8
:1018900038EB430E3BE0531E611C711CD701C6019F
:1018A0008856954CAF4FBF4F8BA79CA7ADA7BEA73F
:1018B00068E08DEB90E00E94E9031092990210928B
:1018C0009A02BDAA802F0E94FC018091B1029091E2
:1018D000B202892BB1F462E087EB90E0C414D50426
:1018E000E604F70460F02FA138A549A55AA5C21651
:1018F000D306E406F50628F462E083EB90E00E944C
:10190000E9030E94C700882371F12EA93FA948ADC1
:1019100059ADC216D306E406F50628F1A7019601D3
:1019200024523A4F4F4F5F4F2EAB3FAB48AF59AFAA
:1019300081FFA5C1839464E08BEA90E00E94E903F3
:101940008EE891E00E947D00882D90E00E94890041
:1019500080E20E9474004FA5842F90E00E948900CD
:101960008AE00E9474005BE02516310460F48BA9C4
:101970009CA92816390629F061E08BEB90E00E94C3
:10198000E9033CAA2BAA2AAD3BAD4CAD5DADC21616
:10199000D306E406F50608F4E1CAD701C60188516A
:1019A0009C4FAF4FBF4F8AAF9BAFACAFBDAF8AE389
:1019B00092E00E947D00C1010E94890089E991E0C6
:1019C000123049F0133009F065C182E891E09920A6
:1019D00011F085E591E00E947D00C0CA1B8E1C8E2F
:1019E0001D8E1E8E6FCE109292021092930200E016
:1019F000E7CE902EC414D504E604F704C0F381E0CA
:101A00000E9469005C0183E00E9469009C010FEF65
:101A10004EE5A41641E0B40638F001E05BE8A516F7
:101A200052E0B50608F400E02B38324008F455C007
:101A30008091B9029091BA02A091BB02B091BC0210
:101A4000C816D906EA06FB0608F447C0B701A60186
:101A500081E00E9454028091420290914302A09141
:101A60004402B0914502892B8A2B8B2BB1F5509102
:101A7000650040916400842F90E0252F30E04517E9
:101A800008F055C0D901A81BB90BCD0124E0880F7F
:101A9000991F2A95E1F76AE070E00E94660ECB017B
:101AA0000F96880F991F63E070E00E94660E9B01FD
:101AB000770F440B550BC701B6016A5D7D4F8F4F01
:101AC0009F4F620F731F841F951F60934202709394
:101AD00043028093440290934502B1992BC0BBA16D
:101AE000B1116ECE2F8D38A149A15AA1C216D306CD
:101AF000E406F50608F1D701C6018854944FAF4FAC
:101B0000BF4F8FA398A7A9A7BAA7A70196012856E8
:101B1000354C4F4F5F4F2F8F38A349A35AA368E02E
:101B20008DEB90E00E94E90331E03BA349CE821B9C
:101B3000930BACCF1BA244CE41E04BA341CE9920E6
:101B400009F44FC0809163000FEF8C3431F0809125
:101B5000630001E0823509F000E02B8D3C8D4D8D56
:101B60005E8D203931404105510508F000E080913B
:101B70009A02882339F010929A02B701A60180E0F8
:101B80000E94540280919902882311F110929902C7
:101B90002BA53CA54DA55EA5C216D306E406F50609
:101BA000B8F02601370138EB430E3BE0531E611CB1
:101BB000711CD701C6018856954CAF4FBF4F8BA7FC
:101BC0009CA7ADA7BEA768E08DEB90E00E94E9035B
:101BD0001092420210924302109244021092450267
:101BE00071CE133051F410924202109243021092BF
:101BF00044021092450200E065CE80914A02282FEF
:101C000030E0215C3F4F2296AEADBFAD22978D9163
:101C10009C916AE070E00E94520EC901861B9109F6
:101C200060E470E00E94660EFC01FF27E55BFD4F5B
:101C300000818091420290914302A0914402B091B0
:101C400045020097A105B10509F43CCEC816D90696
:101C5000EA06FB0608F436CE1092420210924302C6
:101C60001092440210924502B701A60180E00E9442
:101C7000540228CE1092990210929A02BCCF3FA52E
:101C80003F5F3FA764E083EA90E00E94E90389E8B0
:101C900091E058CE8EE991E0992009F49CCE83E939
:101CA00091E099CEAA1BBB1B51E107C0AA1FBB1F25
:101CB000A617B70710F0A61BB70B881F991F5A95D8
:101CC000A9F780959095BC01CD01089597FB072E4B
:101CD00016F4009407D077FD09D00E94520E07FC3D
:101CE00005D03EF4909581959F4F0895709561952C
:101CF0007F4F0895A1E21A2EAA1BBB1BFD010DC048
:101D0000AA1FBB1FEE1FFF1FA217B307E407F507AB
:101D100020F0A21BB30BE40BF50B661F771F881F87
:101D2000991F1A9469F760957095809590959B011D
:101D3000AC01BD01CF010895EE0FFF1F0590F49196
:101D4000E02D0994A29FB001B39FC001A39F700D25
:101D5000811D1124911DB29F700D811D1124911DB3
:101D600008950E94A20EB7FF0895821B930B089559
:101D7000E199FECF9FBB8EBBE09A99278DB3089562
:101D8000262FE199FECF9FBB8EBBE09A01970DB243
:101D9000021631F02DBB0FB6F894E29AE19A0FBE0D
:101DA0000895F894FFCF2B062B062B062405240557
:101DB00024052405240524052405240524052405DB
:101DC000240524052405EE052006EE05EE0535065E
:101DD000F9052306EE05EE05EE053106F5052006AC
:101DE0002006EE05EE05EE05F505F505EE05EE051A
:0A1DF000EE05EE05EE0527061C06C1
:101DFA004D0101533861145701030100000100002D
:101E0A000000000002000000010000000000E900DC
:101E1A00E300D9000103053E3C000A290F00052909
:101E2A000F0005290F190800041908000419191EC2
:101E3A00462D0F290C310C3E0C531E3E0831082941
:101E4A00081E1E230A0008460A00081E031E04462E
:101E5A00041E0446041E0446041E044604230632D5
:101E6A0006460A46063206230A2D08000A2D0800ED
:101E7A000A2D082D08000A2D082D084B0A00053CDA
:101E8A000A00052D192C01B40050004C415345524B
:101E9A002041204F4B0A004C4153455220412042D9
:101EAA004C4F434B45440A004C4153455220422073
:101EBA004F4B0A004C41534552204220424C4F435B
:101ECA004B45440A00494E20005031534552564F63
:101EDA0020005032534552564F20004720480A00EE
:101EEA004720410A002041490A002032500A0020B6
:101EFA0031500A004D4F44452043414D4552410A55
:101F0A00004D4F4445204D4952524F520A004D4F01
:101F1A00444520574149540A0047204120004720A0
:101F2A004820002043414D0A002050320A00204D2B
:101F3A0049520A0053454C46544553540A004149F4
:101F4A00206D6F746F72204C4546540A0041492037
:101F5A006D6F746F722052494748540A00414920F4
:101F6A00736572766F0A0048554D414E206D6F7445
:101F7A006F72204C4546540A0048554D414E206D1B
:101F8A006F746F722052494748540A0048554D41B0
:101F9A004E20736572766F0A0053454C465445537A
:101FAA005420646F6E650A0052454144590A00493B
:101FBA004E20500A0053435245454E0A005354419D
:101FCA005254204C4556454C2000542000454E445E
:021FDA002000E5
:00000001FF
