:100000000C942A000C94C4030C94D0030C94470065
:100010000C9447000C9447000C9447000C94470044
:100020000C9447000C9447000C94F4020C94470085
:100030000C9447000C9417030C9447000C94470051
:100040000C9447000C9447000C9447000C94470014
:100050000C94470011241FBECFE5D8E0DEBFCDBF12
:1000600011E0A0E6B0E0EEE3F2E102C005900D92EF
:10007000A23DB107D9F722E0A2EDB1E001C01D9287
:10008000AC34B207E1F70E94DC030C9403090C9432
:100090000000CF93DF9300D000D0CDB7DEB78FB78D
:1000A000F894209148023091490240914A025091BF
:1000B0004B0229833A834B835C838FBF69817A81AA
:1000C0008B819C810F900F900F900F90DF91CF91BB
:1000D0000895462F572FBC0180913602882399F04E
:1000E0008091400290914102A0914202B09143025E
:1000F000481759076A077B0730F08EEB95E099BDEA
:1001000088BD1092360280913702882399F0809141
:10011000440290914502A0914602B09147024817CF
:1001200059076A077B0730F08CED95E09BBD8ABDCF
:1001300010923702089597B1907F982B97B9369A0D
:100140003699FECF84B195B108955D9BFECF8CB9F1
:100150000895CF93DF93EC018991811103C0DF9162
:10016000CF9108950E94A500F7CFEF92FF921F93C1
:10017000CF93DF9300D000D000D0CDB7DEB7382FBB
:10018000292F10E08AE0E82EF12C81E090E08C0F1E
:100190009D1F810F911DFC011F5F832F922FB701BF
:1001A0000E94A408805D8083832F922F362F272FF3
:1001B0000A9758F711110CC026960FB6F894DEBFB7
:1001C0000FBECDBFDF91CF911F91FF90EF900895AB
:1001D0001150E1E0F0E0EC0FFD1FE10FF11D808117
:1001E0000E94A500E7CF82990AC085ED90E00E94A9
:1001F000A900839907C082EF90E00C94A90089ECD4
:1002000090E0F5CF86EE90E0F8CF2FB7F894DD9828
:10021000EFECF0E03197F1F700C0000098E080FFCC
:1002200013C0DD9A8695EFECF0E03197F1F700C04E
:1002300000009150A1F7DD9A2FBF8FEC90E001975D
:10024000F1F700C000000895DD98ECCFCF92DF9267
:10025000EF92FF920F931F93CF93DF9300D000D0C4
:1002600000D0CDB7DEB79FEF998396E09A838B835A
:100270001C827627672776277E836D83CE010196C1
:100280007C016E0197E0C90ED11CF70110E000E07F
:100290002191020F111DEC15FD05D1F71195019566
:1002A00011098EE70E940501F70181917F010E94EB
:1002B0000501EC14FD04C1F7812F0E940501802F78
:1002C0000E9405018FEE26960FB6F894DEBF0FBE92
:1002D000CDBFDF91CF911F910F91FF90EF90DF90F5
:1002E000CF900C940501A898A99A969A089587FF33
:1002F00004C0A89AA998969A089581110C94730144
:1003000096980895AA98AB9AAC9A08958F3F21F4D5
:10031000AA9AAB98AC9A089581110C948201AC987A
:100320000895CF92DF92EF92FF920F931F938A016D
:100330009B01682F70E094E0899FA0011124FA01CD
:10034000E85CFD4FC080D180E280F3800C151D0574
:100350002E053F0560F1882339F082E593E09BBDCF
:100360008ABD87E790E006C080E293E099BD88BD32
:100370008AE790E06A5C7D4FE1E0DB01EC93B0E05E
:10038000A0E0080F191F2A1F3B1FFA01E05CFD4F78
:100390000083118322833383485C5D4F800F911F5C
:1003A000A21FB31FFA0180839183A283B3831F919D
:1003B0000F91FF90EF90DF90CF900895CF93DF9350
:1003C000CDB7DEB728970FB6F894DEBF0FBECDBF0E
:1003D0008091320290913302891778F015BC97987A
:1003E000109235021092340228960FB6F894DEBFB0
:1003F0000FBECDBFDF91CF91089590E0880F991F78
:10040000E0913402F0913502E80FF91F80812181DB
:100410002983882319F183BD8CE185BD0E944900A1
:100420006D837E838F8398874981242F30E0AAE0F3
:10043000B0E00E94F408DC01CB012D813E814F81A8
:100440005885820F931FA41FB51F80932E0290938F
:100450002F02A0933002B0933102C6CF15BC9798FB
:10046000DDCF909335028093340260933302109273
:1004700032020C94DE01CF92DF92EF92FF926B0179
:100480007C018091340290913502892BA1F08091FA
:100490002E0290912F02A0913002B0913102C81625
:1004A000D906EA06FB0638F0809132028F5F80930E
:1004B00032020E94DE0180912502811110C08CED74
:1004C000C81685E0D806E104F10408F451C081E0C3
:1004D000809325026AE170E086E00E9426018FB7D2
:1004E000F8946091260210922602C0902902D090C2
:1004F0002A0210922A0210922902E0902702F0901C
:10050000280210922802109227028FBF662339F02A
:100510006032D8F46150770B86E00E94260181E0BA
:10052000C816D104A9F470E060E086E10E942601BB
:1005300081E0E816F104A1F470E060E085E1FF904D
:10054000EF90DF90CF900C9426016EE170E0E4CF45
:10055000C114D10469F3B6016150710982E1E6CF9B
:10056000E114F10429F0B7016150710983E1E7CF8B
:10057000FF90EF90DF90CF9008958F929F92AF926F
:10058000BF92DF92EF92FF92CF93DF9300D000D023
:10059000CDB7DEB74B015C010E944900860E971E65
:1005A000A81EB91E0E944900681579058A059B0599
:1005B00070F00F900F900F900F90DF91CF91FF9000
:1005C000EF90DF90BF90AF909F908F9008950E9422
:1005D00049006983D72E7C010E943B0269817D2DF1
:1005E000C7010E946900DECF1F921FB61F9211241F
:1005F0008F939F93AF93BF9380914802909149024C
:10060000A0914A02B0914B020196A11DB11D8093A9
:10061000480290934902A0934A02B0934B02BF91C3
:10062000AF919F918F911F901FBE1F9018951F92A1
:100630000F920FB60F9211242F933F934F935F9316
:100640006F937F938F939F93EF93FF938CB19091D0
:100650002D02911122C0833368F4813378F090ED3C
:10066000980F9093600090E064C0F0E0EB5FF64F6D
:100670000C94EE08EFEBE80FEA31B8F3FF91EF913D
:100680009F918F917F916F915F914F913F912F91AA
:100690000F900FBE0F901F90189590ED980F9A3005
:1006A000A8F440912B0250912C029AE0949F900163
:1006B000959F300D112420533109280F311D87FDDE
:1006C0003A9530932C0220932B02D8CF8B3371F4C0
:1006D00090912D02903581F420912B0230912C02C3
:1006E0002F5F3F4F30932A022093290210922D0250
:1006F0008B3309F0B0CFC2CF90912D0220912B0205
:1007000030912C02913439F42F5F3F4F30932802FF
:1007100020932702EBCF2F5F20932602E7CF809311
:100720002D0210922C0210922B02A8CF8093610010
:1007300091E0409148025091490260914A027091C3
:100740004B0240931F02509320026093210270934A
:10075000220221E020931E02992309F48FCF5D9B92
:100760008DCF80628CB98ACF91E090932402E1CF43
:1007700091E090932302DDCF91E090931D0273CF1F
:1007800091E090931C026FCF8F938FB78F938091DE
:100790001B02816080931B028F918FBF8F911895F0
:1007A0008F938FB78F9380911B02826080931B027F
:1007B0008F918FBF8F911895CDB7DEB7A7970FB6E2
:1007C000F894DEBF0FBECDBF81B3806381BB82EAE8
:1007D0008FBD8AE18EBD80E29EE497BD86BD8EEB23
:1007E00095E099BD88BD8CED95E09BBD8ABD84B731
:1007F000806884BF84BF87B38C7F87BB88B38360E6
:1008000088BB8F9A8BE083BF8CE78CBF89B78260EF
:1008100089BF84B38F6184BB8E9AD49ADC9A80E4BA
:1008200087B986E886B9D59ADD9A10BC93E399B961
:1008300098E99AB980BD81B3837F81BB82B38C6014
:1008400082BB85B78A6085BF80EC8ABF8BB7806C1E
:100850008BBF78942FE738E341E02150304040408F
:10086000E1F700C00000B19B1DC163E081EB90E0A7
:100870000E9431020E9449006B017C0158EBC50EB9
:100880005BE0D51EE11CF11C10E001E00E94490074
:1008900069837A838B839C83802F90E0FC0131965F
:1008A000FBA3EAA329813A814B815C812C153D058C
:1008B0004E055F0508F4A6C1880F991FAC014D5382
:1008C0005F4F5DA34CA380E00E94770180E00E940F
:1008D000860110921C0210921D0251E05D83C12C12
:1008E000D12C76010E94490069837A838B839C8393
:1008F00069817A818B819C810E943B0269817A8126
:100900008B819C810E94690089819A81AB81BC8125
:100910008C159D05AE05BF0560F06C017D0198EE5C
:10092000C90E93E0D91EE11CF11C86EB91E00E94F8
:10093000A90080911D02882309F49FC110921D0215
:10094000A0916000AEA3A23011F0B1E0BEA365E0BB
:1009500089EB90E00E9431026CEB72E080E090E065
:100960000E94BD028DEB91E00E94A9008AA19BA18B
:100970000E94B500AEA188E091E0A23011F483E0BE
:1009800091E00E94A9000E94F3000E94490069833F
:100990007A838B839C831092D2011092D3011092A0
:1009A000D4011092D50110921C028FB7F894909147
:1009B0001B0210921B028FBF1A8E1B8E1C8E1D8E67
:1009C0001E821D82B1E0B98F11E01FA2EFEFFFEF91
:1009D000F88BEF871E8E1F8E18A219A2412C512C66
:1009E00032011D8A1E8A1F8A188E1B861C861D8650
:1009F0001E861F82188619861A860E9449006B017E
:100A00007C01AC019B0189819A81AB81BC81281B4F
:100A1000390B4A0B5B0B298B3A8B4B8B5C8BCA01D6
:100A2000B90128EE33E040E050E00E94CC0884EBAE
:100A3000282E312C221A330A29893A894B895C895C
:100A400020323F4B4240510538F480911C028823EC
:100A500009F421C110921C0280E00E94770180E01D
:100A60000E9486018DEC91E00E94A900BD818B2F30
:100A700090E00E94B50080E20E94A500EE818E2FDA
:100A800090E00E94B5008AE00E94A50067E08BE636
:100A900090E00E9431026CED75E080E090E00E94F1
:100AA000BD0211CF82E491E00E94A90061E087EBD2
:100AB00090E00E94310268E572E080E090E00E94E0
:100AC000BD028CE491E00E94A9008FEF0E947701A3
:100AD00060E971E080E090E00E94BD0280E00E9449
:100AE000770160E971E080E090E00E94BD028BE553
:100AF00091E00E94A9000E94730160E971E080E02A
:100B000090E00E94BD0280E00E94770163E081EBEB
:100B100090E00E94310260E273E080E090E00E9489
:100B2000BD028BE691E00E94A9000E944900AB0142
:100B3000BC0180E00E94910168E572E080E090E0F5
:100B40000E94BD0265E087EA90E00E94310264E8FD
:100B500073E080E090E00E94BD0285E791E00E9492
:100B6000A9008FEF0E94860160E971E080E090E0CB
:100B70000E94BD0280E00E94860160E971E080E091
:100B800090E00E94BD0287E891E00E94A9000E94C7
:100B9000820160E971E080E090E00E94BD0280E0A7
:100BA0000E94860161E087EB90E00E94310268E5D7
:100BB00072E080E090E00E94BD028AE991E00E942C
:100BC000A9000E944900AB01BC0181E00E94910193
:100BD00068E572E080E090E00E94BD020E94F300B0
:100BE00087EA91E00E94A90067E08BE690E00E940E
:100BF00031026CED75E080E090E00E94BD02B19B97
:100C0000FECF33CE0E94490069837A838B839C8315
:100C100069817A818B819C810E943B02B19928C0B5
:100C2000111134CE8AA19BA163E070E00E94B80844
:100C3000082FDC01A859BF4F880F991FFC01EE59FE
:100C4000FF4F6C91808191810E943102C980DA80CE
:100C5000EB80FC8088EBC80E8BE0D81EE11CF11CF9
:100C6000AFE5BAEE1197F1F700C0000011E00ECE2B
:100C700010E00CCE8D818D8335CEB199FCCFED8106
:100C8000E111F8CF8FE59AEE0197F1F700C000006F
:100C900091E09EA35CCEC701B6010E943B02C70152
:100CA000B6010E9469002F81388549855A8500E088
:100CB000C216D306E406F50608F46DC081E00E9472
:100CC0009B005C0183E00E949B009C010FEF4EE5BE
:100CD000A41641E0B40638F001E05BE8A51652E046
:100CE000B50608F400E02B38324060F180913C02F8
:100CF00090913D02A0913E02B0913F02C816D906E4
:100D0000EA06FB06F8F0B701A60181E00E94910116
:100D10008091D2019091D301A091D401B091D501DD
:100D2000892B8A2B8B2B71F4D701C6018B589D4FD1
:100D3000AF4FBF4F8093D2019093D301A093D401C2
:100D4000B093D501B19926C0111125C02D893E89D6
:100D50004F89588DC216D306E406F506C8F0D701B0
:100D6000C6018854944FAF4FBF4F8B879C87AD8788
:100D7000BE87A70196012856354C4F4F5F4F2D8BEC
:100D80003E8B4F8B588F68E08BE890E00E943102D9
:100D900011E001C010E0802F0E9486018091D601F1
:100DA0009091D701A091D801B091D901C816D90668
:100DB000EA06FB06C8F0D701C6010A96A11DB11DBF
:100DC0008093D6019093D701A093D801B093D90115
:100DD0008091DA0190E0FC01E552FE4F008301961C
:100DE0008F7399278093DA012FB7F89480911F02AF
:100DF00090912002A0912102B09122022FBF812C5C
:100E0000912C5401C816D906EA06FB0630F04601BB
:100E10005701881A990AAA0ABB0A80911E028823E0
:100E200041F001E03CED831635E09306A104B104E6
:100E300008F000E04FA1041731F15EA1513011F527
:100E40008BE990E0002311F081EA90E061E00E94DC
:100E500031028AE191E0002311F08DE091E00E94DF
:100E6000A9008B859C85AD85BE850FA3C816D906C4
:100E7000EA06FB0608F0D1C0109223021092240269
:100E800000E056C00FA32B853C854D855E85C216BC
:100E9000D306E406F50680F33EA1323009F0BDC06A
:100EA00080E00E949B005C0182E00E949B009C010C
:100EB0000FEF4EE5A41641E0B40638F001E05BE820
:100EC000A51652E0B50608F400E02B38324028F0B1
:100ED000B701A60180E00E94910186B38095982F0A
:100EE0009170B92E80FF1FC0A98DA1111CC0C41420
:100EF000D504E604F704B8F0A70196012854344F4E
:100F00004F4F5F4F2F83388749875A872601370114
:100F100038E9430E3AE3531E611C711C68E08BE80C
:100F200090E00E9431021092230210922402B98EA6
:100F3000802F0E9477019FB7F89480911B02109236
:100F40001B029FBF882389F12A8D3B8D4C8D5D8DBF
:100F5000C216D306E406F50640F1A7019601245215
:100F60003A4F4F4F5F4F2A8F3B8F4C8F5D8F81FFE2
:100F7000DBC03D813F5F3D8364E081E890E00E94FB
:100F8000310287E291E00E94A9005D81852F90E007
:100F90000E94B50080E20E94A500AE818A2F90E0F9
:100FA0000E94B5008AE00E94A500BBE02B16310428
:100FB00060F4EF85F8892E163F0629F061E089E894
:100FC00090E00E943102388A2F862E8D3F8D48A1F5
:100FD00059A1C216D306E406F50608F40ECDD701D2
:100FE000C60188519C4FAF4FBF4F8E8F9F8FA8A3D4
:100FF000B9A38AEC91E00E94A900C1010E94B5004A
:101000009EA1923009F49BC0AFA18CE391E0AA238A
:1010100009F497C086E391E094C04FA1442309F4FA
:1010200049C0809161000FEF8C3431F080916100F4
:1010300001E0823509F000E050E9851651E095069F
:10104000A104B10408F000E080912402882339F063
:1010500010922402B701A60180E00E9491018091C4
:1010600023028823F1F010922302C414D504E6046D
:10107000F704B8F0D701C6018854944FAF4FBF4F63
:101080008F839887A987BA872601370198E9490E87
:101090009AE3591E611C711C68E08BE890E00E9485
:1010A00031021092D2011092D3011092D401109209
:1010B000D5013ECF2091DA0130E0215C3F4FACA159
:1010C000BDA18D919C916AE070E00E94A408C901C5
:1010D000861B910960E470E00E94B808FC01FF27BC
:1010E000E552FE4F00818091D2019091D301A091F1
:1010F000D401B091D5010097A105B10509F418CF2D
:10110000C816D906EA06FB0608F412CF1092D201DF
:101110001092D3011092D4011092D501B701A6010B
:1011200080E00E94910104CF4E814F5F4E8364E0C6
:1011300089E790E00E9431028CE291E024CF81E3C4
:1011400091E00E94A90059CCAA1BBB1B51E107C02A
:10115000AA1FBB1FA617B70710F0A61BB70B881F47
:10116000991F5A95A9F780959095BC01CD010895D6
:1011700097FB072E16F4009407D077FD09D00E9444
:10118000A40807FC05D03EF4909581959F4F0895E3
:10119000709561957F4F0895A1E21A2EAA1BBB1B83
:1011A000FD010DC0AA1FBB1FEE1FFF1FA217B30733
:1011B000E407F50720F0A21BB30BE40BF50B661F49
:1011C000771F881F991F1A9469F76095709580950D
:1011D00090959B01AC01BD01CF010895EE0FFF1F5B
:1011E0000590F491E02D0994A29FB001B39FC00136
:1011F000A39F700D811D1124911DB29F700D811D43
:101200001124911D0895F894FFCF8F033E033E03F0
:101210003E03C003B4033E033E033E033E03BC0350
:1012200096033E033E033E038F033E03960396035D
:0E1230003E033E038F033E033E033E03B8031E
:10123E000153B700B100A7000103053E3C000A2987
:10124E000F0005290F0005290F290C310C3E0C53F8
:10125E001E3E08310829081E1E1E031E0446041ECB
:10126E000446041E0446041E0446042306320646A3
:10127E000A46063206230A2D08000A2D08000A2DFA
:10128E00082D08000A2D082D084B0A00053C0A00FF
:10129E00052D192C01B40050004C415345522041EC
:1012AE00204F4B0A004C41534552204120424C4F97
:1012BE00434B45440A004C415345522042204F4B6C
:1012CE000A004C41534552204220424C4F434B455D
:1012DE00440A002032500A002031500A004D4F447B
:1012EE00452043414D4552410A004D4F4445204D46
:1012FE004952524F520A00472048200047204120B1
:10130E00002050320A002043414D0A00204D495220
:10131E000A0053454C46544553540A004149206D2A
:10132E006F746F72204C4546540A004149206D6F10
:10133E00746F722052494748540A00414920736520
:10134E0072766F0A0048554D414E206D6F746F7264
:10135E00204C4546540A0048554D414E206D6F7441
:10136E006F722052494748540A0048554D414E204D
:10137E00736572766F0A0053454C4654455354209C
:10138E00646F6E650A0052454144590A0053544138
:10139E005254204C4556454C2000542000454E4496
:0213AE0020001D
:00000001FF
