:100000000C942A000C94A2020C94AE020C944700AB
:100010000C9447000C9447000C9447000C94470044
:100020000C9447000C9447000C9422020C94470057
:100030000C9447000C9445020C9447000C94470024
:100040000C9447000C9447000C9447000C94470014
:100050000C94470011241FBECFE5D8E0DEBFCDBF12
:1000600011E0A0E6B0E0EEE5FEE002C005900D92E2
:10007000AA3BB107D9F721E0AAEBB1E001C01D927C
:10008000AB3EB207E1F70E94BA020C942D070C9424
:100090000000CF93DF9300D000D0CDB7DEB78FB78D
:1000A000F8942091E7013091E8014091E9015091E5
:1000B000EA0129833A834B835C838FBF69817A810C
:1000C0008B819C810F900F900F900F90DF91CF91BB
:1000D0000895462F572FBC018091D501882399F0B0
:1000E0008091DF019091E001A091E101B091E201E6
:1000F000481759076A077B0730F08EEB95E099BDEA
:1001000088BD1092D5018091D601882399F0809105
:10011000E3019091E401A091E501B091E601481757
:1001200059076A077B0730F08CED95E09BBD8ABDCF
:100130001092D601089597B1907F982B97B9369A6F
:100140003699FECF84B195B108955D9BFECF8CB9F1
:100150000895CF93DF93EC018991811103C0DF9162
:10016000CF9108950E94A500F7CFEF92FF921F93C1
:10017000CF93DF9300D000D000D0CDB7DEB7382FBB
:10018000292F10E08AE0E82EF12C81E090E08C0F1E
:100190009D1F810F911DFC011F5F832F922FB701BF
:1001A0000E94D406805D8083832F922F362F272FC5
:1001B0000A9758F711110CC026960FB6F894DEBFB7
:1001C0000FBECDBFDF91CF911F91FF90EF900895AB
:1001D0001150E1E0F0E0EC0FFD1FE10FF11D808117
:1001E0000E94A500E7CF82990AC08FEC90E00E94A0
:1001F000A900839907C08CEE90E00C94A90083ECD1
:1002000090E0F5CF80EE90E0F8CFA898A99A969A62
:1002100008958F3F21F4A89AA998969A089581117C
:100220000C94050196980895AA98AB9AAC9A0895F3
:100230008F3F21F4AA9AAB98AC9A089581110C943F
:100240001401AC980895CF92DF92EF92FF920F9332
:100250001F938A019B01682F70E094E0899FA001A1
:100260001124FA01E952FE4FC080D180E280F38070
:100270000C151D052E053F0560F1882339F082E538
:1002800093E09BBD8ABD87E790E006C080E293E0E3
:1002900099BD88BD8AE790E06B527E4FE1E0DB01BB
:1002A000EC93B0E0A0E0080F191F2A1F3B1FFA01D2
:1002B000E152FE4F008311832283338349525E4F04
:1002C000800F911FA21FB31FFA0180839183A28325
:1002D000B3831F910F91FF90EF90DF90CF9008951F
:1002E000CF93DF93CDB7DEB728970FB6F894DEBF74
:1002F0000FBECDBF8091D1019091D201891778F0C6
:1003000015BC97981092D4011092D30128960FB67D
:10031000F894DEBF0FBECDBFDF91CF91089590E07E
:10032000880F991FE091D301F091D401E80FF91FD4
:10033000808121812983882319F183BD8CE185BDCA
:100340000E9449006D837E838F8398874981242F83
:1003500030E0AAE0B0E00E941E07DC01CB012D8155
:100360003E814F815885820F931FA41FB51F809334
:10037000CD019093CE01A093CF01B093D001C6CF11
:1003800015BC9798DDCF9093D4018093D3016093EF
:10039000D2011092D1010C947001462F572FBC014D
:1003A0008091D3019091D401892BA1F08091CD014E
:1003B0009091CE01A091CF01B091D001481759077B
:1003C0006A077B0738F08091D1018F5F8093D1015C
:1003D0000C94700108958F929F92AF92BF92DF921A
:1003E000EF92FF92CF93DF9300D000D0CDB7DEB76E
:1003F0004B015C010E944900860E971EA81EB91E83
:100400000E944900681579058A059B0570F00F90D8
:100410000F900F900F90DF91CF91FF90EF90DF90B2
:10042000BF90AF909F908F9008950E94490069837C
:10043000D72E7C010E94CD0169817D2DC7010E94CC
:100440006900DECF1F921FB61F9211248F939F93D6
:10045000AF93BF938091E7019091E801A091E901EA
:10046000B091EA010196A11DB11D8093E70190931F
:10047000E801A093E901B093EA01BF91AF919F9188
:100480008F911F901FBE1F9018952F932FB72F93FA
:100490004F935F936F937F938F939F938CB18B3424
:1004A00009F448C0C0F4853409F448C070F49FECE6
:1004B000980F9230C8F19F918F917F916F915F91CA
:1004C0004F912F912FBF2F9118958634A1F791E06E
:1004D0009093CC0109C0843508F5823510F48C3432
:1004E00051F78093610091E04091E7015091E8015C
:1004F0006091E9017091EA014093C7015093C801EE
:100500006093C9017093CA0121E02093C601992329
:1005100091F25D9BD0CF80628CB9CDCF8A3559F6F0
:1005200091E09093CB01E0CF90ED980F9093600015
:1005300090E0DACF91E09093C501FACF91E09093EB
:10054000C401F6CF8F938FB78F938091C3018160E1
:100550008093C3018F918FBF8F9118958F938FB721
:100560008F938091C30182608093C3018F918FBF6D
:100570008F911895CDB7DEB7A2970FB6F894DEBF6E
:100580000FBECDBF81B3806381BB82EA8FBD8AE19C
:100590008EBD80E29EE497BD86BD8EEB95E099BD51
:1005A00088BD8CED95E09BBD8ABD84B7806884BF13
:1005B00084BF87B38C7F87BB88B3836088BB8F9AE7
:1005C0008BE083BF8CE78CBF89B7826089BF84B31F
:1005D0008F6184BB8E9AD49ADC9A80E487B986E8CE
:1005E00086B910BC93E399B998E99AB980BD81B3F3
:1005F000837F81BB82B38C6082BB85B78A6085BFF5
:1006000080EC8ABF8BB7806C8BBF78942FE738E380
:1006100041E0215030404040E1F700C00000B19B74
:10062000FDC063E081EB90E00E94C3010E9449009D
:100630006B017C0158EBC50E5BE0D51EE11CF11C83
:1006400010E001E00E944900202E312CBFEF2B1A50
:100650003B0A6C157D058E059F0508F48FC180E06F
:100660000E94090180E00E9418011092C4011092BA
:10067000C50121E02D83C12CD12C76010E944900B7
:1006800069837A838B839C8369817A818B819C8146
:100690000E94CD0169817A818B819C810E946900D1
:1006A00089819A81AB81BC818C159D05AE05BF0502
:1006B00060F06C017D0198EEC90E93E0D91EE11C3B
:1006C000F11C89E991E00E94A9008091C50188236D
:1006D00009F48EC11092C50165E089EB90E00E949B
:1006E000C3016CEB72E080E090E00E94EB0180EAD5
:1006F00091E00E94A900C1010E94B5008DEA91E03D
:100700000E94A9000E94F3000E94490069837A8335
:100710008B839C831092BA011092BB011092BC0192
:100720001092BD011092C4018FB7F8949091C3014B
:100730001092C3018FBF1A8E1B8E1C8E1D8E1AA2A3
:10074000712C662463941D8244244A94542C1E8E7A
:100750001F8E18A219A21E8A1F8A188E198E1E8635
:100760001F86188A198A1A8A1B8A1C8A1D8A1A8669
:100770001B861C861D860E9449006B017C01AC0112
:100780009B0189819A81AB81BC81281B390B4A0B63
:100790005B0B2E833F8348875987CA01B90128EE36
:1007A00033E040E050E00E94FC0604EB10E0021B46
:1007B000130B2E813F814885598520323F4B4240A3
:1007C000510538F48091C401882309F41DC11092A9
:1007D000C40180E00E94090180E00E94180185EBBD
:1007E00091E00E94A900872D90E00E94B50080E270
:1007F0000E94A5004AA1842F90E00E94B5008AE0E3
:100800000E94A50067E08BE690E00E94C3016CEDBA
:1008100075E080E090E00E94EB0121CF85E291E05D
:100820000E94A90061E087EB90E00E94C30168E5A7
:1008300072E080E090E00E94EB018FE291E00E9484
:10084000A9008FEF0E94090160E971E080E090E06B
:100850000E94EB0180E00E94090160E971E080E004
:1008600090E00E94EB018EE391E00E94A9000E94BB
:10087000050160E971E080E090E00E94EB0180E01A
:100880000E94090163E081EB90E00E94C30160E2F5
:1008900073E080E090E00E94EB018EE491E00E9422
:1008A000A9000E944900AB01BC0180E00E94230125
:1008B00068E572E080E090E00E94EB0165E087EA85
:1008C00090E00E94C30164E873E080E090E00E9441
:1008D000EB0188E591E00E94A9008FEF0E941801CA
:1008E00060E971E080E090E00E94EB0180E00E940E
:1008F000180160E971E080E090E00E94EB018AE677
:1009000091E00E94A9000E94140160E971E080E07A
:1009100090E00E94EB0180E00E94180161E087EB0B
:1009200090E00E94C30168E572E080E090E00E94E0
:10093000EB018DE791E00E94A9000E944900AB0104
:10094000BC0181E00E94230168E572E080E090E054
:100950000E94EB010E94F3008AE891E00E94A90046
:1009600067E08BE690E00E94C3016CED75E080E0EB
:1009700090E00E94EB01B19BFECF53CE0E94490054
:1009800069837A838B839C8369817A818B819C8143
:100990000E94CD01B19927C0111154CEC10163E06D
:1009A00070E00E94E806082FDC01A859BF4F880FAD
:1009B000991FFC01EE59FF4F6C91808191810E943B
:1009C000C301C980DA80EB80FC8088EBC80E8BE025
:1009D000D81EE11CF11CAFE5BAEE1197F1F700C08B
:1009E000000011E02FCE10E02DCE8D818D8346CEFC
:1009F000B199FCCFAD81A111F8CF8FE59AEE0197A7
:100A0000F1F700C0000068CEC701B6010E94CD0119
:100A1000C701B6010E9469002A853B854C855D852A
:100A2000C216D306E406F50608F471C081E00E9400
:100A30009B005C0183E00E949B009C014EE5A41694
:100A400041E0B40608F460C051E05E838BE8A8166C
:100A500082E0B80608F41E822B38324060F18091A3
:100A6000DB019091DC01A091DD01B091DE01C8169F
:100A7000D906EA06FB06F8F0B701A60181E00E945C
:100A800023018091BA019091BB01A091BC01B0916A
:100A9000BD01892B8A2B8B2B71F4D701C6018B5892
:100AA0009D4FAF4FBF4F8093BA019093BB01A0936E
:100AB000BC01B093BD01B19955C1611029C02E850B
:100AC0003F8548895989C216D306E406F506C8F061
:100AD000D701C6018854944FAF4FBF4F8A8B9B8B71
:100AE000AC8BBD8BA70196012856354C4F4F5F4FFD
:100AF0002E873F87488B598B68E08BE890E00E94F7
:100B0000C3016624639404C09FEF9E83A5CF1E8219
:100B10008E810E9418018091BE019091BF01A09129
:100B2000C001B091C101C816D906EA06FB06A8F0BB
:100B3000D701C6010A96A11DB11D8093BE019093F5
:100B4000BF01A093C001B093C1018091C20190E0A8
:100B500001968F7399278093C2012FB7F8948091E3
:100B6000C7019091C801A091C901B091CA012FBFDE
:100B7000812C912C5401C816D906EA06FB0630F0E8
:100B800046015701881A990AAA0ABB0A8091C60130
:100B9000882349F031E03E834CED841645E094060D
:100BA000A104B10408F01E825E818D81581791F076
:100BB0008BE990E0552311F081EA90E061E00E941A
:100BC000C3019E819111D0C08AE091E00E94A900EA
:100BD000AE81AD832A893B894C895D89C216D306D3
:100BE000E406F50608F4D0C03D81332309F4C2C001
:100BF000809161008C3409F4BAC08091610041E0B9
:100C00004E83823509F01E8280E9881681E09806BD
:100C1000A104B10408F01E828091CC01882339F030
:100C20001092CC01B701A60180E00E9423018091BF
:100C3000CB01882321F11092CB012E893F89488D69
:100C4000598DC216D306E406F506C8F0D701C601D1
:100C50008854944FAF4FBF4F8A879B87AC87BD871F
:100C6000A70196012856354C4F4F5F4F2E8B3F8B77
:100C7000488F598F68E08BE890E00E94C301109282
:100C8000BA011092BB011092BC011092BD018E817D
:100C90000E9409019FB7F8948091C3011092C3018B
:100CA0009FBF882371F12A8D3B8D4C8D5D8DC216BF
:100CB000D306E406F50628F1A701960124523A4F1F
:100CC0004F4F5F4F2A8F3B8F4C8F5D8F81FF61C0ED
:100CD000739464E081E890E00E94C3018AE191E0AE
:100CE0000E94A900872D90E00E94B50080E20E943A
:100CF000A5004AA1842F90E00E94B5008AE00E94DE
:100D0000A5000B30110548F40415150529F061E024
:100D100089E890E00E94C30128018E8D9F8DA8A1D3
:100D2000B9A1C816D906EA06FB0608F424CDA70126
:100D3000960128513C4F4F4F5F4F2E8F3F8F48A356
:100D400059A382EB91E00E94A900C8010E94B5005E
:100D50003D818EE091E0332311F08FE191E00E941C
:100D6000A90009CD612CD4CE8DEF90E02FCF5FEF9D
:100D70005E834ACF1092BA011092BB011092BC015F
:100D80001092BD011E8283CF1092CB011092CC0134
:100D9000F9CF3AA13F5F3AA364E089E790E00E946F
:100DA000C30185E191E09CCFAA1BBB1B51E107C0A9
:100DB000AA1FBB1FA617B70710F0A61BB70B881FEB
:100DC000991F5A95A9F780959095BC01CD0108957A
:100DD00097FB072E16F4009407D077FD09D00E94E8
:100DE000D40607FC05D03EF4909581959F4F089559
:100DF000709561957F4F0895A1E21A2EAA1BBB1B27
:100E0000FD010DC0AA1FBB1FEE1FFF1FA217B307D6
:100E1000E407F50720F0A21BB30BE40BF50B661FEC
:100E2000771F881F991F1A9469F7609570958095B0
:100E300090959B01AC01BD01CF010895A29FB00127
:100E4000B39FC001A39F700D811D1124911DB29FFE
:0E0E5000700D811D1124911D0895F894FFCF9F
:100E5E000153B700B100A7000103053E3C000A296B
:100E6E000F0005290F0005290F290C310C3E0C53DC
:100E7E001E3E08310829081E1E1E031E0446041EAF
:100E8E000446041E0446041E044604230632064687
:100E9E000A46063206230A2D08000A2D08000A2DDE
:100EAE00082D08000A2D082D084B0A00053C0A00E3
:100EBE00052D194C415345522041204F4B0A004CF1
:100ECE0041534552204120424C4F434B45440A006A
:100EDE004C415345522042204F4B0A004C41534542
:100EEE0052204220424C4F434B45440A004D4F4442
:100EFE00452043414D4552410A004D4F4445205730
:100F0E004149540A00472041200047204820002034
:100F1E0043414D0A0053454C46544553540A004133
:100F2E0049206D6F746F72204C4546540A0041493A
:100F3E00206D6F746F722052494748540A00414920
:100F4E0020736572766F0A0048554D414E206D6FC5
:100F5E00746F72204C4546540A0048554D414E2040
:100F6E006D6F746F722052494748540A0048554DB0
:100F7E00414E20736572766F0A0053454C465445B8
:100F8E00535420646F6E650A0052454144590A005D
:100F9E005354415254204C4556454C20002031505C
:0A0FAE000A00542000454E442000C4
:00000001FF
