:100000000C942A000C9448050C9454050C94470059
:100010000C9447000C9447000C9447000C94470044
:100020000C9447000C9447000C9415040C94470062
:100030000C9447000C9438040C9447000C9447002F
:100040000C9447000C9447000C9447000C94470014
:100050000C94470011241FBECFE5D8E0DEBFCDBF12
:1000600012E0A0E6B0E0E8EAF7E102C005900D92E8
:10007000A230B107D9F722E0A2E0B2E001C01D92A0
:10008000A538B207E1F70E9460050C94A80B0C9408
:100090000000CF93DF9300D000D0CDB7DEB78FB78D
:1000A000F894209181023091820240918302509114
:1000B000840229833A834B835C838FBF69817A8171
:1000C0008B819C810F900F900F900F90DF91CF91BB
:1000D000089597B1907F982B97B9369A3699FECFAD
:1000E00084B195B108955D9BFECF8CB90895CF93EF
:1000F000DF93EC018991811103C0DF91CF910895C5
:100100000E947300F7CFEF92FF921F93CF93DF937C
:1001100000D000D000D0CDB7DEB7382F292F10E0A7
:100120008AE0E82EF12C81E090E08C0F9D1F810F7A
:10013000911DFC011F5F832F922FB7010E94300B8E
:10014000805D8083832F922F362F272F0A9758F7B1
:1001500011110CC026960FB6F894DEBF0FBECDBFAE
:10016000DF91CF911F91FF90EF9008951150E1E042
:10017000F0E0EC0FFD1FE10FF11D80810E94730084
:10018000E7CF82990AC082EE90E00E9477008399BF
:1001900007C08FEF90E00C94770086ED90E0F5CFEC
:1001A00083EF90E0F8CF2FB7F894DD98EDECF0E016
:1001B0003197F1F700C0000098E080FF13C0DD9A8E
:1001C0008695EDECF0E03197F1F700C0000091501A
:1001D000A1F7DD9A2FBF8DEC90E00197F1F700C0F9
:1001E00000000895DD98ECCFCF92DF92EF92FF925E
:1001F0000F931F93CF93DF9300D000D000D0CDB7E3
:10020000DEB79FEF998396E09A838B831C827627D3
:10021000672776277E836D83CE0101967C016E0170
:1002200097E0C90ED11CF70110E000E02191020F08
:10023000111DEC15FD05D1F71195019511098EE7FA
:100240000E94D300F70181917F010E94D300EC143A
:10025000FD04C1F7812F0E94D300802F0E94D3009C
:100260008FEE26960FB6F894DEBF0FBECDBFDF919E
:10027000CF911F910F91FF90EF90DF90CF900C9452
:10028000D300A898A99A969A089587FF04C0A89ABF
:10029000A998969A089581110C9441019698089511
:1002A000AA98AB9AAC9A08958F3F21F4AA9AAB987A
:1002B000AC9A089581110C945001AC980895462F82
:1002C000572FBC0180916F028823C9F08091790279
:1002D00090917A02A0917B02B0917C024817590755
:1002E0006A077B0760F0809166002AE0829FC00168
:1002F0001124885A9D4F99BD88BD10926F0280913C
:1003000070028823C9F080917D0290917E02A091B5
:100310007F02B0918002481759076A077B0760F097
:10032000809164002AE0829FC0011124885A9D4F69
:100330009BBD8ABD109270020895FF920F931F9388
:10034000CF93DF93F82E8A019B01C82FD0E064E0A1
:10035000869FF0011124DF01AF58BD4F8D919D9113
:100360000D90BC91A02D081719072A073B0708F428
:1003700065C0F1101FC07091660060916500862F06
:1003800090E0472F50E0671790F4BA01681B790B93
:10039000CB0154E0880F991F5A95E1F76AE070E0AD
:1003A0000E94440B615F7F4F4091650021C0841B18
:1003B000950BEFCF7091640060916300862F90E001
:1003C000472F50E0671708F03FC0BA01681B790B50
:1003D000CB0144E0880F991F4A95E1F76AE070E08D
:1003E0000E94440B615F7F4F40916300FF20E1F268
:1003F0008AE0489FA0011124485A5D4FF11027C0A0
:1004000059BD48BDC159DD4F81E08883CB01B0E0C3
:10041000A0E0080F191F2A1F3B1FEF01C758DD4F2F
:10042000088319832A833B83EF58FD4F800F911F68
:10043000A21FB31F80839183A283B383DF91CF91E7
:100440001F910F91FF900895841B950BC2CF5BBD48
:100450004ABDD8CF6F927F928F929F92AF92BF92F8
:10046000CF92DF92EF92FF920F931F93CF93DF9380
:10047000C82F742E852E962EA72E2FB7F89490E0B5
:10048000FC01E45AFD4FD0811082FC01E65AFD4F79
:10049000B0801082FC01E85AFD4F608010822FBFAF
:1004A00043E6C42E40E0D42E54E6E52E50E0F52E6F
:1004B00000E0813049F025E6C22E20E0D22E36E65B
:1004C000E32E30E0F32E03E0D11113C0B11017C0BA
:1004D000611040C0DF91CF911F910F91FF90EF907D
:1004E000DF90CF90BF90AF909F908F907F906F9054
:1004F00008952FEF2D0FF7012083BB2021F02FEF60
:100500002B0DF601208381599D4FFC0180818111C3
:100510000CC0F7018081FAE08F9FC0011124885A36
:100520009D4FC11149C099BD88BD10E0F7016081A0
:10053000C80101960E94970BF6016081C8010296DE
:100540000E94970B66EC6C1BC8010E94970BDB297D
:1005500009F4BECF89E191E0C13011F480E191E06E
:100560000E947700F701808190E00E9483008EE571
:1005700091E00E947700F601808190E00E94830064
:1005800089E691E00E947700F2E06F12A3CF472D39
:10059000582D692D7A2D8C2FDF91CF911F910F91BE
:1005A000FF90EF90DF90CF90BF90AF909F908F9093
:1005B0007F906F900C949D019BBD8ABDB6CFCF9369
:1005C000DF93CDB7DEB728970FB6F894DEBF0FBE26
:1005D000CDBF80916B0290916C02891778F015BCA9
:1005E000979810926E0210926D0228960FB6F894AA
:1005F000DEBF0FBECDBFDF91CF91089590E0880F91
:10060000991FE0916D02F0916E02E80FF91F808151
:1006100021812983882319F183BD8CE185BD0E9446
:1006200049006D837E838F8398874981242F30E032
:10063000AAE0B0E00E94800BDC01CB012D813E815D
:100640004F815885820F931FA41FB51F80936702A7
:1006500090936802A0936902B0936A02C6CF15BC5A
:100660009798DDCF90936E0280936D0260936C0239
:1006700010926B020C94DF02BF92CF92DF92EF9246
:10068000FF920F931F93CF93DF936B017C018091B7
:100690006D0290916E02892BA1F08091670290917A
:1006A0006802A0916902B0916A02C816D906EA06EA
:1006B000FB0638F080916B028F5F80936B020E9483
:1006C000DF0280915702811110C08CEDC81685E0C1
:1006D000D806E104F10408F467C081E08093570272
:1006E0006EE070E086E00E94F4008FB7F8946091AD
:1006F0005E0210925E02B0905F0210925F02009163
:100700006202109163021092630210926202C09121
:100710006002D091610210926102109260028FBF5C
:10072000662339F06032E8F56150770B86E00E946D
:10073000F400BB2031F070E060E08FEF8B0D0E9481
:10074000F40070E060E086E10130110539F0011538
:10075000110531F0B8016150710982E10E94F40085
:1007600070E060E085E1C130D10531F0209731F0D3
:10077000BE016150710983E10E94F400B701A60136
:1007800081E00E942A02B701A60180E0DF91CF91AB
:100790001F910F91FF90EF90DF90CF90BF900C943E
:1007A0002A026EE170E0C2CFDF91CF911F910F91CD
:1007B000FF90EF90DF90CF90BF9008958F929F921F
:1007C000AF92BF92DF92EF92FF92CF93DF9300D070
:1007D00000D0CDB7DEB74B015C010E944900860E08
:1007E000971EA81EB91E0E944900681579058A0542
:1007F0009B0570F00F900F900F900F90DF91CF91AD
:10080000FF90EF90DF90BF90AF909F908F900895F2
:100810000E9449006983D72E7C010E943C036981B4
:100820007D2DC7010E945F01DECF1F921FB61F9270
:1008300011248F939F93AF93BF93809181029091E6
:100840008202A0918302B09184020196A11DB11D84
:100850008093810290938202A0938302B0938402DA
:10086000BF91AF919F918F911F901FBE1F901895C0
:100870001F920F920FB60F9211242F933F934F9315
:100880005F936F937F938F939F93EF93FF938CB1BD
:1008900090916602911109C0EFECE80FEA32E8F49A
:1008A000F0E0E655F44F0C947A0B90ED980F9A30E7
:1008B00018F540916402509165029AE0949F90016E
:1008C000959F300D112420533109280F311D87FDCC
:1008D0003A953093650220936402FF91EF919F91C6
:1008E0008F917F916F915F914F913F912F910F90D9
:1008F0000FBE0F901F9018958B3371F49091660284
:10090000903581F420916402309165022F5F3F4F52
:100910003093630220936202109266028B3309F0D7
:10092000BBCFDBCF90916602913459F420916402E1
:10093000309165022F5F3F4F309361022093600238
:10094000EBCF90916602963541F42091640230918C
:1009500065022F5F20935E02DFCF909166022091A7
:10096000640230916502983559F42F3F3105A0F6A5
:1009700020916402309165022F5F20935F02CCCFFB
:10098000253B310548F690916602983441F4209158
:100990006402309165022F5F20935D02BDCF90917C
:1009A00066029A3441F420916402309165022F5F0F
:1009B00020935B02B1CF90916602953541F420916E
:1009C0006402309165022F5F20935902A5CF909168
:1009D0006602913541F420916402309165022F5FE7
:1009E00020935C0299CF909166022091640230912D
:1009F00065022F5F973519F420935A028DCF20930B
:100A000058028ACF809366021092650210926402A7
:100A100064CF8093620091E003C091E0909356020E
:100A20004091810250918202609183027091840210
:100A300040935102509352026093530270935402B8
:100A400021E020935002992309F447CF5D9B45CFC5
:100A500080628CB942CF91E090935502E1CF8093B0
:100A60006000D9CF91E090934F02DACF91E090935C
:100A70004E02D6CF90ED980F9093610090E0D0CFCA
:100A800091E090934D02FACF91E090934C02F6CF13
:100A90008F938FB78F9380914B02816080934B022D
:100AA0008F918FBF8F9118958F938FB78F93809170
:100AB0004B02826080934B028F918FBF8F9118956C
:100AC000CDB7DEB7A7970FB6F894DEBF0FBECDBF88
:100AD00081B3806381BB82EA8FBD8AE18EBD80E2F3
:100AE0009EE497BD86BD83E090E00E948F0B863C1C
:100AF00091F484E090E00E948F0B8983853B58F449
:100B000085E090E00E948F0B853B28F4298120939B
:100B1000660080936500809166003AE0839FC00183
:100B20001124885A9D4F99BD88BD90E080E00E94B5
:100B30008F0B853C91F481E090E00E948F0B8983BC
:100B4000853B58F482E090E00E948F0B853B28F4AF
:100B500049814093640080936300809164005AE06F
:100B6000859FC0011124885A9D4F9BBD8ABD84B7C3
:100B7000806884BF84BF87B38C7F87BB88B3836062
:100B800088BB8F9A8BE083BF8CE78CBF89B782606C
:100B900089BF84B38F6184BB8E9AD49ADC9A80E437
:100BA00087B986E886B9D59ADD9A10BC93E399B9DE
:100BB00098E99AB980BD81B3837F81BB82B38C6091
:100BC00082BB85B78A6085BF80EC8ABF8BB7806C9B
:100BD0008BBF78948FE798E3A1E081509040A040CC
:100BE000E1F700C00000B19B23C163E08EEB90E011
:100BF0000E9432030E9449006B017C01B8EBCB0ECE
:100C0000BBE0DB1EE11CF11C10E001E00E9449008A
:100C100069837A838B839C83802F90E0DC0111961B
:100C2000BCA3ABA329813A814B815C812C153D0586
:100C30004E055F0508F4ACC1880F991FAC01405305
:100C40005F4F5EA34DA380E00E94450180E00E94BB
:100C5000540110924C0210924D0251E05D83C12C60
:100C6000D12C76010E94490069837A838B839C830F
:100C700069817A818B819C810E943C0369817A81A0
:100C80008B819C810E945F0189819A81AB81BC81AB
:100C90008C159D05AE05BF0560F06C017D0198EED9
:100CA000C90E93E0D91EE11CF11C85EE91E00E9473
:100CB000770080914D02882309F4A5C110924D025E
:100CC00010916100133029F010916100123009F089
:100CD00011E065E086EC90E00E9432036CEB72E07C
:100CE00080E090E00E94DE038CEE91E00E947700AD
:100CF0008BA19CA10E94830082E291E0133031F02D
:100D00008CE291E0123011F487E291E00E947700CA
:100D10000E94C1000E94490069837A838B839C836F
:100D20001092020210920302109204021092050225
:100D300010924C028FB7F89490914B0210924B0294
:100D40008FBF1B8E1C8E1D8E1E8E1F8A1E8AF1E089
:100D5000FA8F21E02D8700E04FEF5FEF598F488F2A
:100D60001F8E18A219A21AA21A8A1B8A1C8A1D8A0F
:100D700019861A861B861C861E861F86188A198A63
:100D8000812C912C54010E9449006B017C01DC01F3
:100D9000CB0129813A814B815C81821B930BA40B8F
:100DA000B50B8D839E83AF83B887BC01CD0128EE40
:100DB00033E040E050E00E94580B44EB242E312CED
:100DC000221A330A8D819E81AF81B88580329F4B74
:100DD000A240B10538F480914C02882309F41FC168
:100DE00010924C0280E00E94450180E00E94540174
:100DF0008CEF91E00E947700AE898A2F90E00E94EC
:100E0000830080E20E947300BF898B2F90E00E94D4
:100E100083008AE00E94730067E080E790E00E9410
:100E200032036CED75E080E090E00E94DE030BCFB2
:100E300081E791E00E94770061E084EC90E00E94FD
:100E4000320368E572E080E090E00E94DE038BE709
:100E500091E00E9477008FEF0E94450160E971E008
:100E600080E090E00E94DE0380E00E94450160E99E
:100E700071E080E090E00E94DE038AE891E00E9449
:100E800077000E94410160E971E080E090E00E94FB
:100E9000DE0380E00E94450163E08EEB90E00E945B
:100EA000320360E273E080E090E00E94DE038AE9B2
:100EB00091E00E9477000E944900AB01BC0180E0F4
:100EC0000E949D0168E572E080E090E00E94DE03F0
:100ED00065E084EB90E00E94320364E873E080E018
:100EE00090E00E94DE0384EA91E00E9477008FEF99
:100EF0000E94540160E971E080E090E00E94DE030E
:100F000080E00E94540160E971E080E090E00E947E
:100F1000DE0386EB91E00E9477000E94500160E9B9
:100F200071E080E090E00E94DE0380E00E945401C6
:100F300061E084EC90E00E94320368E572E080E0BA
:100F400090E00E94DE0389EC91E00E9477000E940D
:100F50004900AB01BC0181E00E949D0168E572E09F
:100F600080E090E00E94DE030E94C10086ED91E0E7
:100F70000E94770067E080E790E00E9432036CED0A
:100F800075E080E090E00E94DE03B19BFECF2DCEA5
:100F90000E94490069837A838B839C8369817A816B
:100FA0008B819C810E943C03B19928C011112ECEE7
:100FB0008BA19CA163E070E00E94440B082FDC0130
:100FC000A359BF4F880F991FFC01E959FF4F6C913E
:100FD000808191810E943203C980DA80EB80FC809D
:100FE000E8EBCE0EEBE0DE1EE11CF11C8FE59AEE85
:100FF0000197F1F700C0000011E008CE10E006CE26
:101000008D818D832FCEB199FCCFAD81A111F8CF09
:10101000EFE5FAEE3197F1F700C0000059CEC701B5
:10102000B6010E943C03C701B6010E945F012FB7C1
:10103000F8948091510290915202A0915302B09184
:1010400054022FBF412C512C3201C816D906EA0692
:10105000FB0630F026013701481A590A6A0A7B0A52
:1010600080915002882349F0F1E0FD832CED421677
:1010700025E052066104710408F01D823D8130179D
:10108000D1F0123009F48CC188EA90E0332311F0DA
:101090008EEA90E061E00E9432034D8181E391E0AD
:1010A000411106C08BE491E0113011F48EE391E020
:1010B0000E9477000D81133009F073C1C814D90460
:1010C000EA04FB0408F466C1002309F463C18091BB
:1010D0006000823409F45BC18091600051E05FA33D
:1010E0008E3409F01FA290E9491691E05906610477
:1010F000710408F01FA280914F02882339F01092EA
:101100004F02B701A60181E00E949D0180914E022D
:10111000882321F110924E0229853A854B855C8502
:10112000C216D306E406F506C8F0D701C6018854F6
:10113000944FAF4FBF4F8E879F87A88BB98BA70166
:1011400096012856354C4F4F5F4F29873A874B877A
:101150005C8768E088E990E00E9432038FA10E94DA
:1011600054018091060290910702A0910802B0916B
:101170000902C816D906EA06FB06D0F0D701C60157
:101180000A96A11DB11D8093060290930702A093B9
:101190000802B093090280910A0290E0FC01E55F29
:1011A000FD4FBFA1B08301968F73992780930A02E8
:1011B0002E853F8548895989C216D306E406F5066F
:1011C00008F436C2123009F098C180E00E9469002C
:1011D0003C0182E00E9469009C014EE5641641E0FA
:1011E000740608F487C151E05D838BE8681682E0DD
:1011F000780608F41D822B38324028F0B701A6018A
:1012000080E00E949D0186B38095B82FB170BFA386
:1012100080FF23C0EA8DE11120C02A893B894C89D7
:101220005D89C216D306E406F506B8F046015701FB
:1012300038EB830E3BE0931EA11CB11CD701C60105
:101240008856954CAF4FBF4F8A8B9B8BAC8BBD8B19
:1012500068E088E990E00E943203109255021092F3
:1012600056029FA19A8F8D810E94450180916D0247
:1012700090916E02892BB1F462E082E990E0C8148B
:10128000D904EA04FB0460F02E853F85488959891A
:10129000C216D306E406F50628F462E08EE890E074
:1012A0000E9432039FB7F89480914B0210924B0238
:1012B0009FBF882389F12B8D3C8D4D8D5E8DC2168D
:1012C000D306E406F50640F1A701960124523A4FF1
:1012D0004F4F5F4F2B8F3C8F4D8F5E8F81FFADC186
:1012E0003E893F5F3E8B64E086E890E00E943203D7
:1012F00086E591E00E9477005E89852F90E00E944C
:10130000830080E20E947300AF898A2F90E00E94E0
:1013100083008AE00E947300BBE02B16310460F466
:10132000E88DF98D2E163F0629F061E086E990E000
:101330000E943203398E288E2F8D38A149A15AA1DF
:10134000C216D306E406F50608F41DCDD701C60182
:1013500088519C4FAF4FBF4F8F8F98A3A9A3BAA3BB
:1013600089EF91E00E947700C1010E94830086E628
:1013700091E0123049F0133009F06AC18FE491E036
:10138000002311F082E291E00E947700FCCC8FEF05
:101390008FA3A9CE10924E0210924F021FA2DECE52
:1013A0000D81C814D904EA04FB04C0F381E00E9453
:1013B00069008D839E8383E00E9469009C014D81BA
:1013C0005E814E3581E0580708F489C091E09FA303
:1013D0004B38524008F41FA22B38324008F455C055
:1013E0008091750290917602A0917702B091780277
:1013F000C816D906EA06FB0608F447C0B701A601DD
:1014000081E00E949D018091020290910302A091CF
:101410000402B0910502892B8A2B8B2BB1F55091D8
:10142000640040916300842F90E0252F30E0451741
:1014300008F058C0A901481B590BCA0124E0880FC5
:10144000991F2A95E1F76AE070E00E94440BCB01F6
:101450000F96880F991F63E070E00E94440B9B0178
:10146000770F440B550BC701B6016A5D7D4F8F4F57
:101470009F4F620F731F841F951F6093020270932A
:1014800003028093040290930502B1992EC05D85FA
:10149000511164CE89859A85AB85BC85C816D9065D
:1014A000EA06FB0620F1A70196012854344F4F4F5E
:1014B0005F4F2E873F87488B598BD701C6018856CF
:1014C000954CAF4FBF4F89879A87AB87BC8768E041
:1014D00088E990E00E94320391E09D873FCEBFEF04
:1014E000BFA37ACF821B930BA9CF1D8637CEA1E075
:1014F000AD8734CE9FEF9D837ECE002309F451C08B
:10150000809162008C3409F449C080916200A1E0AE
:10151000AD83823509F01D82E0E94E16E1E05E06FA
:101520006104710408F01D8280915602882339F00D
:1015300010925602B701A60180E00E949D018091A1
:101540005502882311F1109255022A893B894C8952
:101550005D89C216D306E406F506B8F046015701C8
:1015600038EB830E3BE0931EA11CB11CD701C601D2
:101570008856954CAF4FBF4F8A8B9B8BAC8BBD8BE6
:1015800068E088E990E00E94320310920202109213
:101590000302109204021092050265CEBFEFBD83D4
:1015A000BBCF133051F4109202021092030210923A
:1015B0000402109205021D8256CE20910A0230E0EC
:1015C000215C3F4FADA1BEA18D919C916AE070E07E
:1015D0000E94300BC901861B910960E470E00E94F3
:1015E000440BFC01FF27E55FFD4FB081BD83809177
:1015F000020290910302A0910402B09105020097AB
:10160000A105B10509F42FCEC816D906EA06FB06D6
:1016100008F429CE109202021092030210920402E2
:1016200010920502B701A60180E00E949D011BCE29
:101630001092550210925602BECF4F894F5F4F8BCA
:1016400064E08EE790E00E9432038BE591E052CE99
:101650008BE691E0002309F497CE80E691E094CEEA
:10166000AA1BBB1B51E107C0AA1FBB1FA617B707C8
:1016700010F0A61BB70B881F991F5A95A9F78095E4
:101680009095BC01CD01089597FB072E16F40094A8
:1016900007D077FD09D00E94300B07FC05D03EF43F
:1016A000909581959F4F0895709561957F4F08950E
:1016B000A1E21A2EAA1BBB1BFD010DC0AA1FBB1F56
:1016C000EE1FFF1FA217B307E407F50720F0A21BC8
:1016D000B30BE40BF50B661F771F881F991F1A9435
:1016E00069F760957095809590959B01AC01BD015F
:1016F000CF010895EE0FFF1F0590F491E02D09949E
:10170000A29FB001B39FC001A39F700D811D112442
:10171000911DB29F700D811D1124911D0895E199B5
:10172000FECF9FBB8EBBE09A99278DB30895262FDD
:10173000E199FECF9FBB8EBBE09A01970DB20216D6
:1017400031F02DBB0FB6F894E29AE19A0FBE0895DE
:10175000F894FFCF3A053A053A056D046D046D041F
:101760006D046D046D046D046D046D046D046D04F1
:101770006D046D0402052F056D046D0444050D050F
:10178000320502056D040205400509052F052F05E8
:101790006D04020502050905090502050205020599
:0817A0000205020536052B05C8
:1017A8004D015338611457C400BE00B4000103054D
:1017B8003E3C000A290F0005290F0005290F290CB6
:1017C800310C3E0C531E3E08310829081E1E230A00
:1017D8000008460A00081E031E0446041E044604A8
:1017E8001E0446041E04460423063206460A46061C
:1017F8003206230A2D08000A2D08000A2D082D0894
:10180800000A2D082D084B0A00053C0A00052D1971
:101818002C01B40050004C415345522041204F4BFD
:101828000A004C41534552204120424C4F434B45FE
:10183800440A004C415345522042204F4B0A004C69
:1018480041534552204220424C4F434B45440A00E5
:101858005031534552564F20005032534552564F3F
:1018680020002041490A002032500A002031500A45
:10187800004D4F44452043414D4552410A004D4FCC
:101888004445204D4952524F520A004D4F4445207D
:10189800574149540A00472048200047204120006A
:1018A8002043414D0A002050320A00204D49520A77
:1018B8000053454C46544553540A004149206D6F26
:1018C800746F72204C4546540A004149206D6F746C
:1018D8006F722052494748540A0041492073657283
:1018E800766F0A0048554D414E206D6F746F722017
:1018F8004C4546540A0048554D414E206D6F746F53
:10190800722052494748540A0048554D414E2073A9
:101918006572766F0A0053454C465445535420640B
:101928006F6E650A0052454144590A0053544152AA
:1019380054204C4556454C2000542000454E442028
:0219480000009D
:00000001FF
