:100000000C942A000C943F000C943F000C943F0089
:100010000C943F000C943F000C943F000C943F0064
:100020000C943F000C943F000C943F000C943F0054
:100030000C943F000C943F000C943F000C943F0044
:100040000C943F000C943F000C943F000C943F0034
:100050000C943F0011241FBECFE5D8E0DEBFCDBF1A
:1000600010E0A0E6B0E0E8ECF4E002C005900D92EC
:10007000A63DB107D9F70E94B5000C9462020C941A
:1000800000000F931F93CF93DF9300D000D000D0D8
:10009000CDB7DEB7482F392F20E00AE010E081E02D
:1000A00090E08C0F9D1F820F911DFC012F5F842F0C
:1000B000932FB8010E943A02805D8083842F932F92
:1000C000462F372F0A9758F721110BC026960FB6E7
:1000D000F894DEBF0FBECDBFDF91CF911F910F917E
:1000E00008952150E1E0F0E0EC0FFD1FE20FF11D5B
:1000F00080815D9BFECF8CB9E7CF8F70806487B91C
:10010000369A3699FECF84B195B1089563BD9EE1CC
:1001100095BD815018F415BC97980895EFE1FEE461
:100120003197F1F700C00000F4CFFC0181918111FB
:1001300001C008955D9BFECF8CB9F8CFCF93DF93BC
:10014000D62FC72F813071F083E790E00E94950091
:100150008D2F9C2F0E9441008DEC90E0DF91CF917C
:100160000C9495008FE690E0F1CFCDB7DEB76597A0
:100170000FB6F894DEBF0FBECDBF84B7806884BFD2
:1001800084BF81B3806B81BB82EA8FBD8AE18EBD63
:1001900080E29EE497BD86BD87B38C7F87BB88B322
:1001A000836088BBD49ADC9886E886B910BC93E358
:1001B00099B998E09AB980BD86E0E0E6F0E0DE010A
:1001C000119601900D928A95E1F7809166009091C9
:1001D0006700A09168008B8B9C8BAD8B2091690090
:1001E00030916A0040916B00288B398B4A8B8D8748
:1001F0009E87AF8780916C0090916D00A0916E00FA
:100200008A879B87AC878F839887A98780E496E04D
:100210009BBD8ABD2D813E814AE0429FC001439F24
:10022000900D1124885A9D4F99BD88BD8DE890E0AE
:100230000E9495006B817C8181E00E949E006D810F
:100240007E8182E00E949E006CE38FE00E94860027
:100250009AE0492E512C3E0128E0620E711CCE011D
:1002600001966C0101E010E08AE0382E22242394EC
:10027000902E802EE3E1F0E0EC0FFD1FE00FF11F68
:1002800080810E947D007C01E0E1F0E0EC0FFD1F29
:10029000E00FF11F80810E947D005C019EE5E91660
:1002A00091E0F90608F49BC0EBE8EE16E2E0FE06EA
:1002B00008F0C7C08BE8A81682E0B80608F4CCC0E6
:1002C000EAE0F0E0EC0FFD1FE00FF11F80818111EB
:1002D0004DC02082F601A280B3807501F3E4EF1ACD
:1002E000F108F7FE02C0F12CE12C21E082E890E059
:1002F000921202C087E790E00E949500C5010E941B
:10030000410080ED90E00E949500C7010E944100ED
:100310008DEC90E00E9495003E9CC0013F9C900DAA
:100320001124885A9D4FE1E09E1290C09BBD8ABD6A
:10033000FFE72AEF82E0F15020408040E1F700C063
:1003400000003A9CC0013B9C900D1124885A9D4F9F
:10035000E1E09E127EC09BBD8ABDFFE72AEF82E0EE
:10036000F15020408040E1F700C0000086B390E0EB
:10037000EDE0F0E0EC0FFD1FE00FF11F208102C067
:10038000959587952A95E2F7817099277C01E1E0A0
:10039000EE26892B71F4F301808181110AC0F601E8
:1003A00062817381882D0E949E006EE18AE00E9426
:1003B0008600F301E1923F01F2E0CF0ED11C023042
:1003C000110551F42FE788E391E0215080409040DF
:1003D000E1F700C000003FCF02E010E049CF8FEF0F
:1003E000F601E280F380E80EF11C87FDFA94F5EB4C
:1003F000EF16F10408F05ECFF601F382E2823E9C34
:10040000C0013F9C900D1124885A9D4FF1E09F122E
:100410001AC09BBD8ABDB701882D0E949E0068E26C
:1004200084E12AE5E216F10449F0C701B2010E9415
:100430004E02892B09F03ECF6CE383E00E948600D8
:1004400039CF81E0CDCF99BD88BDE5CF99BD88BDBD
:100450006FCF99BD88BD81CF96E2A91692E0B9060B
:1004600008F084CFEAE0F0E0EC0FFD1FE00FF11F91
:1004700010827CCFAA1BBB1B51E107C0AA1FBB1F68
:10048000A617B70710F0A61BB70B881F991F5A9520
:10049000A9F780959095BC01CD01089597FB072E93
:1004A00016F4009407D077FD09D00E943A0207FCA9
:1004B00005D03EF4909581959F4F08957095619574
:0804C0007F4F0895F894FFCF6F
:1004C8000000640057000001000003020000005013
:1004D80031200050322000503120737472696B65EE
:1004E8002000503220737472696B6520000D0A5326
:1004F8004552564F20544553542020286A6F79732B
:100508007469636B2058203D206D6F76652C2059E7
:10051800207570203D20737472696B652C2062759C
:1005280074746F6E203D207072696E74290D0A0014
:06053800202D3E20000012
:00000001FF
